{
  "address": "0xfD28f108e95f4D41daAE9dbfFf707D677985998E",
  "abi": [
    {
      "inputs": [
        {
          "internalType": "address",
          "name": "_mimo",
          "type": "address"
        },
        {
          "internalType": "address",
          "name": "_endpoint",
          "type": "address"
        },
        {
          "internalType": "address",
          "name": "_owner",
          "type": "address"
        },
        {
          "internalType": "uint32",
          "name": "_mainEid",
          "type": "uint32"
        }
      ],
      "stateMutability": "nonpayable",
      "type": "constructor"
    },
    {
      "inputs": [],
      "name": "AddressZero",
      "type": "error"
    },
    {
      "inputs": [],
      "name": "EnforcedPause",
      "type": "error"
    },
    {
      "inputs": [],
      "name": "ExpectedPause",
      "type": "error"
    },
    {
      "inputs": [],
      "name": "InvalidDelegate",
      "type": "error"
    },
    {
      "inputs": [],
      "name": "InvalidEndpointCall",
      "type": "error"
    },
    {
      "inputs": [
        {
          "internalType": "bytes",
          "name": "options",
          "type": "bytes"
        }
      ],
      "name": "InvalidOptions",
      "type": "error"
    },
    {
      "inputs": [],
      "name": "LzTokenUnavailable",
      "type": "error"
    },
    {
      "inputs": [
        {
          "internalType": "uint32",
          "name": "eid",
          "type": "uint32"
        }
      ],
      "name": "NoPeer",
      "type": "error"
    },
    {
      "inputs": [
        {
          "internalType": "uint256",
          "name": "msgValue",
          "type": "uint256"
        }
      ],
      "name": "NotEnoughNative",
      "type": "error"
    },
    {
      "inputs": [
        {
          "internalType": "uint32",
          "name": "eid",
          "type": "uint32"
        },
        {
          "internalType": "bytes32",
          "name": "sender",
          "type": "bytes32"
        }
      ],
      "name": "OnlyPeer",
      "type": "error"
    },
    {
      "inputs": [
        {
          "internalType": "address",
          "name": "owner",
          "type": "address"
        }
      ],
      "name": "OwnableInvalidOwner",
      "type": "error"
    },
    {
      "inputs": [
        {
          "internalType": "address",
          "name": "account",
          "type": "address"
        }
      ],
      "name": "OwnableUnauthorizedAccount",
      "type": "error"
    },
    {
      "inputs": [
        {
          "internalType": "address",
          "name": "token",
          "type": "address"
        }
      ],
      "name": "SafeERC20FailedOperation",
      "type": "error"
    },
    {
      "anonymous": false,
      "inputs": [
        {
          "indexed": true,
          "internalType": "address",
          "name": "token",
          "type": "address"
        },
        {
          "indexed": false,
          "internalType": "uint256",
          "name": "amount",
          "type": "uint256"
        },
        {
          "indexed": true,
          "internalType": "address",
          "name": "recipient",
          "type": "address"
        }
      ],
      "name": "EmergencyRescued",
      "type": "event"
    },
    {
      "anonymous": false,
      "inputs": [
        {
          "components": [
            {
              "internalType": "uint32",
              "name": "eid",
              "type": "uint32"
            },
            {
              "internalType": "uint16",
              "name": "msgType",
              "type": "uint16"
            },
            {
              "internalType": "bytes",
              "name": "options",
              "type": "bytes"
            }
          ],
          "indexed": false,
          "internalType": "struct EnforcedOptionParam[]",
          "name": "_enforcedOptions",
          "type": "tuple[]"
        }
      ],
      "name": "EnforcedOptionSet",
      "type": "event"
    },
    {
      "anonymous": false,
      "inputs": [
        {
          "indexed": false,
          "internalType": "bytes32",
          "name": "guid",
          "type": "bytes32"
        },
        {
          "indexed": false,
          "internalType": "uint32",
          "name": "dstEid",
          "type": "uint32"
        },
        {
          "indexed": false,
          "internalType": "address",
          "name": "from",
          "type": "address"
        },
        {
          "indexed": false,
          "internalType": "address",
          "name": "to",
          "type": "address"
        },
        {
          "indexed": false,
          "internalType": "uint256",
          "name": "nativeFeeAmount",
          "type": "uint256"
        },
        {
          "indexed": false,
          "internalType": "uint256",
          "name": "amountSent",
          "type": "uint256"
        }
      ],
      "name": "MigrationMessageSent",
      "type": "event"
    },
    {
      "anonymous": false,
      "inputs": [
        {
          "indexed": true,
          "internalType": "address",
          "name": "previousOwner",
          "type": "address"
        },
        {
          "indexed": true,
          "internalType": "address",
          "name": "newOwner",
          "type": "address"
        }
      ],
      "name": "OwnershipTransferred",
      "type": "event"
    },
    {
      "anonymous": false,
      "inputs": [
        {
          "indexed": false,
          "internalType": "address",
          "name": "account",
          "type": "address"
        }
      ],
      "name": "Paused",
      "type": "event"
    },
    {
      "anonymous": false,
      "inputs": [
        {
          "indexed": false,
          "internalType": "uint32",
          "name": "eid",
          "type": "uint32"
        },
        {
          "indexed": false,
          "internalType": "bytes32",
          "name": "peer",
          "type": "bytes32"
        }
      ],
      "name": "PeerSet",
      "type": "event"
    },
    {
      "anonymous": false,
      "inputs": [
        {
          "indexed": false,
          "internalType": "address",
          "name": "account",
          "type": "address"
        }
      ],
      "name": "Unpaused",
      "type": "event"
    },
    {
      "inputs": [],
      "name": "MIMO",
      "outputs": [
        {
          "internalType": "contract IERC20",
          "name": "",
          "type": "address"
        }
      ],
      "stateMutability": "view",
      "type": "function"
    },
    {
      "inputs": [],
      "name": "SEND",
      "outputs": [
        {
          "internalType": "uint16",
          "name": "",
          "type": "uint16"
        }
      ],
      "stateMutability": "view",
      "type": "function"
    },
    {
      "inputs": [],
      "name": "SEND_AND_MIGRATE",
      "outputs": [
        {
          "internalType": "uint16",
          "name": "",
          "type": "uint16"
        }
      ],
      "stateMutability": "view",
      "type": "function"
    },
    {
      "inputs": [
        {
          "internalType": "uint32",
          "name": "_eid",
          "type": "uint32"
        },
        {
          "internalType": "uint16",
          "name": "_msgType",
          "type": "uint16"
        },
        {
          "internalType": "bytes",
          "name": "_extraOptions",
          "type": "bytes"
        }
      ],
      "name": "combineOptions",
      "outputs": [
        {
          "internalType": "bytes",
          "name": "",
          "type": "bytes"
        }
      ],
      "stateMutability": "view",
      "type": "function"
    },
    {
      "inputs": [
        {
          "internalType": "address",
          "name": "_token",
          "type": "address"
        },
        {
          "internalType": "uint256",
          "name": "_amount",
          "type": "uint256"
        }
      ],
      "name": "emergencyRescue",
      "outputs": [],
      "stateMutability": "nonpayable",
      "type": "function"
    },
    {
      "inputs": [],
      "name": "endpoint",
      "outputs": [
        {
          "internalType": "contract ILayerZeroEndpointV2",
          "name": "",
          "type": "address"
        }
      ],
      "stateMutability": "view",
      "type": "function"
    },
    {
      "inputs": [
        {
          "internalType": "uint32",
          "name": "eid",
          "type": "uint32"
        },
        {
          "internalType": "uint16",
          "name": "msgType",
          "type": "uint16"
        }
      ],
      "name": "enforcedOptions",
      "outputs": [
        {
          "internalType": "bytes",
          "name": "enforcedOption",
          "type": "bytes"
        }
      ],
      "stateMutability": "view",
      "type": "function"
    },
    {
      "inputs": [],
      "name": "mainEid",
      "outputs": [
        {
          "internalType": "uint32",
          "name": "",
          "type": "uint32"
        }
      ],
      "stateMutability": "view",
      "type": "function"
    },
    {
      "inputs": [
        {
          "internalType": "address",
          "name": "_receiver",
          "type": "address"
        },
        {
          "internalType": "uint256",
          "name": "_amount",
          "type": "uint256"
        },
        {
          "internalType": "uint32",
          "name": "_dstEid",
          "type": "uint32"
        },
        {
          "internalType": "address",
          "name": "_refundAddress",
          "type": "address"
        },
        {
          "internalType": "bytes",
          "name": "_extraSendOptions",
          "type": "bytes"
        },
        {
          "internalType": "bytes",
          "name": "_extraReturnOptions",
          "type": "bytes"
        }
      ],
      "name": "migrateToPRL",
      "outputs": [
        {
          "components": [
            {
              "internalType": "bytes32",
              "name": "guid",
              "type": "bytes32"
            },
            {
              "internalType": "uint64",
              "name": "nonce",
              "type": "uint64"
            },
            {
              "components": [
                {
                  "internalType": "uint256",
                  "name": "nativeFee",
                  "type": "uint256"
                },
                {
                  "internalType": "uint256",
                  "name": "lzTokenFee",
                  "type": "uint256"
                }
              ],
              "internalType": "struct MessagingFee",
              "name": "fee",
              "type": "tuple"
            }
          ],
          "internalType": "struct MessagingReceipt",
          "name": "msgReceipt",
          "type": "tuple"
        }
      ],
      "stateMutability": "payable",
      "type": "function"
    },
    {
      "inputs": [],
      "name": "oAppVersion",
      "outputs": [
        {
          "internalType": "uint64",
          "name": "senderVersion",
          "type": "uint64"
        },
        {
          "internalType": "uint64",
          "name": "receiverVersion",
          "type": "uint64"
        }
      ],
      "stateMutability": "view",
      "type": "function"
    },
    {
      "inputs": [],
      "name": "owner",
      "outputs": [
        {
          "internalType": "address",
          "name": "",
          "type": "address"
        }
      ],
      "stateMutability": "view",
      "type": "function"
    },
    {
      "inputs": [],
      "name": "pause",
      "outputs": [],
      "stateMutability": "nonpayable",
      "type": "function"
    },
    {
      "inputs": [],
      "name": "paused",
      "outputs": [
        {
          "internalType": "bool",
          "name": "",
          "type": "bool"
        }
      ],
      "stateMutability": "view",
      "type": "function"
    },
    {
      "inputs": [
        {
          "internalType": "uint32",
          "name": "eid",
          "type": "uint32"
        }
      ],
      "name": "peers",
      "outputs": [
        {
          "internalType": "bytes32",
          "name": "peer",
          "type": "bytes32"
        }
      ],
      "stateMutability": "view",
      "type": "function"
    },
    {
      "inputs": [
        {
          "internalType": "uint32",
          "name": "_dstEid",
          "type": "uint32"
        },
        {
          "internalType": "address",
          "name": "_receiver",
          "type": "address"
        },
        {
          "internalType": "uint256",
          "name": "_amount",
          "type": "uint256"
        },
        {
          "internalType": "bytes",
          "name": "_extraSendOptions",
          "type": "bytes"
        },
        {
          "internalType": "bytes",
          "name": "_extraReturnOptions",
          "type": "bytes"
        }
      ],
      "name": "quote",
      "outputs": [
        {
          "components": [
            {
              "internalType": "uint256",
              "name": "nativeFee",
              "type": "uint256"
            },
            {
              "internalType": "uint256",
              "name": "lzTokenFee",
              "type": "uint256"
            }
          ],
          "internalType": "struct MessagingFee",
          "name": "fee",
          "type": "tuple"
        }
      ],
      "stateMutability": "view",
      "type": "function"
    },
    {
      "inputs": [],
      "name": "renounceOwnership",
      "outputs": [],
      "stateMutability": "nonpayable",
      "type": "function"
    },
    {
      "inputs": [
        {
          "internalType": "address",
          "name": "_delegate",
          "type": "address"
        }
      ],
      "name": "setDelegate",
      "outputs": [],
      "stateMutability": "nonpayable",
      "type": "function"
    },
    {
      "inputs": [
        {
          "components": [
            {
              "internalType": "uint32",
              "name": "eid",
              "type": "uint32"
            },
            {
              "internalType": "uint16",
              "name": "msgType",
              "type": "uint16"
            },
            {
              "internalType": "bytes",
              "name": "options",
              "type": "bytes"
            }
          ],
          "internalType": "struct EnforcedOptionParam[]",
          "name": "_enforcedOptions",
          "type": "tuple[]"
        }
      ],
      "name": "setEnforcedOptions",
      "outputs": [],
      "stateMutability": "nonpayable",
      "type": "function"
    },
    {
      "inputs": [
        {
          "internalType": "uint32",
          "name": "_eid",
          "type": "uint32"
        },
        {
          "internalType": "bytes32",
          "name": "_peer",
          "type": "bytes32"
        }
      ],
      "name": "setPeer",
      "outputs": [],
      "stateMutability": "nonpayable",
      "type": "function"
    },
    {
      "inputs": [
        {
          "internalType": "address",
          "name": "newOwner",
          "type": "address"
        }
      ],
      "name": "transferOwnership",
      "outputs": [],
      "stateMutability": "nonpayable",
      "type": "function"
    },
    {
      "inputs": [],
      "name": "unpause",
      "outputs": [],
      "stateMutability": "nonpayable",
      "type": "function"
    }
  ],
  "transactionHash": "0x7ddf9d652e9bfcb68fce66da6bdab5c4459ee91427266950f1dc9b472724763a",
  "args": [
    "0x1D1764F04DE29da6b90ffBef372D1A45596C4855",
    "0x1a44076050125825900e736c501f859c50fE728c",
    "0x66CcEC236bbcE5f1bBd1b2fC0a4014e57A55ad02",
    30101
  ],
  "numDeployments": 1,
  "solcInputHash": "f79a8b76a6150c66749bcbcc3be229f6",
  "bytecode": "0x60e060405234801561001057600080fd5b50604051611fe8380380611fe883398101604081905261002f916101b4565b8282806001600160a01b03811661006057604051631e4fbdf760e01b81526000600482015260240160405180910390fd5b61006981610148565b506001600160a01b03808316608052811661009757604051632d618d8160e21b815260040160405180910390fd5b60805160405163ca5eb5e160e01b81526001600160a01b0383811660048301529091169063ca5eb5e190602401600060405180830381600087803b1580156100de57600080fd5b505af11580156100f2573d6000803e3d6000fd5b50506003805460ff191690555050506001600160a01b038516905061012a57604051639fabe1c160e01b815260040160405180910390fd5b6001600160a01b0390931660a052505063ffffffff1660c052610213565b600080546001600160a01b038381166001600160a01b0319831681178455604051919092169283917f8be0079c531659141344cd1fd0a4f28419497f9722a3daafe3b4186f6b6457e09190a35050565b80516001600160a01b03811681146101af57600080fd5b919050565b600080600080608085870312156101ca57600080fd5b6101d385610198565b93506101e160208601610198565b92506101ef60408601610198565b9150606085015163ffffffff8116811461020857600080fd5b939692955090935050565b60805160a05160c051611d6e61027a600039600081816103810152818161052601526106d401526000818161034d01526106a701526000818161029901528181610a3e01528181610be601528181610e9a0152818161124c015261131e0152611d6e6000f3fe60806040526004361061016a5760003560e01c80638456cb59116100cb578063b72952ee1161007f578063bc70b35411610059578063bc70b35414610433578063ca5eb5e114610453578063f2fde38b1461047357600080fd5b8063b72952ee146103b8578063b98bd070146103d8578063bb0b6a53146103f857600080fd5b80639edece26116100b05780639edece261461031b578063a00e07c41461033b578063b67d54331461036f57600080fd5b80638456cb59146102e85780638da5cb5b146102fd57600080fd5b8063405ba543116101225780635c975abb116101075780635c975abb146102645780635e280f1114610287578063715018a6146102d357600080fd5b8063405ba543146102225780635535d4611461023757600080fd5b80633400288b116101535780633400288b146101be578063361f0907146101e05780633f4ba83a1461020d57600080fd5b806317442b701461016f5780631f5e133414610196575b600080fd5b34801561017b57600080fd5b50604080516001815260006020820152015b60405180910390f35b3480156101a257600080fd5b506101ab600181565b60405161ffff909116815260200161018d565b3480156101ca57600080fd5b506101de6101d93660046113a4565b610493565b005b3480156101ec57600080fd5b506102006101fb36600461142c565b6104a9565b60405161018d91906114c9565b34801561021957600080fd5b506101de61055c565b34801561022e57600080fd5b506101ab600281565b34801561024357600080fd5b506102576102523660046114f2565b61056e565b60405161018d9190611575565b34801561027057600080fd5b5060035460ff16604051901515815260200161018d565b34801561029357600080fd5b506102bb7f000000000000000000000000000000000000000000000000000000000000000081565b6040516001600160a01b03909116815260200161018d565b3480156102df57600080fd5b506101de610613565b3480156102f457600080fd5b506101de610625565b34801561030957600080fd5b506000546001600160a01b03166102bb565b61032e61032936600461158f565b610635565b60405161018d919061163e565b34801561034757600080fd5b506102bb7f000000000000000000000000000000000000000000000000000000000000000081565b34801561037b57600080fd5b506103a37f000000000000000000000000000000000000000000000000000000000000000081565b60405163ffffffff909116815260200161018d565b3480156103c457600080fd5b506101de6103d3366004611681565b6107c7565b3480156103e457600080fd5b506101de6103f336600461169f565b61082b565b34801561040457600080fd5b50610425610413366004611714565b60016020526000908152604090205481565b60405190815260200161018d565b34801561043f57600080fd5b5061025761044e36600461172f565b610845565b34801561045f57600080fd5b506101de61046e366004611790565b6109fe565b34801561047f57600080fd5b506101de61048e366004611790565b610a9d565b61049b610af4565b6104a58282610b3a565b5050565b6040805180820190915260008082526020820152600061050188888b87878080601f016020809104026020016040519081016040528093929190818152602001838380828437600092019190915250610b8f92505050565b9050600061051f8a87610515576001610518565b60025b8989610845565b905061054e7f000000000000000000000000000000000000000000000000000000000000000083836000610bd0565b9a9950505050505050505050565b610564610af4565b61056c610cb1565b565b600260209081526000928352604080842090915290825290208054610592906117ad565b80601f01602080910402602001604051908101604052809291908181526020018280546105be906117ad565b801561060b5780601f106105e05761010080835404028352916020019161060b565b820191906000526020600020905b8154815290600101906020018083116105ee57829003601f168201915b505050505081565b61061b610af4565b61056c6000610d03565b61062d610af4565b61056c610d6b565b61063d611343565b610645610da8565b6001600160a01b038616610685576040517f9fabe1c100000000000000000000000000000000000000000000000000000000815260040160405180910390fd5b3460006106988987610515576001610518565b90506106cf6001600160a01b037f00000000000000000000000000000000000000000000000000000000000000001633308d610de5565b6107527f00000000000000000000000000000000000000000000000000000000000000006107358d8d8d8a8a8080601f016020809104026020016040519081016040528093929190818152602001838380828437600092019190915250610b8f92505050565b83604051806040016040528034815260200160008152508c610e67565b80516040805191825263ffffffff8c16602083015233908201526001600160a01b038d1660608201526080810184905260a081018c90529093507f3dd5b9e3159a840b8859b5bbb8860ecf1552297aa737e97a44bf51d3c927a32b9060c00160405180910390a1505098975050505050505050565b6107cf610af4565b6107d7610f72565b60405181815233906001600160a01b038416907f050bfcf56def683ba46089b74b240740900eb3e22309f1a9a50cdad12e7a43b29060200160405180910390a36104a56001600160a01b0383163383610fae565b610833610af4565b6104a56108408284611857565b610fe4565b63ffffffff8416600090815260026020908152604080832061ffff87168452909152812080546060929190610879906117ad565b80601f01602080910402602001604051908101604052809291908181526020018280546108a5906117ad565b80156108f25780601f106108c7576101008083540402835291602001916108f2565b820191906000526020600020905b8154815290600101906020018083116108d557829003601f168201915b5050505050905080516000036109425783838080601f0160208091040260200160405190810160405280939291908181526020018383808284376000920191909152509294506109f69350505050565b60008390036109525790506109f6565b600283106109d05761099984848080601f0160208091040260200160405190810160405280939291908181526020018383808284376000920191909152506110f692505050565b806109a7846002818861197d565b6040516020016109b9939291906119a7565b6040516020818303038152906040529150506109f6565b8383604051639a6d49cd60e01b81526004016109ed9291906119cf565b60405180910390fd5b949350505050565b610a06610af4565b6040517fca5eb5e10000000000000000000000000000000000000000000000000000000081526001600160a01b0382811660048301527f0000000000000000000000000000000000000000000000000000000000000000169063ca5eb5e190602401600060405180830381600087803b158015610a8257600080fd5b505af1158015610a96573d6000803e3d6000fd5b5050505050565b610aa5610af4565b6001600160a01b038116610ae8576040517f1e4fbdf7000000000000000000000000000000000000000000000000000000008152600060048201526024016109ed565b610af181610d03565b50565b6000546001600160a01b0316331461056c576040517f118cdaa70000000000000000000000000000000000000000000000000000000081523360048201526024016109ed565b63ffffffff8216600081815260016020908152604091829020849055815192835282018390527f238399d427b947898edb290f5ff0f9109849b1c3ba196a42e35f00c50a54b98b910160405180910390a15050565b80516060906001600160a01b03861685858386604051602001610bb69594939291906119fe565b604051602081830303815290604052915050949350505050565b60408051808201909152600080825260208201527f00000000000000000000000000000000000000000000000000000000000000006001600160a01b031663ddc28c586040518060a001604052808863ffffffff168152602001610c3389611122565b8152602001878152602001868152602001851515815250306040518363ffffffff1660e01b8152600401610c68929190611a2f565b6040805180830381865afa158015610c84573d6000803e3d6000fd5b505050506040513d601f19601f82011682018060405250810190610ca89190611af7565b95945050505050565b610cb9610f72565b6003805460ff191690557f5db9ee0a495bf2e6ff9c91a7834c1ba4fdd244a5e8aa4e537bd38aeae4b073aa335b6040516001600160a01b03909116815260200160405180910390a1565b600080546001600160a01b038381167fffffffffffffffffffffffff0000000000000000000000000000000000000000831681178455604051919092169283917f8be0079c531659141344cd1fd0a4f28419497f9722a3daafe3b4186f6b6457e09190a35050565b610d73610da8565b6003805460ff191660011790557f62e78cea01bee320cd4e420270b5ea74000d11b0c9f74754ebdbfc544b05a258610ce63390565b60035460ff161561056c576040517fd93c066500000000000000000000000000000000000000000000000000000000815260040160405180910390fd5b6040516001600160a01b038481166024830152838116604483015260648201839052610e619186918216906323b872dd906084015b604051602081830303815290604052915060e01b6020820180517bffffffffffffffffffffffffffffffffffffffffffffffffffffffff838183161783525050505061117d565b50505050565b610e6f611343565b6000610e7e8460000151611207565b602085015190915015610e9857610e988460200151611248565b7f00000000000000000000000000000000000000000000000000000000000000006001600160a01b0316632637a450826040518060a001604052808b63ffffffff168152602001610ee88c611122565b81526020018a815260200189815260200160008960200151111515815250866040518463ffffffff1660e01b8152600401610f24929190611a2f565b60806040518083038185885af1158015610f42573d6000803e3d6000fd5b50505050506040513d601f19601f82011682018060405250810190610f679190611b13565b979650505050505050565b60035460ff1661056c576040517f8dfc202b00000000000000000000000000000000000000000000000000000000815260040160405180910390fd5b6040516001600160a01b03838116602483015260448201839052610fdf91859182169063a9059cbb90606401610e1a565b505050565b60005b81518110156110bb5761101682828151811061100557611005611b6a565b6020026020010151604001516110f6565b81818151811061102857611028611b6a565b6020026020010151604001516002600084848151811061104a5761104a611b6a565b60200260200101516000015163ffffffff1663ffffffff168152602001908152602001600020600084848151811061108457611084611b6a565b60200260200101516020015161ffff1661ffff16815260200190815260200160002090816110b29190611bd0565b50600101610fe7565b507fbe4864a8e820971c0247f5992e2da559595f7bf076a21cb5928d443d2a13b674816040516110eb9190611c90565b60405180910390a150565b600281015161ffff81166003146104a55781604051639a6d49cd60e01b81526004016109ed9190611575565b63ffffffff811660009081526001602052604081205480611177576040517ff6ff4fb700000000000000000000000000000000000000000000000000000000815263ffffffff841660048201526024016109ed565b92915050565b600080602060008451602086016000885af1806111a0576040513d6000823e3d81fd5b50506000513d915081156111b85780600114156111c5565b6001600160a01b0384163b155b15610e61576040517f5274afe70000000000000000000000000000000000000000000000000000000081526001600160a01b03851660048201526024016109ed565b6000813414611244576040517f9f7041200000000000000000000000000000000000000000000000000000000081523460048201526024016109ed565b5090565b60007f00000000000000000000000000000000000000000000000000000000000000006001600160a01b031663e4fe1d946040518163ffffffff1660e01b8152600401602060405180830381865afa1580156112a8573d6000803e3d6000fd5b505050506040513d601f19601f820116820180604052508101906112cc9190611d1b565b90506001600160a01b03811661130e576040517f5373352a00000000000000000000000000000000000000000000000000000000815260040160405180910390fd5b6104a56001600160a01b038216337f000000000000000000000000000000000000000000000000000000000000000085610de5565b604051806060016040528060008019168152602001600067ffffffffffffffff168152602001611386604051806040016040528060008152602001600081525090565b905290565b803563ffffffff8116811461139f57600080fd5b919050565b600080604083850312156113b757600080fd5b6113c08361138b565b946020939093013593505050565b6001600160a01b0381168114610af157600080fd5b60008083601f8401126113f557600080fd5b50813567ffffffffffffffff81111561140d57600080fd5b60208301915083602082850101111561142557600080fd5b9250929050565b600080600080600080600060a0888a03121561144757600080fd5b6114508861138b565b96506020880135611460816113ce565b955060408801359450606088013567ffffffffffffffff8082111561148457600080fd5b6114908b838c016113e3565b909650945060808a01359150808211156114a957600080fd5b506114b68a828b016113e3565b989b979a50959850939692959293505050565b815181526020808301519082015260408101611177565b803561ffff8116811461139f57600080fd5b6000806040838503121561150557600080fd5b61150e8361138b565b915061151c602084016114e0565b90509250929050565b60005b83811015611540578181015183820152602001611528565b50506000910152565b60008151808452611561816020860160208601611525565b601f01601f19169290920160200192915050565b6020815260006115886020830184611549565b9392505050565b60008060008060008060008060c0898b0312156115ab57600080fd5b88356115b6816113ce565b9750602089013596506115cb60408a0161138b565b955060608901356115db816113ce565b9450608089013567ffffffffffffffff808211156115f857600080fd5b6116048c838d016113e3565b909650945060a08b013591508082111561161d57600080fd5b5061162a8b828c016113e3565b999c989b5096995094979396929594505050565b60006080820190508251825267ffffffffffffffff6020840151166020830152604083015161167a604084018280518252602090810151910152565b5092915050565b6000806040838503121561169457600080fd5b82356113c0816113ce565b600080602083850312156116b257600080fd5b823567ffffffffffffffff808211156116ca57600080fd5b818501915085601f8301126116de57600080fd5b8135818111156116ed57600080fd5b8660208260051b850101111561170257600080fd5b60209290920196919550909350505050565b60006020828403121561172657600080fd5b6115888261138b565b6000806000806060858703121561174557600080fd5b61174e8561138b565b935061175c602086016114e0565b9250604085013567ffffffffffffffff81111561177857600080fd5b611784878288016113e3565b95989497509550505050565b6000602082840312156117a257600080fd5b8135611588816113ce565b600181811c908216806117c157607f821691505b6020821081036117e157634e487b7160e01b600052602260045260246000fd5b50919050565b634e487b7160e01b600052604160045260246000fd5b6040516060810167ffffffffffffffff81118282101715611820576118206117e7565b60405290565b604051601f8201601f1916810167ffffffffffffffff8111828210171561184f5761184f6117e7565b604052919050565b600067ffffffffffffffff80841115611872576118726117e7565b8360051b6020611883818301611826565b86815291850191818101903684111561189b57600080fd5b865b84811015611971578035868111156118b55760008081fd5b880160603682900312156118c95760008081fd5b6118d16117fd565b6118da8261138b565b81526118e78683016114e0565b86820152604080830135898111156118ff5760008081fd5b9290920191601f36818501126119155760008081fd5b83358a811115611927576119276117e7565b611938818301601f19168a01611826565b9150808252368982870101111561194f5760008081fd5b808986018a84013760009082018901529082015284525091830191830161189d565b50979650505050505050565b6000808585111561198d57600080fd5b8386111561199a57600080fd5b5050820193919092039150565b600084516119b9818460208901611525565b8201838582376000930192835250909392505050565b60208152816020820152818360408301376000818301604090810191909152601f909201601f19160101919050565b85815284602082015263ffffffff8416604082015282606082015260a060808201526000610f6760a0830184611549565b6040815263ffffffff8351166040820152602083015160608201526000604084015160a06080840152611a6560e0840182611549565b90506060850151603f198483030160a0850152611a828282611549565b60809690960151151560c08501525050506001600160a01b039190911660209091015290565b600060408284031215611aba57600080fd5b6040516040810181811067ffffffffffffffff82111715611add57611add6117e7565b604052825181526020928301519281019290925250919050565b600060408284031215611b0957600080fd5b6115888383611aa8565b600060808284031215611b2557600080fd5b611b2d6117fd565b82518152602083015167ffffffffffffffff81168114611b4c57600080fd5b6020820152611b5e8460408501611aa8565b60408201529392505050565b634e487b7160e01b600052603260045260246000fd5b601f821115610fdf576000816000526020600020601f850160051c81016020861015611ba95750805b601f850160051c820191505b81811015611bc857828155600101611bb5565b505050505050565b815167ffffffffffffffff811115611bea57611bea6117e7565b611bfe81611bf884546117ad565b84611b80565b602080601f831160018114611c335760008415611c1b5750858301515b600019600386901b1c1916600185901b178555611bc8565b600085815260208120601f198616915b82811015611c6257888601518255948401946001909101908401611c43565b5085821015611c805787850151600019600388901b60f8161c191681555b5050505050600190811b01905550565b600060208083018184528085518083526040925060408601915060408160051b87010184880160005b83811015611d0d57888303603f190185528151805163ffffffff1684528781015161ffff16888501528601516060878501819052611cf981860183611549565b968901969450505090860190600101611cb9565b509098975050505050505050565b600060208284031215611d2d57600080fd5b8151611588816113ce56fea2646970667358221220ed8b7120d103ce07de54ca2574ad9d5b2b8f65388b896cd22e8c8de1c1f3cc2364736f6c63430008190033",
  "devdoc": {
    "author": "Cooper Labs",
    "custom:contact": "security@cooperlabs.xyz",
    "errors": {
      "EnforcedPause()": [
        {
          "details": "The operation failed because the contract is paused."
        }
      ],
      "ExpectedPause()": [
        {
          "details": "The operation failed because the contract is not paused."
        }
      ],
      "OwnableInvalidOwner(address)": [
        {
          "details": "The owner is not a valid owner account. (eg. `address(0)`)"
        }
      ],
      "OwnableUnauthorizedAccount(address)": [
        {
          "details": "The caller account is not authorized to perform an operation."
        }
      ],
      "SafeERC20FailedOperation(address)": [
        {
          "details": "An operation with an ERC-20 token failed."
        }
      ]
    },
    "events": {
      "EmergencyRescued(address,uint256,address)": {
        "params": {
          "amount": "The amount of tokens rescued",
          "recipient": "The address that received the rescued tokens",
          "token": "The address of the rescued token"
        }
      },
      "MigrationMessageSent(bytes32,uint32,address,address,uint256,uint256)": {
        "params": {
          "amountSent": "The amount of tokens being migrated",
          "dstEid": "The destination endpoint ID",
          "from": "The address sending the migration",
          "guid": "The unique identifier of the sent message",
          "nativeFeeAmount": "The amount of native fee paid for the message",
          "to": "The address receiving the migrated tokens"
        }
      },
      "Paused(address)": {
        "details": "Emitted when the pause is triggered by `account`."
      },
      "Unpaused(address)": {
        "details": "Emitted when the pause is lifted by `account`."
      }
    },
    "kind": "dev",
    "methods": {
      "combineOptions(uint32,uint16,bytes)": {
        "details": "If there is an enforced lzReceive option: - {gasLimit: 200k, msg.value: 1 ether} AND a caller supplies a lzReceive option: {gasLimit: 100k, msg.value: 0.5 ether} - The resulting options will be {gasLimit: 300k, msg.value: 1.5 ether} when the message is executed on the remote lzReceive() function.This presence of duplicated options is handled off-chain in the verifier/executor.",
        "params": {
          "_eid": "The endpoint ID.",
          "_extraOptions": "Additional options passed by the caller.",
          "_msgType": "The OAPP message type."
        },
        "returns": {
          "_0": "options The combination of caller specified options AND enforced options."
        }
      },
      "constructor": {
        "params": {
          "_endpoint": "Address of the LayerZero endpoint",
          "_mainEid": "Endpoint ID of the main chain where the PrincipalMigrationContract is deployed",
          "_mimo": "Address of the MIMO token contract",
          "_owner": "Address of the contract owner"
        }
      },
      "emergencyRescue(address,uint256)": {
        "details": "This function can only be called by the owner and only when the contract is paused",
        "params": {
          "_amount": "The amount of tokens to rescue",
          "_token": "The address of the ERC20 token to rescue"
        }
      },
      "migrateToPRL(address,uint256,uint32,address,bytes,bytes)": {
        "params": {
          "_amount": "The amount of MIMO tokens to migrate",
          "_dstEid": "The destination endpoint ID",
          "_extraReturnOptions": "Gas settings for Main Chain -> Final chain",
          "_extraSendOptions": "Gas settings for A -> Main Chain",
          "_receiver": "The address that will receive the PRL tokens"
        },
        "returns": {
          "msgReceipt": "The receipt of the LayerZero message"
        }
      },
      "oAppVersion()": {
        "details": "Providing 0 as the default for OAppReceiver version. Indicates that the OAppReceiver is not implemented. ie. this is a SEND only OApp.If the OApp uses both OAppSender and OAppReceiver, then this needs to be override returning the correct versions",
        "returns": {
          "receiverVersion": "The version of the OAppReceiver.sol contract.",
          "senderVersion": "The version of the OAppSender.sol contract."
        }
      },
      "owner()": {
        "details": "Returns the address of the current owner."
      },
      "pause()": {
        "details": "This function can only be called by the owner"
      },
      "paused()": {
        "details": "Returns true if the contract is paused, and false otherwise."
      },
      "quote(uint32,address,uint256,bytes,bytes)": {
        "params": {
          "_amount": "The amount of Mimo token to migrate.",
          "_dstEid": "Destination endpoint ID where the message will be sent.",
          "_extraReturnOptions": "Additional gas options for the return call (B -> A).",
          "_extraSendOptions": "Gas options for receiving the send call (A -> B).",
          "_receiver": "Address that will receive the PRL token.abi"
        },
        "returns": {
          "fee": "The estimated messaging fee."
        }
      },
      "renounceOwnership()": {
        "details": "Leaves the contract without owner. It will not be possible to call `onlyOwner` functions. Can only be called by the current owner. NOTE: Renouncing ownership will leave the contract without an owner, thereby disabling any functionality that is only available to the owner."
      },
      "setDelegate(address)": {
        "details": "Only the owner/admin of the OApp can call this function.Provides the ability for a delegate to set configs, on behalf of the OApp, directly on the Endpoint contract.",
        "params": {
          "_delegate": "The address of the delegate to be set."
        }
      },
      "setEnforcedOptions((uint32,uint16,bytes)[])": {
        "details": "Sets the enforced options for specific endpoint and message type combinations.Only the owner/admin of the OApp can call this function.Provides a way for the OApp to enforce things like paying for PreCrime, AND/OR minimum dst lzReceive gas amounts etc.These enforced options can vary as the potential options/execution on the remote may differ as per the msgType. eg. Amount of lzReceive() gas necessary to deliver a lzCompose() message adds overhead you dont want to pay if you are only making a standard LayerZero message ie. lzReceive() WITHOUT sendCompose().",
        "params": {
          "_enforcedOptions": "An array of EnforcedOptionParam structures specifying enforced options."
        }
      },
      "setPeer(uint32,bytes32)": {
        "details": "Only the owner/admin of the OApp can call this function.Indicates that the peer is trusted to send LayerZero messages to this OApp.Set this to bytes32(0) to remove the peer address.Peer is a bytes32 to accommodate non-evm chains.",
        "params": {
          "_eid": "The endpoint ID.",
          "_peer": "The address of the peer to be associated with the corresponding endpoint."
        }
      },
      "transferOwnership(address)": {
        "details": "Transfers ownership of the contract to a new account (`newOwner`). Can only be called by the current owner."
      },
      "unpause()": {
        "details": "This function can only be called by the owner"
      }
    },
    "title": "PeripheralMigrationContract",
    "version": 1
  },
  "userdoc": {
    "errors": {
      "AddressZero()": [
        {
          "notice": "Thrown when the address is zero."
        }
      ]
    },
    "events": {
      "EmergencyRescued(address,uint256,address)": {
        "notice": "Emitted when tokens are rescued in an emergency"
      },
      "MigrationMessageSent(bytes32,uint32,address,address,uint256,uint256)": {
        "notice": "Emitted when a migration message is sent"
      }
    },
    "kind": "user",
    "methods": {
      "MIMO()": {
        "notice": "MIMO contract token"
      },
      "combineOptions(uint32,uint16,bytes)": {
        "notice": "Combines options for a given endpoint and message type."
      },
      "constructor": {
        "notice": "Initializes the PeripheralMigrationContract"
      },
      "emergencyRescue(address,uint256)": {
        "notice": "Allows the owner to rescue any ERC20 token from the contract in case of emergency"
      },
      "endpoint()": {
        "notice": "Retrieves the LayerZero endpoint associated with the OApp."
      },
      "migrateToPRL(address,uint256,uint32,address,bytes,bytes)": {
        "notice": "Migrates MIMO tokens to PRL tokens on another chain"
      },
      "oAppVersion()": {
        "notice": "Retrieves the OApp version information."
      },
      "pause()": {
        "notice": "Allow owner to pause the contract"
      },
      "peers(uint32)": {
        "notice": "Retrieves the peer (OApp) associated with a corresponding endpoint."
      },
      "quote(uint32,address,uint256,bytes,bytes)": {
        "notice": "Returns the estimated messaging fee for a given message."
      },
      "setDelegate(address)": {
        "notice": "Sets the delegate address for the OApp."
      },
      "setPeer(uint32,bytes32)": {
        "notice": "Sets the peer address (OApp instance) for a corresponding endpoint."
      },
      "unpause()": {
        "notice": "Allow owner to unpause the contract"
      }
    },
    "notice": "Contract that send message to the PrincipalMigrationContract and own MIMO migrated from it.",
    "version": 1
  },
  "storageLayout": {
    "storage": [
      {
        "astId": 2620,
        "contract": "contracts/peripheral/PeripheralMigrationContract.sol:PeripheralMigrationContract",
        "label": "_owner",
        "offset": 0,
        "slot": "0",
        "type": "t_address"
      },
      {
        "astId": 64,
        "contract": "contracts/peripheral/PeripheralMigrationContract.sol:PeripheralMigrationContract",
        "label": "peers",
        "offset": 0,
        "slot": "1",
        "type": "t_mapping(t_uint32,t_bytes32)"
      },
      {
        "astId": 680,
        "contract": "contracts/peripheral/PeripheralMigrationContract.sol:PeripheralMigrationContract",
        "label": "enforcedOptions",
        "offset": 0,
        "slot": "2",
        "type": "t_mapping(t_uint32,t_mapping(t_uint16,t_bytes_storage))"
      },
      {
        "astId": 4671,
        "contract": "contracts/peripheral/PeripheralMigrationContract.sol:PeripheralMigrationContract",
        "label": "_paused",
        "offset": 0,
        "slot": "3",
        "type": "t_bool"
      }
    ],
    "types": {
      "t_address": {
        "encoding": "inplace",
        "label": "address",
        "numberOfBytes": "20"
      },
      "t_bool": {
        "encoding": "inplace",
        "label": "bool",
        "numberOfBytes": "1"
      },
      "t_bytes32": {
        "encoding": "inplace",
        "label": "bytes32",
        "numberOfBytes": "32"
      },
      "t_bytes_storage": {
        "encoding": "bytes",
        "label": "bytes",
        "numberOfBytes": "32"
      },
      "t_mapping(t_uint16,t_bytes_storage)": {
        "encoding": "mapping",
        "key": "t_uint16",
        "label": "mapping(uint16 => bytes)",
        "numberOfBytes": "32",
        "value": "t_bytes_storage"
      },
      "t_mapping(t_uint32,t_bytes32)": {
        "encoding": "mapping",
        "key": "t_uint32",
        "label": "mapping(uint32 => bytes32)",
        "numberOfBytes": "32",
        "value": "t_bytes32"
      },
      "t_mapping(t_uint32,t_mapping(t_uint16,t_bytes_storage))": {
        "encoding": "mapping",
        "key": "t_uint32",
        "label": "mapping(uint32 => mapping(uint16 => bytes))",
        "numberOfBytes": "32",
        "value": "t_mapping(t_uint16,t_bytes_storage)"
      },
      "t_uint16": {
        "encoding": "inplace",
        "label": "uint16",
        "numberOfBytes": "2"
      },
      "t_uint32": {
        "encoding": "inplace",
        "label": "uint32",
        "numberOfBytes": "4"
      }
    }
  }
}