{
  "address": "0xfD28f108e95f4D41daAE9dbfFf707D677985998E",
  "abi": [
    {
      "inputs": [
        {
          "internalType": "address",
          "name": "_endpoint",
          "type": "address"
        },
        {
          "internalType": "address",
          "name": "_owner",
          "type": "address"
        }
      ],
      "stateMutability": "nonpayable",
      "type": "constructor"
    },
    {
      "inputs": [],
      "name": "AddressZero",
      "type": "error"
    },
    {
      "inputs": [],
      "name": "ECDSAInvalidSignature",
      "type": "error"
    },
    {
      "inputs": [
        {
          "internalType": "uint256",
          "name": "length",
          "type": "uint256"
        }
      ],
      "name": "ECDSAInvalidSignatureLength",
      "type": "error"
    },
    {
      "inputs": [
        {
          "internalType": "bytes32",
          "name": "s",
          "type": "bytes32"
        }
      ],
      "name": "ECDSAInvalidSignatureS",
      "type": "error"
    },
    {
      "inputs": [
        {
          "internalType": "address",
          "name": "spender",
          "type": "address"
        },
        {
          "internalType": "uint256",
          "name": "allowance",
          "type": "uint256"
        },
        {
          "internalType": "uint256",
          "name": "needed",
          "type": "uint256"
        }
      ],
      "name": "ERC20InsufficientAllowance",
      "type": "error"
    },
    {
      "inputs": [
        {
          "internalType": "address",
          "name": "sender",
          "type": "address"
        },
        {
          "internalType": "uint256",
          "name": "balance",
          "type": "uint256"
        },
        {
          "internalType": "uint256",
          "name": "needed",
          "type": "uint256"
        }
      ],
      "name": "ERC20InsufficientBalance",
      "type": "error"
    },
    {
      "inputs": [
        {
          "internalType": "address",
          "name": "approver",
          "type": "address"
        }
      ],
      "name": "ERC20InvalidApprover",
      "type": "error"
    },
    {
      "inputs": [
        {
          "internalType": "address",
          "name": "receiver",
          "type": "address"
        }
      ],
      "name": "ERC20InvalidReceiver",
      "type": "error"
    },
    {
      "inputs": [
        {
          "internalType": "address",
          "name": "sender",
          "type": "address"
        }
      ],
      "name": "ERC20InvalidSender",
      "type": "error"
    },
    {
      "inputs": [
        {
          "internalType": "address",
          "name": "spender",
          "type": "address"
        }
      ],
      "name": "ERC20InvalidSpender",
      "type": "error"
    },
    {
      "inputs": [
        {
          "internalType": "uint256",
          "name": "deadline",
          "type": "uint256"
        }
      ],
      "name": "ERC2612ExpiredSignature",
      "type": "error"
    },
    {
      "inputs": [
        {
          "internalType": "address",
          "name": "signer",
          "type": "address"
        },
        {
          "internalType": "address",
          "name": "owner",
          "type": "address"
        }
      ],
      "name": "ERC2612InvalidSigner",
      "type": "error"
    },
    {
      "inputs": [],
      "name": "EnforcedPause",
      "type": "error"
    },
    {
      "inputs": [],
      "name": "ExpectedPause",
      "type": "error"
    },
    {
      "inputs": [
        {
          "internalType": "address",
          "name": "account",
          "type": "address"
        },
        {
          "internalType": "uint256",
          "name": "currentNonce",
          "type": "uint256"
        }
      ],
      "name": "InvalidAccountNonce",
      "type": "error"
    },
    {
      "inputs": [],
      "name": "InvalidDelegate",
      "type": "error"
    },
    {
      "inputs": [],
      "name": "InvalidEndpointCall",
      "type": "error"
    },
    {
      "inputs": [
        {
          "internalType": "bytes",
          "name": "options",
          "type": "bytes"
        }
      ],
      "name": "InvalidOptions",
      "type": "error"
    },
    {
      "inputs": [],
      "name": "InvalidShortString",
      "type": "error"
    },
    {
      "inputs": [],
      "name": "LzTokenUnavailable",
      "type": "error"
    },
    {
      "inputs": [
        {
          "internalType": "uint32",
          "name": "eid",
          "type": "uint32"
        }
      ],
      "name": "NoPeer",
      "type": "error"
    },
    {
      "inputs": [
        {
          "internalType": "uint256",
          "name": "msgValue",
          "type": "uint256"
        }
      ],
      "name": "NotEnoughNative",
      "type": "error"
    },
    {
      "inputs": [
        {
          "internalType": "address",
          "name": "addr",
          "type": "address"
        }
      ],
      "name": "OnlyEndpoint",
      "type": "error"
    },
    {
      "inputs": [
        {
          "internalType": "uint32",
          "name": "eid",
          "type": "uint32"
        },
        {
          "internalType": "bytes32",
          "name": "sender",
          "type": "bytes32"
        }
      ],
      "name": "OnlyPeer",
      "type": "error"
    },
    {
      "inputs": [],
      "name": "OnlySelf",
      "type": "error"
    },
    {
      "inputs": [
        {
          "internalType": "address",
          "name": "owner",
          "type": "address"
        }
      ],
      "name": "OwnableInvalidOwner",
      "type": "error"
    },
    {
      "inputs": [
        {
          "internalType": "address",
          "name": "account",
          "type": "address"
        }
      ],
      "name": "OwnableUnauthorizedAccount",
      "type": "error"
    },
    {
      "inputs": [
        {
          "internalType": "address",
          "name": "token",
          "type": "address"
        }
      ],
      "name": "SafeERC20FailedOperation",
      "type": "error"
    },
    {
      "inputs": [
        {
          "internalType": "bytes",
          "name": "result",
          "type": "bytes"
        }
      ],
      "name": "SimulationResult",
      "type": "error"
    },
    {
      "inputs": [
        {
          "internalType": "uint256",
          "name": "amount",
          "type": "uint256"
        },
        {
          "internalType": "uint256",
          "name": "minAmount",
          "type": "uint256"
        }
      ],
      "name": "SlippageExceeded",
      "type": "error"
    },
    {
      "inputs": [
        {
          "internalType": "string",
          "name": "str",
          "type": "string"
        }
      ],
      "name": "StringTooLong",
      "type": "error"
    },
    {
      "anonymous": false,
      "inputs": [
        {
          "indexed": true,
          "internalType": "address",
          "name": "owner",
          "type": "address"
        },
        {
          "indexed": true,
          "internalType": "address",
          "name": "spender",
          "type": "address"
        },
        {
          "indexed": false,
          "internalType": "uint256",
          "name": "value",
          "type": "uint256"
        }
      ],
      "name": "Approval",
      "type": "event"
    },
    {
      "anonymous": false,
      "inputs": [],
      "name": "EIP712DomainChanged",
      "type": "event"
    },
    {
      "anonymous": false,
      "inputs": [
        {
          "components": [
            {
              "internalType": "uint32",
              "name": "eid",
              "type": "uint32"
            },
            {
              "internalType": "uint16",
              "name": "msgType",
              "type": "uint16"
            },
            {
              "internalType": "bytes",
              "name": "options",
              "type": "bytes"
            }
          ],
          "indexed": false,
          "internalType": "struct EnforcedOptionParam[]",
          "name": "_enforcedOptions",
          "type": "tuple[]"
        }
      ],
      "name": "EnforcedOptionSet",
      "type": "event"
    },
    {
      "anonymous": false,
      "inputs": [
        {
          "indexed": false,
          "internalType": "address",
          "name": "inspector",
          "type": "address"
        }
      ],
      "name": "MsgInspectorSet",
      "type": "event"
    },
    {
      "anonymous": false,
      "inputs": [
        {
          "indexed": true,
          "internalType": "bytes32",
          "name": "guid",
          "type": "bytes32"
        },
        {
          "indexed": false,
          "internalType": "uint32",
          "name": "srcEid",
          "type": "uint32"
        },
        {
          "indexed": true,
          "internalType": "address",
          "name": "toAddress",
          "type": "address"
        },
        {
          "indexed": false,
          "internalType": "uint256",
          "name": "amountReceived",
          "type": "uint256"
        }
      ],
      "name": "OFTReceived",
      "type": "event"
    },
    {
      "anonymous": false,
      "inputs": [
        {
          "indexed": true,
          "internalType": "bytes32",
          "name": "guid",
          "type": "bytes32"
        },
        {
          "indexed": false,
          "internalType": "uint32",
          "name": "dstEid",
          "type": "uint32"
        },
        {
          "indexed": true,
          "internalType": "address",
          "name": "fromAddress",
          "type": "address"
        },
        {
          "indexed": false,
          "internalType": "uint256",
          "name": "amountSent",
          "type": "uint256"
        },
        {
          "indexed": false,
          "internalType": "uint256",
          "name": "amountReceived",
          "type": "uint256"
        }
      ],
      "name": "OFTSent",
      "type": "event"
    },
    {
      "anonymous": false,
      "inputs": [
        {
          "indexed": true,
          "internalType": "address",
          "name": "previousOwner",
          "type": "address"
        },
        {
          "indexed": true,
          "internalType": "address",
          "name": "newOwner",
          "type": "address"
        }
      ],
      "name": "OwnershipTransferred",
      "type": "event"
    },
    {
      "anonymous": false,
      "inputs": [
        {
          "indexed": false,
          "internalType": "address",
          "name": "account",
          "type": "address"
        }
      ],
      "name": "Paused",
      "type": "event"
    },
    {
      "anonymous": false,
      "inputs": [
        {
          "indexed": false,
          "internalType": "uint32",
          "name": "eid",
          "type": "uint32"
        },
        {
          "indexed": false,
          "internalType": "bytes32",
          "name": "peer",
          "type": "bytes32"
        }
      ],
      "name": "PeerSet",
      "type": "event"
    },
    {
      "anonymous": false,
      "inputs": [
        {
          "indexed": false,
          "internalType": "address",
          "name": "preCrimeAddress",
          "type": "address"
        }
      ],
      "name": "PreCrimeSet",
      "type": "event"
    },
    {
      "anonymous": false,
      "inputs": [
        {
          "indexed": true,
          "internalType": "address",
          "name": "from",
          "type": "address"
        },
        {
          "indexed": true,
          "internalType": "address",
          "name": "to",
          "type": "address"
        },
        {
          "indexed": false,
          "internalType": "uint256",
          "name": "value",
          "type": "uint256"
        }
      ],
      "name": "Transfer",
      "type": "event"
    },
    {
      "anonymous": false,
      "inputs": [
        {
          "indexed": false,
          "internalType": "address",
          "name": "account",
          "type": "address"
        }
      ],
      "name": "Unpaused",
      "type": "event"
    },
    {
      "inputs": [],
      "name": "DOMAIN_SEPARATOR",
      "outputs": [
        {
          "internalType": "bytes32",
          "name": "",
          "type": "bytes32"
        }
      ],
      "stateMutability": "view",
      "type": "function"
    },
    {
      "inputs": [],
      "name": "SEND",
      "outputs": [
        {
          "internalType": "uint16",
          "name": "",
          "type": "uint16"
        }
      ],
      "stateMutability": "view",
      "type": "function"
    },
    {
      "inputs": [],
      "name": "SEND_AND_CALL",
      "outputs": [
        {
          "internalType": "uint16",
          "name": "",
          "type": "uint16"
        }
      ],
      "stateMutability": "view",
      "type": "function"
    },
    {
      "inputs": [
        {
          "components": [
            {
              "internalType": "uint32",
              "name": "srcEid",
              "type": "uint32"
            },
            {
              "internalType": "bytes32",
              "name": "sender",
              "type": "bytes32"
            },
            {
              "internalType": "uint64",
              "name": "nonce",
              "type": "uint64"
            }
          ],
          "internalType": "struct Origin",
          "name": "origin",
          "type": "tuple"
        }
      ],
      "name": "allowInitializePath",
      "outputs": [
        {
          "internalType": "bool",
          "name": "",
          "type": "bool"
        }
      ],
      "stateMutability": "view",
      "type": "function"
    },
    {
      "inputs": [
        {
          "internalType": "address",
          "name": "owner",
          "type": "address"
        },
        {
          "internalType": "address",
          "name": "spender",
          "type": "address"
        }
      ],
      "name": "allowance",
      "outputs": [
        {
          "internalType": "uint256",
          "name": "",
          "type": "uint256"
        }
      ],
      "stateMutability": "view",
      "type": "function"
    },
    {
      "inputs": [],
      "name": "approvalRequired",
      "outputs": [
        {
          "internalType": "bool",
          "name": "",
          "type": "bool"
        }
      ],
      "stateMutability": "pure",
      "type": "function"
    },
    {
      "inputs": [
        {
          "internalType": "address",
          "name": "spender",
          "type": "address"
        },
        {
          "internalType": "uint256",
          "name": "value",
          "type": "uint256"
        }
      ],
      "name": "approve",
      "outputs": [
        {
          "internalType": "bool",
          "name": "",
          "type": "bool"
        }
      ],
      "stateMutability": "nonpayable",
      "type": "function"
    },
    {
      "inputs": [
        {
          "internalType": "address",
          "name": "account",
          "type": "address"
        }
      ],
      "name": "balanceOf",
      "outputs": [
        {
          "internalType": "uint256",
          "name": "",
          "type": "uint256"
        }
      ],
      "stateMutability": "view",
      "type": "function"
    },
    {
      "inputs": [
        {
          "internalType": "uint32",
          "name": "_eid",
          "type": "uint32"
        },
        {
          "internalType": "uint16",
          "name": "_msgType",
          "type": "uint16"
        },
        {
          "internalType": "bytes",
          "name": "_extraOptions",
          "type": "bytes"
        }
      ],
      "name": "combineOptions",
      "outputs": [
        {
          "internalType": "bytes",
          "name": "",
          "type": "bytes"
        }
      ],
      "stateMutability": "view",
      "type": "function"
    },
    {
      "inputs": [],
      "name": "decimals",
      "outputs": [
        {
          "internalType": "uint8",
          "name": "",
          "type": "uint8"
        }
      ],
      "stateMutability": "view",
      "type": "function"
    },
    {
      "inputs": [],
      "name": "eip712Domain",
      "outputs": [
        {
          "internalType": "bytes1",
          "name": "fields",
          "type": "bytes1"
        },
        {
          "internalType": "string",
          "name": "name",
          "type": "string"
        },
        {
          "internalType": "string",
          "name": "version",
          "type": "string"
        },
        {
          "internalType": "uint256",
          "name": "chainId",
          "type": "uint256"
        },
        {
          "internalType": "address",
          "name": "verifyingContract",
          "type": "address"
        },
        {
          "internalType": "bytes32",
          "name": "salt",
          "type": "bytes32"
        },
        {
          "internalType": "uint256[]",
          "name": "extensions",
          "type": "uint256[]"
        }
      ],
      "stateMutability": "view",
      "type": "function"
    },
    {
      "inputs": [],
      "name": "endpoint",
      "outputs": [
        {
          "internalType": "contract ILayerZeroEndpointV2",
          "name": "",
          "type": "address"
        }
      ],
      "stateMutability": "view",
      "type": "function"
    },
    {
      "inputs": [
        {
          "internalType": "uint32",
          "name": "eid",
          "type": "uint32"
        },
        {
          "internalType": "uint16",
          "name": "msgType",
          "type": "uint16"
        }
      ],
      "name": "enforcedOptions",
      "outputs": [
        {
          "internalType": "bytes",
          "name": "enforcedOption",
          "type": "bytes"
        }
      ],
      "stateMutability": "view",
      "type": "function"
    },
    {
      "inputs": [
        {
          "components": [
            {
              "internalType": "uint32",
              "name": "srcEid",
              "type": "uint32"
            },
            {
              "internalType": "bytes32",
              "name": "sender",
              "type": "bytes32"
            },
            {
              "internalType": "uint64",
              "name": "nonce",
              "type": "uint64"
            }
          ],
          "internalType": "struct Origin",
          "name": "",
          "type": "tuple"
        },
        {
          "internalType": "bytes",
          "name": "",
          "type": "bytes"
        },
        {
          "internalType": "address",
          "name": "_sender",
          "type": "address"
        }
      ],
      "name": "isComposeMsgSender",
      "outputs": [
        {
          "internalType": "bool",
          "name": "",
          "type": "bool"
        }
      ],
      "stateMutability": "view",
      "type": "function"
    },
    {
      "inputs": [
        {
          "internalType": "uint32",
          "name": "_eid",
          "type": "uint32"
        },
        {
          "internalType": "bytes32",
          "name": "_peer",
          "type": "bytes32"
        }
      ],
      "name": "isPeer",
      "outputs": [
        {
          "internalType": "bool",
          "name": "",
          "type": "bool"
        }
      ],
      "stateMutability": "view",
      "type": "function"
    },
    {
      "inputs": [
        {
          "components": [
            {
              "internalType": "uint32",
              "name": "srcEid",
              "type": "uint32"
            },
            {
              "internalType": "bytes32",
              "name": "sender",
              "type": "bytes32"
            },
            {
              "internalType": "uint64",
              "name": "nonce",
              "type": "uint64"
            }
          ],
          "internalType": "struct Origin",
          "name": "_origin",
          "type": "tuple"
        },
        {
          "internalType": "bytes32",
          "name": "_guid",
          "type": "bytes32"
        },
        {
          "internalType": "bytes",
          "name": "_message",
          "type": "bytes"
        },
        {
          "internalType": "address",
          "name": "_executor",
          "type": "address"
        },
        {
          "internalType": "bytes",
          "name": "_extraData",
          "type": "bytes"
        }
      ],
      "name": "lzReceive",
      "outputs": [],
      "stateMutability": "payable",
      "type": "function"
    },
    {
      "inputs": [
        {
          "components": [
            {
              "components": [
                {
                  "internalType": "uint32",
                  "name": "srcEid",
                  "type": "uint32"
                },
                {
                  "internalType": "bytes32",
                  "name": "sender",
                  "type": "bytes32"
                },
                {
                  "internalType": "uint64",
                  "name": "nonce",
                  "type": "uint64"
                }
              ],
              "internalType": "struct Origin",
              "name": "origin",
              "type": "tuple"
            },
            {
              "internalType": "uint32",
              "name": "dstEid",
              "type": "uint32"
            },
            {
              "internalType": "address",
              "name": "receiver",
              "type": "address"
            },
            {
              "internalType": "bytes32",
              "name": "guid",
              "type": "bytes32"
            },
            {
              "internalType": "uint256",
              "name": "value",
              "type": "uint256"
            },
            {
              "internalType": "address",
              "name": "executor",
              "type": "address"
            },
            {
              "internalType": "bytes",
              "name": "message",
              "type": "bytes"
            },
            {
              "internalType": "bytes",
              "name": "extraData",
              "type": "bytes"
            }
          ],
          "internalType": "struct InboundPacket[]",
          "name": "_packets",
          "type": "tuple[]"
        }
      ],
      "name": "lzReceiveAndRevert",
      "outputs": [],
      "stateMutability": "payable",
      "type": "function"
    },
    {
      "inputs": [
        {
          "components": [
            {
              "internalType": "uint32",
              "name": "srcEid",
              "type": "uint32"
            },
            {
              "internalType": "bytes32",
              "name": "sender",
              "type": "bytes32"
            },
            {
              "internalType": "uint64",
              "name": "nonce",
              "type": "uint64"
            }
          ],
          "internalType": "struct Origin",
          "name": "_origin",
          "type": "tuple"
        },
        {
          "internalType": "bytes32",
          "name": "_guid",
          "type": "bytes32"
        },
        {
          "internalType": "bytes",
          "name": "_message",
          "type": "bytes"
        },
        {
          "internalType": "address",
          "name": "_executor",
          "type": "address"
        },
        {
          "internalType": "bytes",
          "name": "_extraData",
          "type": "bytes"
        }
      ],
      "name": "lzReceiveSimulate",
      "outputs": [],
      "stateMutability": "payable",
      "type": "function"
    },
    {
      "inputs": [],
      "name": "msgInspector",
      "outputs": [
        {
          "internalType": "address",
          "name": "",
          "type": "address"
        }
      ],
      "stateMutability": "view",
      "type": "function"
    },
    {
      "inputs": [],
      "name": "name",
      "outputs": [
        {
          "internalType": "string",
          "name": "",
          "type": "string"
        }
      ],
      "stateMutability": "view",
      "type": "function"
    },
    {
      "inputs": [
        {
          "internalType": "uint32",
          "name": "",
          "type": "uint32"
        },
        {
          "internalType": "bytes32",
          "name": "",
          "type": "bytes32"
        }
      ],
      "name": "nextNonce",
      "outputs": [
        {
          "internalType": "uint64",
          "name": "nonce",
          "type": "uint64"
        }
      ],
      "stateMutability": "view",
      "type": "function"
    },
    {
      "inputs": [
        {
          "internalType": "address",
          "name": "owner",
          "type": "address"
        }
      ],
      "name": "nonces",
      "outputs": [
        {
          "internalType": "uint256",
          "name": "",
          "type": "uint256"
        }
      ],
      "stateMutability": "view",
      "type": "function"
    },
    {
      "inputs": [],
      "name": "oApp",
      "outputs": [
        {
          "internalType": "address",
          "name": "",
          "type": "address"
        }
      ],
      "stateMutability": "view",
      "type": "function"
    },
    {
      "inputs": [],
      "name": "oAppVersion",
      "outputs": [
        {
          "internalType": "uint64",
          "name": "senderVersion",
          "type": "uint64"
        },
        {
          "internalType": "uint64",
          "name": "receiverVersion",
          "type": "uint64"
        }
      ],
      "stateMutability": "pure",
      "type": "function"
    },
    {
      "inputs": [],
      "name": "oftVersion",
      "outputs": [
        {
          "internalType": "bytes4",
          "name": "interfaceId",
          "type": "bytes4"
        },
        {
          "internalType": "uint64",
          "name": "version",
          "type": "uint64"
        }
      ],
      "stateMutability": "pure",
      "type": "function"
    },
    {
      "inputs": [],
      "name": "owner",
      "outputs": [
        {
          "internalType": "address",
          "name": "",
          "type": "address"
        }
      ],
      "stateMutability": "view",
      "type": "function"
    },
    {
      "inputs": [],
      "name": "pause",
      "outputs": [],
      "stateMutability": "nonpayable",
      "type": "function"
    },
    {
      "inputs": [],
      "name": "paused",
      "outputs": [
        {
          "internalType": "bool",
          "name": "",
          "type": "bool"
        }
      ],
      "stateMutability": "view",
      "type": "function"
    },
    {
      "inputs": [
        {
          "internalType": "uint32",
          "name": "eid",
          "type": "uint32"
        }
      ],
      "name": "peers",
      "outputs": [
        {
          "internalType": "bytes32",
          "name": "peer",
          "type": "bytes32"
        }
      ],
      "stateMutability": "view",
      "type": "function"
    },
    {
      "inputs": [
        {
          "internalType": "address",
          "name": "owner",
          "type": "address"
        },
        {
          "internalType": "address",
          "name": "spender",
          "type": "address"
        },
        {
          "internalType": "uint256",
          "name": "value",
          "type": "uint256"
        },
        {
          "internalType": "uint256",
          "name": "deadline",
          "type": "uint256"
        },
        {
          "internalType": "uint8",
          "name": "v",
          "type": "uint8"
        },
        {
          "internalType": "bytes32",
          "name": "r",
          "type": "bytes32"
        },
        {
          "internalType": "bytes32",
          "name": "s",
          "type": "bytes32"
        }
      ],
      "name": "permit",
      "outputs": [],
      "stateMutability": "nonpayable",
      "type": "function"
    },
    {
      "inputs": [],
      "name": "preCrime",
      "outputs": [
        {
          "internalType": "address",
          "name": "",
          "type": "address"
        }
      ],
      "stateMutability": "view",
      "type": "function"
    },
    {
      "inputs": [
        {
          "components": [
            {
              "internalType": "uint32",
              "name": "dstEid",
              "type": "uint32"
            },
            {
              "internalType": "bytes32",
              "name": "to",
              "type": "bytes32"
            },
            {
              "internalType": "uint256",
              "name": "amount",
              "type": "uint256"
            },
            {
              "internalType": "uint256",
              "name": "minAmount",
              "type": "uint256"
            },
            {
              "internalType": "bytes",
              "name": "extraOptions",
              "type": "bytes"
            },
            {
              "internalType": "bytes",
              "name": "composeMsg",
              "type": "bytes"
            },
            {
              "internalType": "bytes",
              "name": "oftCmd",
              "type": "bytes"
            }
          ],
          "internalType": "struct SendParam",
          "name": "_sendParam",
          "type": "tuple"
        }
      ],
      "name": "quoteOFT",
      "outputs": [
        {
          "components": [
            {
              "internalType": "uint256",
              "name": "minAmount",
              "type": "uint256"
            },
            {
              "internalType": "uint256",
              "name": "maxAmount",
              "type": "uint256"
            }
          ],
          "internalType": "struct OFTLimit",
          "name": "oftLimit",
          "type": "tuple"
        },
        {
          "components": [
            {
              "internalType": "int256",
              "name": "feeAmount",
              "type": "int256"
            },
            {
              "internalType": "string",
              "name": "description",
              "type": "string"
            }
          ],
          "internalType": "struct OFTFeeDetail[]",
          "name": "oftFeeDetails",
          "type": "tuple[]"
        },
        {
          "components": [
            {
              "internalType": "uint256",
              "name": "amountSent",
              "type": "uint256"
            },
            {
              "internalType": "uint256",
              "name": "amountReceived",
              "type": "uint256"
            }
          ],
          "internalType": "struct OFTReceipt",
          "name": "oftReceipt",
          "type": "tuple"
        }
      ],
      "stateMutability": "view",
      "type": "function"
    },
    {
      "inputs": [
        {
          "components": [
            {
              "internalType": "uint32",
              "name": "dstEid",
              "type": "uint32"
            },
            {
              "internalType": "bytes32",
              "name": "to",
              "type": "bytes32"
            },
            {
              "internalType": "uint256",
              "name": "amount",
              "type": "uint256"
            },
            {
              "internalType": "uint256",
              "name": "minAmount",
              "type": "uint256"
            },
            {
              "internalType": "bytes",
              "name": "extraOptions",
              "type": "bytes"
            },
            {
              "internalType": "bytes",
              "name": "composeMsg",
              "type": "bytes"
            },
            {
              "internalType": "bytes",
              "name": "oftCmd",
              "type": "bytes"
            }
          ],
          "internalType": "struct SendParam",
          "name": "_sendParam",
          "type": "tuple"
        },
        {
          "internalType": "bool",
          "name": "_payInLzToken",
          "type": "bool"
        }
      ],
      "name": "quoteSend",
      "outputs": [
        {
          "components": [
            {
              "internalType": "uint256",
              "name": "nativeFee",
              "type": "uint256"
            },
            {
              "internalType": "uint256",
              "name": "lzTokenFee",
              "type": "uint256"
            }
          ],
          "internalType": "struct MessagingFee",
          "name": "msgFee",
          "type": "tuple"
        }
      ],
      "stateMutability": "view",
      "type": "function"
    },
    {
      "inputs": [],
      "name": "renounceOwnership",
      "outputs": [],
      "stateMutability": "nonpayable",
      "type": "function"
    },
    {
      "inputs": [
        {
          "components": [
            {
              "internalType": "uint32",
              "name": "dstEid",
              "type": "uint32"
            },
            {
              "internalType": "bytes32",
              "name": "to",
              "type": "bytes32"
            },
            {
              "internalType": "uint256",
              "name": "amount",
              "type": "uint256"
            },
            {
              "internalType": "uint256",
              "name": "minAmount",
              "type": "uint256"
            },
            {
              "internalType": "bytes",
              "name": "extraOptions",
              "type": "bytes"
            },
            {
              "internalType": "bytes",
              "name": "composeMsg",
              "type": "bytes"
            },
            {
              "internalType": "bytes",
              "name": "oftCmd",
              "type": "bytes"
            }
          ],
          "internalType": "struct SendParam",
          "name": "_sendParam",
          "type": "tuple"
        },
        {
          "components": [
            {
              "internalType": "uint256",
              "name": "nativeFee",
              "type": "uint256"
            },
            {
              "internalType": "uint256",
              "name": "lzTokenFee",
              "type": "uint256"
            }
          ],
          "internalType": "struct MessagingFee",
          "name": "_fee",
          "type": "tuple"
        },
        {
          "internalType": "address",
          "name": "_refundAddress",
          "type": "address"
        }
      ],
      "name": "send",
      "outputs": [
        {
          "components": [
            {
              "internalType": "bytes32",
              "name": "guid",
              "type": "bytes32"
            },
            {
              "internalType": "uint64",
              "name": "nonce",
              "type": "uint64"
            },
            {
              "components": [
                {
                  "internalType": "uint256",
                  "name": "nativeFee",
                  "type": "uint256"
                },
                {
                  "internalType": "uint256",
                  "name": "lzTokenFee",
                  "type": "uint256"
                }
              ],
              "internalType": "struct MessagingFee",
              "name": "fee",
              "type": "tuple"
            }
          ],
          "internalType": "struct MessagingReceipt",
          "name": "msgReceipt",
          "type": "tuple"
        },
        {
          "components": [
            {
              "internalType": "uint256",
              "name": "amountSent",
              "type": "uint256"
            },
            {
              "internalType": "uint256",
              "name": "amountReceived",
              "type": "uint256"
            }
          ],
          "internalType": "struct OFTReceipt",
          "name": "oftReceipt",
          "type": "tuple"
        }
      ],
      "stateMutability": "payable",
      "type": "function"
    },
    {
      "inputs": [
        {
          "internalType": "address",
          "name": "_delegate",
          "type": "address"
        }
      ],
      "name": "setDelegate",
      "outputs": [],
      "stateMutability": "nonpayable",
      "type": "function"
    },
    {
      "inputs": [
        {
          "components": [
            {
              "internalType": "uint32",
              "name": "eid",
              "type": "uint32"
            },
            {
              "internalType": "uint16",
              "name": "msgType",
              "type": "uint16"
            },
            {
              "internalType": "bytes",
              "name": "options",
              "type": "bytes"
            }
          ],
          "internalType": "struct EnforcedOptionParam[]",
          "name": "_enforcedOptions",
          "type": "tuple[]"
        }
      ],
      "name": "setEnforcedOptions",
      "outputs": [],
      "stateMutability": "nonpayable",
      "type": "function"
    },
    {
      "inputs": [
        {
          "internalType": "address",
          "name": "_msgInspector",
          "type": "address"
        }
      ],
      "name": "setMsgInspector",
      "outputs": [],
      "stateMutability": "nonpayable",
      "type": "function"
    },
    {
      "inputs": [
        {
          "internalType": "uint32",
          "name": "_eid",
          "type": "uint32"
        },
        {
          "internalType": "bytes32",
          "name": "_peer",
          "type": "bytes32"
        }
      ],
      "name": "setPeer",
      "outputs": [],
      "stateMutability": "nonpayable",
      "type": "function"
    },
    {
      "inputs": [
        {
          "internalType": "address",
          "name": "_preCrime",
          "type": "address"
        }
      ],
      "name": "setPreCrime",
      "outputs": [],
      "stateMutability": "nonpayable",
      "type": "function"
    },
    {
      "inputs": [],
      "name": "symbol",
      "outputs": [
        {
          "internalType": "string",
          "name": "",
          "type": "string"
        }
      ],
      "stateMutability": "view",
      "type": "function"
    },
    {
      "inputs": [],
      "name": "token",
      "outputs": [
        {
          "internalType": "address",
          "name": "",
          "type": "address"
        }
      ],
      "stateMutability": "view",
      "type": "function"
    },
    {
      "inputs": [],
      "name": "totalSupply",
      "outputs": [
        {
          "internalType": "uint256",
          "name": "",
          "type": "uint256"
        }
      ],
      "stateMutability": "view",
      "type": "function"
    },
    {
      "inputs": [
        {
          "internalType": "address",
          "name": "to",
          "type": "address"
        },
        {
          "internalType": "uint256",
          "name": "value",
          "type": "uint256"
        }
      ],
      "name": "transfer",
      "outputs": [
        {
          "internalType": "bool",
          "name": "",
          "type": "bool"
        }
      ],
      "stateMutability": "nonpayable",
      "type": "function"
    },
    {
      "inputs": [
        {
          "internalType": "address",
          "name": "from",
          "type": "address"
        },
        {
          "internalType": "address",
          "name": "to",
          "type": "address"
        },
        {
          "internalType": "uint256",
          "name": "value",
          "type": "uint256"
        }
      ],
      "name": "transferFrom",
      "outputs": [
        {
          "internalType": "bool",
          "name": "",
          "type": "bool"
        }
      ],
      "stateMutability": "nonpayable",
      "type": "function"
    },
    {
      "inputs": [
        {
          "internalType": "address",
          "name": "newOwner",
          "type": "address"
        }
      ],
      "name": "transferOwnership",
      "outputs": [],
      "stateMutability": "nonpayable",
      "type": "function"
    },
    {
      "inputs": [],
      "name": "unpause",
      "outputs": [],
      "stateMutability": "nonpayable",
      "type": "function"
    }
  ],
  "transactionHash": "0xe8dab5d24f8d789147e2d13da5b48b35300885ea9c2a372a5989dbba66c37f4d",
  "args": [
    "0x1a44076050125825900e736c501f859c50fE728c",
    "0x66CcEC236bbcE5f1bBd1b2fC0a4014e57A55ad02"
  ],
  "numDeployments": 1,
  "solcInputHash": "f79a8b76a6150c66749bcbcc3be229f6",
  "bytecode": "0x61018060405234801561001157600080fd5b506040516141fa3803806141fa8339810160408190526100309161037d565b6040518060400160405280601981526020017f506172616c6c656c20476f7665726e616e636520546f6b656e0000000000000081525080604051806040016040528060018152602001603160f81b8152506040518060400160405280601981526020017f506172616c6c656c20476f7665726e616e636520546f6b656e000000000000008152506040518060400160405280600381526020016214149360ea1b815250868683838383818181818f60006001600160a01b0316816001600160a01b03160361011957604051631e4fbdf760e01b8152600060048201526024015b60405180910390fd5b610122816102a0565b506001600160a01b03808316608052811661015057604051632d618d8160e21b815260040160405180910390fd5b60805160405163ca5eb5e160e01b81526001600160a01b0383811660048301529091169063ca5eb5e190602401600060405180830381600087803b15801561019757600080fd5b505af11580156101ab573d6000803e3d6000fd5b5050505050505050505081600890816101c49190610451565b5060096101d18282610451565b506101e79550879450600a9350506102f0915050565b610140526101f681600b6102f0565b61016052815160208084019190912061010052815190820120610120524660c0526102856101005161012051604080517f8b73c3c69bb8fe3d512ecc4cf759cc79239f7b179b0ffacaa9a75d522b39400f60208201529081019290925260608201524660808201523060a082015260009060c00160405160208183030381529060405280519060200120905090565b60a05250503060e0525050600d805460ff1916905550610583565b600080546001600160a01b038381166001600160a01b0319831681178455604051919092169283917f8be0079c531659141344cd1fd0a4f28419497f9722a3daafe3b4186f6b6457e09190a35050565b600060208351101561030c5761030583610323565b905061031d565b816103178482610451565b5060ff90505b92915050565b600080829050601f8151111561034e578260405163305a27a960e01b81526004016101109190610510565b80516103598261055f565b179392505050565b80516001600160a01b038116811461037857600080fd5b919050565b6000806040838503121561039057600080fd5b61039983610361565b91506103a760208401610361565b90509250929050565b634e487b7160e01b600052604160045260246000fd5b600181811c908216806103da57607f821691505b6020821081036103fa57634e487b7160e01b600052602260045260246000fd5b50919050565b601f82111561044c576000816000526020600020601f850160051c810160208610156104295750805b601f850160051c820191505b8181101561044857828155600101610435565b5050505b505050565b81516001600160401b0381111561046a5761046a6103b0565b61047e8161047884546103c6565b84610400565b602080601f8311600181146104b3576000841561049b5750858301515b600019600386901b1c1916600185901b178555610448565b600085815260208120601f198616915b828110156104e2578886015182559484019460019091019084016104c3565b50858210156105005787850151600019600388901b60f8161c191681555b5050505050600190811b01905550565b60006020808352835180602085015260005b8181101561053e57858101830151858201604001528201610522565b506000604082860101526040601f19601f8301168501019250505092915050565b805160208083015191908110156103fa5760001960209190910360031b1b16919050565b60805160a05160c05160e05161010051610120516101405161016051613be16106196000396000611d9d01526000611d7001526000611a16015260006119ee01526000611949015260006119730152600061199d0152600081816105ea01528181610acb01528181611283015281816116d901528181611bb201528181612560015281816128fb01526129cd0152613be16000f3fe6080604052600436106103085760003560e01c8063715018a61161019a578063bb0b6a53116100e1578063d42438851161008a578063f2fde38b11610064578063f2fde38b14610911578063fc0c546a14610556578063ff7bd03d1461093157600080fd5b8063d42438851461088b578063d505accf146108ab578063dd62ed3e146108cb57600080fd5b8063c7c7f5b3116100bb578063c7c7f5b314610837578063ca5eb5e114610858578063d045a0dc1461087857600080fd5b8063bb0b6a53146107d7578063bc70b35414610804578063bd815db01461082457600080fd5b80638da5cb5b11610143578063a9059cbb1161011d578063a9059cbb14610777578063b731ea0a14610797578063b98bd070146107b757600080fd5b80638da5cb5b1461073057806395d89b411461074e5780639f68b9641461076357600080fd5b806382413eac1161017457806382413eac146106d35780638456cb59146106f357806384b0196e1461070857600080fd5b8063715018a6146106625780637d25a05e146106775780637ecebe00146106b357600080fd5b8063313ce5671161025e5780635535d461116102075780635e280f11116101e15780635e280f11146105d85780636fc1b31e1461060c57806370a082311461062c57600080fd5b80635535d461146105695780635a0dfe4d146105895780635c975abb146105c057600080fd5b80633b6f743b116102385780633b6f743b146105145780633f4ba83a1461054157806352ae28791461055657600080fd5b8063313ce567146104c35780633400288b146104df5780633644e515146104ff57600080fd5b8063134d4f25116102c057806318160ddd1161029a57806318160ddd1461046f5780631f5e13341461048e57806323b872dd146104a357600080fd5b8063134d4f25146103e4578063156a0d0f1461040c57806317442b701461044d57600080fd5b80630d35b415116102f15780630d35b41514610368578063111ecdad1461039757806313137d65146103cf57600080fd5b806306fdde031461030d578063095ea7b314610338575b600080fd5b34801561031957600080fd5b50610322610951565b60405161032f9190612bd8565b60405180910390f35b34801561034457600080fd5b50610358610353366004612c00565b6109e3565b604051901515815260200161032f565b34801561037457600080fd5b50610388610383366004612c44565b6109fd565b60405161032f93929190612c79565b3480156103a357600080fd5b506004546103b7906001600160a01b031681565b6040516001600160a01b03909116815260200161032f565b6103e26103dd366004612d6d565b610ac9565b005b3480156103f057600080fd5b506103f9600281565b60405161ffff909116815260200161032f565b34801561041857600080fd5b50604080517f8793d59c000000000000000000000000000000000000000000000000000000008152600160208201520161032f565b34801561045957600080fd5b506040805160018152600260208201520161032f565b34801561047b57600080fd5b506007545b60405190815260200161032f565b34801561049a57600080fd5b506103f9600181565b3480156104af57600080fd5b506103586104be366004612e0d565b610bbb565b3480156104cf57600080fd5b506040516012815260200161032f565b3480156104eb57600080fd5b506103e26104fa366004612e67565b610be1565b34801561050b57600080fd5b50610480610bf7565b34801561052057600080fd5b5061053461052f366004612e91565b610c06565b60405161032f9190612ee3565b34801561054d57600080fd5b506103e2610c6d565b34801561056257600080fd5b50306103b7565b34801561057557600080fd5b50610322610584366004612f0c565b610c7f565b34801561059557600080fd5b506103586105a4366004612e67565b63ffffffff919091166000908152600160205260409020541490565b3480156105cc57600080fd5b50600d5460ff16610358565b3480156105e457600080fd5b506103b77f000000000000000000000000000000000000000000000000000000000000000081565b34801561061857600080fd5b506103e2610627366004612f3f565b610d24565b34801561063857600080fd5b50610480610647366004612f3f565b6001600160a01b031660009081526005602052604090205490565b34801561066e57600080fd5b506103e2610d8e565b34801561068357600080fd5b5061069a610692366004612e67565b600092915050565b60405167ffffffffffffffff909116815260200161032f565b3480156106bf57600080fd5b506104806106ce366004612f3f565b610da0565b3480156106df57600080fd5b506103586106ee366004612f5c565b610dbe565b3480156106ff57600080fd5b506103e2610dd3565b34801561071457600080fd5b5061071d610de3565b60405161032f9796959493929190612fc3565b34801561073c57600080fd5b506000546001600160a01b03166103b7565b34801561075a57600080fd5b50610322610e45565b34801561076f57600080fd5b506000610358565b34801561078357600080fd5b50610358610792366004612c00565b610e54565b3480156107a357600080fd5b506002546103b7906001600160a01b031681565b3480156107c357600080fd5b506103e26107d23660046130bd565b610e62565b3480156107e357600080fd5b506104806107f23660046130ff565b60016020526000908152604090205481565b34801561081057600080fd5b5061032261081f36600461311a565b610e7c565b6103e26108323660046130bd565b611024565b61084a61084536600461317b565b6111c7565b60405161032f9291906131e9565b34801561086457600080fd5b506103e2610873366004612f3f565b611243565b6103e2610886366004612d6d565b6112e2565b34801561089757600080fd5b506103e26108a6366004612f3f565b61132a565b3480156108b757600080fd5b506103e26108c636600461323c565b61138d565b3480156108d757600080fd5b506104806108e63660046132b3565b6001600160a01b03918216600090815260066020908152604080832093909416825291909152205490565b34801561091d57600080fd5b506103e261092c366004612f3f565b6114f9565b34801561093d57600080fd5b5061035861094c3660046132e1565b611550565b606060088054610960906132fd565b80601f016020809104026020016040519081016040528092919081815260200182805461098c906132fd565b80156109d95780601f106109ae576101008083540402835291602001916109d9565b820191906000526020600020905b8154815290600101906020018083116109bc57829003601f168201915b5050505050905090565b6000336109f1818585611586565b60019150505b92915050565b60408051808201909152600080825260208201526060610a30604051806040016040528060008152602001600081525090565b6040805180820182526000808252600019602080840182905284518381529081019094529195509182610a86565b604080518082019091526000815260606020820152815260200190600190039081610a5e5790505b509350600080610aab604089013560608a0135610aa660208c018c6130ff565b611598565b60408051808201909152918252602082015296989597505050505050565b7f00000000000000000000000000000000000000000000000000000000000000006001600160a01b03163314610b32576040517f91ac5e4f0000000000000000000000000000000000000000000000000000000081523360048201526024015b60405180910390fd5b60208701803590610b4c90610b47908a6130ff565b6115de565b14610ba357610b5e60208801886130ff565b6040517fc26bebcc00000000000000000000000000000000000000000000000000000000815263ffffffff909116600482015260208801356024820152604401610b29565b610bb287878787878787611633565b50505050505050565b600033610bc98582856117ab565b610bd4858585611842565b60019150505b9392505050565b610be96118a1565b610bf382826118e7565b5050565b6000610c0161193c565b905090565b60408051808201909152600080825260208201526000610c3660408501356060860135610aa660208801886130ff565b915050600080610c468684611a67565b9092509050610c63610c5b60208801886130ff565b838388611b9c565b9695505050505050565b610c756118a1565b610c7d611c7d565b565b600360209081526000928352604080842090915290825290208054610ca3906132fd565b80601f0160208091040260200160405190810160405280929190818152602001828054610ccf906132fd565b8015610d1c5780601f10610cf157610100808354040283529160200191610d1c565b820191906000526020600020905b815481529060010190602001808311610cff57829003601f168201915b505050505081565b610d2c6118a1565b6004805473ffffffffffffffffffffffffffffffffffffffff19166001600160a01b0383169081179091556040519081527ff0be4f1e87349231d80c36b33f9e8639658eeaf474014dee15a3e6a4d4414197906020015b60405180910390a150565b610d966118a1565b610c7d6000611ccf565b6001600160a01b0381166000908152600c60205260408120546109f7565b6001600160a01b03811630145b949350505050565b610ddb6118a1565b610c7d611d2c565b600060608060008060006060610df7611d69565b610dff611d96565b604080516000808252602082019092527f0f000000000000000000000000000000000000000000000000000000000000009b939a50919850469750309650945092509050565b606060098054610960906132fd565b6000336109f1818585611842565b610e6a6118a1565b610bf3610e7782846133ec565b611dc3565b63ffffffff8416600090815260036020908152604080832061ffff87168452909152812080546060929190610eb0906132fd565b80601f0160208091040260200160405190810160405280929190818152602001828054610edc906132fd565b8015610f295780601f10610efe57610100808354040283529160200191610f29565b820191906000526020600020905b815481529060010190602001808311610f0c57829003601f168201915b505050505090508051600003610f795783838080601f016020809104026020016040519081016040528093929190818152602001838380828437600092019190915250929450610dcb9350505050565b6000839003610f89579050610dcb565b6002831061100757610fd084848080601f016020809104026020016040519081016040528093929190818152602001838380828437600092019190915250611eca92505050565b80610fde8460028188613502565b604051602001610ff09392919061352c565b604051602081830303815290604052915050610dcb565b8383604051639a6d49cd60e01b8152600401610b2992919061357d565b60005b8181101561112d573683838381811061104257611042613591565b905060200281019061105491906135a7565b905061108761106660208301836130ff565b602083013563ffffffff919091166000908152600160205260409020541490565b6110915750611125565b3063d045a0dc60c08301358360a08101356110b06101008301836135c8565b6110c1610100890160e08a01612f3f565b6110cf6101208a018a6135c8565b6040518963ffffffff1660e01b81526004016110f19796959493929190613625565b6000604051808303818588803b15801561110a57600080fd5b505af115801561111e573d6000803e3d6000fd5b5050505050505b600101611027565b50336001600160a01b0316638e9e70996040518163ffffffff1660e01b8152600401600060405180830381865afa15801561116c573d6000803e3d6000fd5b505050506040513d6000823e601f3d908101601f1916820160405261119491908101906136ac565b6040517f8351eea7000000000000000000000000000000000000000000000000000000008152600401610b299190612bd8565b6111cf612b40565b60408051808201909152600080825260208201526111eb611ef6565b6001600160a01b03831661122b576040517f9fabe1c100000000000000000000000000000000000000000000000000000000815260040160405180910390fd5b611236858585611f33565b915091505b935093915050565b61124b6118a1565b6040517fca5eb5e10000000000000000000000000000000000000000000000000000000081526001600160a01b0382811660048301527f0000000000000000000000000000000000000000000000000000000000000000169063ca5eb5e190602401600060405180830381600087803b1580156112c757600080fd5b505af11580156112db573d6000803e3d6000fd5b5050505050565b33301461131b576040517f14d4a4e800000000000000000000000000000000000000000000000000000000815260040160405180910390fd5b610bb287878787878787610ba3565b6113326118a1565b6002805473ffffffffffffffffffffffffffffffffffffffff19166001600160a01b0383169081179091556040519081527fd48d879cef83a1c0bdda516f27b13ddb1b3f8bbac1c9e1511bb2a659c242776090602001610d83565b834211156113ca576040517f6279130200000000000000000000000000000000000000000000000000000000815260048101859052602401610b29565b60007f6e71edae12b1b97f4d1f60370fef10105fa2faae0126114a169c64845d6126c98888886114178c6001600160a01b03166000908152600c6020526040902080546001810190915590565b6040805160208101969096526001600160a01b0394851690860152929091166060840152608083015260a082015260c0810186905260e00160405160208183030381529060405280519060200120905060006114728261202e565b9050600061148282878787612076565b9050896001600160a01b0316816001600160a01b0316146114e2576040517f4b800e460000000000000000000000000000000000000000000000000000000081526001600160a01b0380831660048301528b166024820152604401610b29565b6114ed8a8a8a611586565b50505050505050505050565b6115016118a1565b6001600160a01b038116611544576040517f1e4fbdf700000000000000000000000000000000000000000000000000000000815260006004820152602401610b29565b61154d81611ccf565b50565b600060208201803590600190839061156890866130ff565b63ffffffff1681526020810191909152604001600020541492915050565b61159383838360016120a4565b505050565b82808381101561123b576040517f71c4efed0000000000000000000000000000000000000000000000000000000081526004810182905260248101859052604401610b29565b63ffffffff8116600090815260016020526040812054806109f7576040517ff6ff4fb700000000000000000000000000000000000000000000000000000000815263ffffffff84166004820152602401610b29565b600061164561164287876121ab565b90565b905060006116698261165789896121c3565b61166460208d018d6130ff565b6121d3565b905060408611156117495760006116a661168960608c0160408d0161371a565b61169660208d018d6130ff565b846116a18c8c6121fb565b612246565b6040517f7cb590120000000000000000000000000000000000000000000000000000000081529091506001600160a01b037f00000000000000000000000000000000000000000000000000000000000000001690637cb59012906117159086908d906000908790600401613737565b600060405180830381600087803b15801561172f57600080fd5b505af1158015611743573d6000803e3d6000fd5b50505050505b6001600160a01b038216887fefed6d3500546b29533b128a29e3a94d70788727f0507505ac12eaf2e578fd9c61178260208d018d6130ff565b6040805163ffffffff9092168252602082018690520160405180910390a3505050505050505050565b6001600160a01b03838116600090815260066020908152604080832093861683529290522054600019811461183c578181101561182d576040517ffb8f41b20000000000000000000000000000000000000000000000000000000081526001600160a01b03841660048201526024810182905260448101839052606401610b29565b61183c848484840360006120a4565b50505050565b6001600160a01b03831661186c57604051634b637e8f60e11b815260006004820152602401610b29565b6001600160a01b0382166118965760405163ec442f0560e01b815260006004820152602401610b29565b611593838383612278565b6000546001600160a01b03163314610c7d576040517f118cdaa7000000000000000000000000000000000000000000000000000000008152336004820152602401610b29565b63ffffffff8216600081815260016020908152604091829020849055815192835282018390527f238399d427b947898edb290f5ff0f9109849b1c3ba196a42e35f00c50a54b98b910160405180910390a15050565b6000306001600160a01b037f00000000000000000000000000000000000000000000000000000000000000001614801561199557507f000000000000000000000000000000000000000000000000000000000000000046145b156119bf57507f000000000000000000000000000000000000000000000000000000000000000090565b610c01604080517f8b73c3c69bb8fe3d512ecc4cf759cc79239f7b179b0ffacaa9a75d522b39400f60208201527f0000000000000000000000000000000000000000000000000000000000000000918101919091527f000000000000000000000000000000000000000000000000000000000000000060608201524660808201523060a082015260009060c00160405160208183030381529060405280519060200120905090565b6060806000611abc602086013585611a8260a08901896135c8565b8080601f0160208091040260200160405190810160405280939291908181526020018383808284376000920191909152506123bb92505050565b9093509050600081611acf576001611ad2565b60025b9050611af2611ae460208801886130ff565b8261081f60808a018a6135c8565b6004549093506001600160a01b031615611b9357600480546040517f043a78eb0000000000000000000000000000000000000000000000000000000081526001600160a01b039091169163043a78eb91611b50918891889101613769565b602060405180830381865afa158015611b6d573d6000803e3d6000fd5b505050506040513d601f19601f82011682018060405250810190611b91919061378e565b505b50509250929050565b60408051808201909152600080825260208201527f00000000000000000000000000000000000000000000000000000000000000006001600160a01b031663ddc28c586040518060a001604052808863ffffffff168152602001611bff896115de565b8152602001878152602001868152602001851515815250306040518363ffffffff1660e01b8152600401611c349291906137ab565b6040805180830381865afa158015611c50573d6000803e3d6000fd5b505050506040513d601f19601f82011682018060405250810190611c749190613854565b95945050505050565b611c85612420565b600d805460ff191690557f5db9ee0a495bf2e6ff9c91a7834c1ba4fdd244a5e8aa4e537bd38aeae4b073aa335b6040516001600160a01b03909116815260200160405180910390a1565b600080546001600160a01b0383811673ffffffffffffffffffffffffffffffffffffffff19831681178455604051919092169283917f8be0079c531659141344cd1fd0a4f28419497f9722a3daafe3b4186f6b6457e09190a35050565b611d34611ef6565b600d805460ff191660011790557f62e78cea01bee320cd4e420270b5ea74000d11b0c9f74754ebdbfc544b05a258611cb23390565b6060610c017f0000000000000000000000000000000000000000000000000000000000000000600a61245c565b6060610c017f0000000000000000000000000000000000000000000000000000000000000000600b61245c565b60005b8151811015611e9a57611df5828281518110611de457611de4613591565b602002602001015160400151611eca565b818181518110611e0757611e07613591565b60200260200101516040015160036000848481518110611e2957611e29613591565b60200260200101516000015163ffffffff1663ffffffff1681526020019081526020016000206000848481518110611e6357611e63613591565b60200260200101516020015161ffff1661ffff1681526020019081526020016000209081611e9191906138c0565b50600101611dc6565b507fbe4864a8e820971c0247f5992e2da559595f7bf076a21cb5928d443d2a13b67481604051610d839190613980565b600281015161ffff8116600314610bf35781604051639a6d49cd60e01b8152600401610b299190612bd8565b600d5460ff1615610c7d576040517fd93c066500000000000000000000000000000000000000000000000000000000815260040160405180910390fd5b611f3b612b40565b6040805180820190915260008082526020820152600080611f7233604089013560608a0135611f6d60208c018c6130ff565b612507565b91509150600080611f838984611a67565b9092509050611faf611f9860208b018b6130ff565b8383611fa9368d90038d018d613a0b565b8b61252d565b60408051808201909152858152602080820186905282519298509096503391907f85496b760a4b7f8d66384b9df21b381f5d1b1e79f229a47aaf4c232edc2fe59a90611ffd908d018d6130ff565b6040805163ffffffff909216825260208201899052810187905260600160405180910390a350505050935093915050565b60006109f761203b61193c565b836040517f19010000000000000000000000000000000000000000000000000000000000008152600281019290925260228201526042902090565b60008060008061208888888888612638565b9250925092506120988282612707565b50909695505050505050565b6001600160a01b0384166120e7576040517fe602df0500000000000000000000000000000000000000000000000000000000815260006004820152602401610b29565b6001600160a01b03831661212a576040517f94280d6200000000000000000000000000000000000000000000000000000000815260006004820152602401610b29565b6001600160a01b038085166000908152600660209081526040808320938716835292905220829055801561183c57826001600160a01b0316846001600160a01b03167f8c5be1e5ebec7d5bd14f71427d1e84f3dd0314c0f7b2291e5b200ac8c7c3b9258460405161219d91815260200190565b60405180910390a350505050565b60006121ba6020828486613502565b610bda91613a3d565b60006121ba604060208486613502565b60006001600160a01b0384166121e95761dead93505b6121f3848461280b565b509092915050565b606061220a8260408186613502565b8080601f016020809104026020016040519081016040528093929190818152602001838380828437600092019190915250929695505050505050565b60608484848460405160200161225f9493929190613a5b565b6040516020818303038152906040529050949350505050565b6001600160a01b0383166122a35780600760008282546122989190613ad9565b9091555061232e9050565b6001600160a01b0383166000908152600560205260409020548181101561230f576040517fe450d38c0000000000000000000000000000000000000000000000000000000081526001600160a01b03851660048201526024810182905260448101839052606401610b29565b6001600160a01b03841660009081526005602052604090209082900390555b6001600160a01b03821661234a57600780548290039055612369565b6001600160a01b03821660009081526005602052604090208054820190555b816001600160a01b0316836001600160a01b03167fddf252ad1be2c89b69c2b068fc378daa952ba7f163c4a11628f55a4df523b3ef836040516123ae91815260200190565b60405180910390a3505050565b80516060901515806123ef576040805160208101879052908101859052606001604051602081830303815290604052612416565b848433856040516020016124069493929190613afa565b6040516020818303038152906040525b9150935093915050565b600d5460ff16610c7d576040517f8dfc202b00000000000000000000000000000000000000000000000000000000815260040160405180910390fd5b606060ff83146124765761246f83612841565b90506109f7565b818054612482906132fd565b80601f01602080910402602001604051908101604052809291908181526020018280546124ae906132fd565b80156124fb5780601f106124d0576101008083540402835291602001916124fb565b820191906000526020600020905b8154815290600101906020018083116124de57829003601f168201915b505050505090506109f7565b600080612515858585611598565b90925090506125248683612880565b94509492505050565b612535612b40565b600061254484600001516128b6565b60208501519091501561255e5761255e84602001516128f7565b7f00000000000000000000000000000000000000000000000000000000000000006001600160a01b0316632637a450826040518060a001604052808b63ffffffff1681526020016125ae8c6115de565b81526020018a815260200189815260200160008960200151111515815250866040518463ffffffff1660e01b81526004016125ea9291906137ab565b60806040518083038185885af1158015612608573d6000803e3d6000fd5b50505050506040513d601f19601f8201168201806040525081019061262d9190613b2e565b979650505050505050565b600080807f7fffffffffffffffffffffffffffffff5d576e7357a4501ddfe92f46681b20a084111561267357506000915060039050826126fd565b604080516000808252602082018084528a905260ff891692820192909252606081018790526080810186905260019060a0016020604051602081039080840390855afa1580156126c7573d6000803e3d6000fd5b5050604051601f1901519150506001600160a01b0381166126f3575060009250600191508290506126fd565b9250600091508190505b9450945094915050565b600082600381111561271b5761271b613b78565b03612724575050565b600182600381111561273857612738613b78565b0361276f576040517ff645eedf00000000000000000000000000000000000000000000000000000000815260040160405180910390fd5b600282600381111561278357612783613b78565b036127bd576040517ffce698f700000000000000000000000000000000000000000000000000000000815260048101829052602401610b29565b60038260038111156127d1576127d1613b78565b03610bf3576040517fd78bce0c00000000000000000000000000000000000000000000000000000000815260048101829052602401610b29565b6001600160a01b0382166128355760405163ec442f0560e01b815260006004820152602401610b29565b610bf360008383612278565b6060600061284e836129f2565b604080516020808252818301909252919250600091906020820181803683375050509182525060208101929092525090565b6001600160a01b0382166128aa57604051634b637e8f60e11b815260006004820152602401610b29565b610bf382600083612278565b60008134146128f3576040517f9f704120000000000000000000000000000000000000000000000000000000008152346004820152602401610b29565b5090565b60007f00000000000000000000000000000000000000000000000000000000000000006001600160a01b031663e4fe1d946040518163ffffffff1660e01b8152600401602060405180830381865afa158015612957573d6000803e3d6000fd5b505050506040513d601f19601f8201168201806040525081019061297b9190613b8e565b90506001600160a01b0381166129bd576040517f5373352a00000000000000000000000000000000000000000000000000000000815260040160405180910390fd5b610bf36001600160a01b038216337f000000000000000000000000000000000000000000000000000000000000000085612a33565b600060ff8216601f8111156109f7576040517fb3512b0c00000000000000000000000000000000000000000000000000000000815260040160405180910390fd5b604080516001600160a01b038581166024830152841660448201526064808201849052825180830390910181526084909101909152602080820180517bffffffffffffffffffffffffffffffffffffffffffffffffffffffff167f23b872dd00000000000000000000000000000000000000000000000000000000178152825161183c938893909260009283929183919082885af180612ad9576040513d6000823e3d81fd5b50506000513d91508115612af1578060011415612afe565b6001600160a01b0384163b155b1561183c576040517f5274afe70000000000000000000000000000000000000000000000000000000081526001600160a01b0385166004820152602401610b29565b604051806060016040528060008019168152602001600067ffffffffffffffff168152602001612b83604051806040016040528060008152602001600081525090565b905290565b60005b83811015612ba3578181015183820152602001612b8b565b50506000910152565b60008151808452612bc4816020860160208601612b88565b601f01601f19169290920160200192915050565b602081526000610bda6020830184612bac565b6001600160a01b038116811461154d57600080fd5b60008060408385031215612c1357600080fd5b8235612c1e81612beb565b946020939093013593505050565b600060e08284031215612c3e57600080fd5b50919050565b600060208284031215612c5657600080fd5b813567ffffffffffffffff811115612c6d57600080fd5b610dcb84828501612c2c565b8351815260208085015190820152600060a08201604060a0604085015281865180845260c08601915060c08160051b8701019350602080890160005b83811015612cf45788870360bf19018552815180518852830151838801879052612ce187890182612bac565b9750509382019390820190600101612cb5565b50508751606088015250505060208501516080850152509050610dcb565b600060608284031215612c3e57600080fd5b60008083601f840112612d3657600080fd5b50813567ffffffffffffffff811115612d4e57600080fd5b602083019150836020828501011115612d6657600080fd5b9250929050565b600080600080600080600060e0888a031215612d8857600080fd5b612d928989612d12565b965060608801359550608088013567ffffffffffffffff80821115612db657600080fd5b612dc28b838c01612d24565b909750955060a08a01359150612dd782612beb565b90935060c08901359080821115612ded57600080fd5b50612dfa8a828b01612d24565b989b979a50959850939692959293505050565b600080600060608486031215612e2257600080fd5b8335612e2d81612beb565b92506020840135612e3d81612beb565b929592945050506040919091013590565b803563ffffffff81168114612e6257600080fd5b919050565b60008060408385031215612e7a57600080fd5b612c1e83612e4e565b801515811461154d57600080fd5b60008060408385031215612ea457600080fd5b823567ffffffffffffffff811115612ebb57600080fd5b612ec785828601612c2c565b9250506020830135612ed881612e83565b809150509250929050565b8151815260208083015190820152604081016109f7565b803561ffff81168114612e6257600080fd5b60008060408385031215612f1f57600080fd5b612f2883612e4e565b9150612f3660208401612efa565b90509250929050565b600060208284031215612f5157600080fd5b8135610bda81612beb565b60008060008060a08587031215612f7257600080fd5b612f7c8686612d12565b9350606085013567ffffffffffffffff811115612f9857600080fd5b612fa487828801612d24565b9094509250506080850135612fb881612beb565b939692955090935050565b7fff00000000000000000000000000000000000000000000000000000000000000881681526000602060e0602084015261300060e084018a612bac565b8381036040850152613012818a612bac565b606085018990526001600160a01b038816608086015260a0850187905284810360c08601528551808252602080880193509091019060005b818110156130665783518352928401929184019160010161304a565b50909c9b505050505050505050505050565b60008083601f84011261308a57600080fd5b50813567ffffffffffffffff8111156130a257600080fd5b6020830191508360208260051b8501011115612d6657600080fd5b600080602083850312156130d057600080fd5b823567ffffffffffffffff8111156130e757600080fd5b6130f385828601613078565b90969095509350505050565b60006020828403121561311157600080fd5b610bda82612e4e565b6000806000806060858703121561313057600080fd5b61313985612e4e565b935061314760208601612efa565b9250604085013567ffffffffffffffff81111561316357600080fd5b61316f87828801612d24565b95989497509550505050565b6000806000838503608081121561319157600080fd5b843567ffffffffffffffff8111156131a857600080fd5b6131b487828801612c2c565b9450506040601f19820112156131c957600080fd5b5060208401915060608401356131de81612beb565b809150509250925092565b600060c0820190508351825267ffffffffffffffff60208501511660208301526040840151613225604084018280518252602090810151910152565b5082516080830152602083015160a0830152610bda565b600080600080600080600060e0888a03121561325757600080fd5b873561326281612beb565b9650602088013561327281612beb565b95506040880135945060608801359350608088013560ff8116811461329657600080fd5b9699959850939692959460a0840135945060c09093013592915050565b600080604083850312156132c657600080fd5b82356132d181612beb565b91506020830135612ed881612beb565b6000606082840312156132f357600080fd5b610bda8383612d12565b600181811c9082168061331157607f821691505b602082108103612c3e57634e487b7160e01b600052602260045260246000fd5b634e487b7160e01b600052604160045260246000fd5b6040516060810167ffffffffffffffff8111828210171561336a5761336a613331565b60405290565b6040805190810167ffffffffffffffff8111828210171561336a5761336a613331565b604051601f8201601f1916810167ffffffffffffffff811182821017156133bc576133bc613331565b604052919050565b600067ffffffffffffffff8211156133de576133de613331565b50601f01601f191660200190565b600067ffffffffffffffff8084111561340757613407613331565b8360051b6020613418818301613393565b86815291850191818101903684111561343057600080fd5b865b848110156134f65780358681111561344a5760008081fd5b8801606036829003121561345e5760008081fd5b613466613347565b61346f82612e4e565b815261347c868301612efa565b86820152604080830135898111156134945760008081fd5b929092019136601f8401126134a95760008081fd5b82356134bc6134b7826133c4565b613393565b81815236898387010111156134d15760008081fd5b818986018a830137600091810189019190915290820152845250918301918301613432565b50979650505050505050565b6000808585111561351257600080fd5b8386111561351f57600080fd5b5050820193919092039150565b6000845161353e818460208901612b88565b8201838582376000930192835250909392505050565b81835281816020850137506000828201602090810191909152601f909101601f19169091010190565b602081526000610dcb602083018486613554565b634e487b7160e01b600052603260045260246000fd5b6000823561013e198336030181126135be57600080fd5b9190910192915050565b6000808335601e198436030181126135df57600080fd5b83018035915067ffffffffffffffff8211156135fa57600080fd5b602001915036819003821315612d6657600080fd5b67ffffffffffffffff8116811461154d57600080fd5b63ffffffff61363389612e4e565b16815260208801356020820152600060408901356136508161360f565b67ffffffffffffffff811660408401525087606083015260e0608083015261367c60e083018789613554565b6001600160a01b03861660a084015282810360c084015261369e818587613554565b9a9950505050505050505050565b6000602082840312156136be57600080fd5b815167ffffffffffffffff8111156136d557600080fd5b8201601f810184136136e657600080fd5b80516136f46134b7826133c4565b81815285602083850101111561370957600080fd5b611c74826020830160208601612b88565b60006020828403121561372c57600080fd5b8135610bda8161360f565b6001600160a01b038516815283602082015261ffff83166040820152608060608201526000610c636080830184612bac565b60408152600061377c6040830185612bac565b8281036020840152611c748185612bac565b6000602082840312156137a057600080fd5b8151610bda81612e83565b6040815263ffffffff8351166040820152602083015160608201526000604084015160a060808401526137e160e0840182612bac565b90506060850151603f198483030160a08501526137fe8282612bac565b60809690960151151560c08501525050506001600160a01b039190911660209091015290565b60006040828403121561383657600080fd5b61383e613370565b9050815181526020820151602082015292915050565b60006040828403121561386657600080fd5b610bda8383613824565b601f821115611593576000816000526020600020601f850160051c810160208610156138995750805b601f850160051c820191505b818110156138b8578281556001016138a5565b505050505050565b815167ffffffffffffffff8111156138da576138da613331565b6138ee816138e884546132fd565b84613870565b602080601f831160018114613923576000841561390b5750858301515b600019600386901b1c1916600185901b1785556138b8565b600085815260208120601f198616915b8281101561395257888601518255948401946001909101908401613933565b50858210156139705787850151600019600388901b60f8161c191681555b5050505050600190811b01905550565b600060208083018184528085518083526040925060408601915060408160051b87010184880160005b838110156139fd57888303603f190185528151805163ffffffff1684528781015161ffff168885015286015160608785018190526139e981860183612bac565b9689019694505050908601906001016139a9565b509098975050505050505050565b600060408284031215613a1d57600080fd5b613a25613370565b82358152602083013560208201528091505092915050565b803560208310156109f757600019602084900360031b1b1692915050565b7fffffffffffffffff0000000000000000000000000000000000000000000000008560c01b1681527fffffffff000000000000000000000000000000000000000000000000000000008460e01b16600882015282600c82015260008251613ac981602c850160208701612b88565b91909101602c0195945050505050565b808201808211156109f757634e487b7160e01b600052601160045260246000fd5b84815283602082015282604082015260008251613b1e816060850160208701612b88565b9190910160600195945050505050565b600060808284031215613b4057600080fd5b613b48613347565b825181526020830151613b5a8161360f565b6020820152613b6c8460408501613824565b60408201529392505050565b634e487b7160e01b600052602160045260246000fd5b600060208284031215613ba057600080fd5b8151610bda81612beb56fea2646970667358221220366e7d7bc5665c8fcc3de2c7e268efe4dd43a573c0bc03a962ab644c7b30276264736f6c63430008190033",
  "devdoc": {
    "author": "Cooper Labs",
    "custom:contact": "security@cooperlabs.xyz",
    "errors": {
      "ECDSAInvalidSignature()": [
        {
          "details": "The signature derives the `address(0)`."
        }
      ],
      "ECDSAInvalidSignatureLength(uint256)": [
        {
          "details": "The signature has an invalid length."
        }
      ],
      "ECDSAInvalidSignatureS(bytes32)": [
        {
          "details": "The signature has an S value that is in the upper half order."
        }
      ],
      "ERC20InsufficientAllowance(address,uint256,uint256)": [
        {
          "details": "Indicates a failure with the `spender`’s `allowance`. Used in transfers.",
          "params": {
            "allowance": "Amount of tokens a `spender` is allowed to operate with.",
            "needed": "Minimum amount required to perform a transfer.",
            "spender": "Address that may be allowed to operate on tokens without being their owner."
          }
        }
      ],
      "ERC20InsufficientBalance(address,uint256,uint256)": [
        {
          "details": "Indicates an error related to the current `balance` of a `sender`. Used in transfers.",
          "params": {
            "balance": "Current balance for the interacting account.",
            "needed": "Minimum amount required to perform a transfer.",
            "sender": "Address whose tokens are being transferred."
          }
        }
      ],
      "ERC20InvalidApprover(address)": [
        {
          "details": "Indicates a failure with the `approver` of a token to be approved. Used in approvals.",
          "params": {
            "approver": "Address initiating an approval operation."
          }
        }
      ],
      "ERC20InvalidReceiver(address)": [
        {
          "details": "Indicates a failure with the token `receiver`. Used in transfers.",
          "params": {
            "receiver": "Address to which tokens are being transferred."
          }
        }
      ],
      "ERC20InvalidSender(address)": [
        {
          "details": "Indicates a failure with the token `sender`. Used in transfers.",
          "params": {
            "sender": "Address whose tokens are being transferred."
          }
        }
      ],
      "ERC20InvalidSpender(address)": [
        {
          "details": "Indicates a failure with the `spender` to be approved. Used in approvals.",
          "params": {
            "spender": "Address that may be allowed to operate on tokens without being their owner."
          }
        }
      ],
      "ERC2612ExpiredSignature(uint256)": [
        {
          "details": "Permit deadline has expired."
        }
      ],
      "ERC2612InvalidSigner(address,address)": [
        {
          "details": "Mismatched signature."
        }
      ],
      "EnforcedPause()": [
        {
          "details": "The operation failed because the contract is paused."
        }
      ],
      "ExpectedPause()": [
        {
          "details": "The operation failed because the contract is not paused."
        }
      ],
      "InvalidAccountNonce(address,uint256)": [
        {
          "details": "The nonce used for an `account` is not the expected current nonce."
        }
      ],
      "OwnableInvalidOwner(address)": [
        {
          "details": "The owner is not a valid owner account. (eg. `address(0)`)"
        }
      ],
      "OwnableUnauthorizedAccount(address)": [
        {
          "details": "The caller account is not authorized to perform an operation."
        }
      ],
      "SafeERC20FailedOperation(address)": [
        {
          "details": "An operation with an ERC-20 token failed."
        }
      ]
    },
    "events": {
      "Approval(address,address,uint256)": {
        "details": "Emitted when the allowance of a `spender` for an `owner` is set by a call to {approve}. `value` is the new allowance."
      },
      "EIP712DomainChanged()": {
        "details": "MAY be emitted to signal that the domain could have changed."
      },
      "Paused(address)": {
        "details": "Emitted when the pause is triggered by `account`."
      },
      "PreCrimeSet(address)": {
        "details": "Emitted when the preCrime contract address is set.",
        "params": {
          "preCrimeAddress": "The address of the preCrime contract."
        }
      },
      "Transfer(address,address,uint256)": {
        "details": "Emitted when `value` tokens are moved from one account (`from`) to another (`to`). Note that `value` may be zero."
      },
      "Unpaused(address)": {
        "details": "Emitted when the pause is lifted by `account`."
      }
    },
    "kind": "dev",
    "methods": {
      "DOMAIN_SEPARATOR()": {
        "details": "Returns the domain separator used in the encoding of the signature for {permit}, as defined by {EIP712}."
      },
      "allowInitializePath((uint32,bytes32,uint64))": {
        "details": "This indicates to the endpoint that the OApp has enabled msgs for this particular path to be received.This defaults to assuming if a peer has been set, its initialized. Can be overridden by the OApp if there is other logic to determine this.",
        "params": {
          "origin": "The origin information containing the source endpoint and sender address."
        },
        "returns": {
          "_0": "Whether the path has been initialized."
        }
      },
      "allowance(address,address)": {
        "details": "See {IERC20-allowance}."
      },
      "approvalRequired()": {
        "details": "In the case of OFT where the contract IS the token, approval is NOT required.",
        "returns": {
          "_0": "requiresApproval Needs approval of the underlying token implementation."
        }
      },
      "approve(address,uint256)": {
        "details": "See {IERC20-approve}. NOTE: If `value` is the maximum `uint256`, the allowance is not updated on `transferFrom`. This is semantically equivalent to an infinite approval. Requirements: - `spender` cannot be the zero address."
      },
      "balanceOf(address)": {
        "details": "See {IERC20-balanceOf}."
      },
      "combineOptions(uint32,uint16,bytes)": {
        "details": "If there is an enforced lzReceive option: - {gasLimit: 200k, msg.value: 1 ether} AND a caller supplies a lzReceive option: {gasLimit: 100k, msg.value: 0.5 ether} - The resulting options will be {gasLimit: 300k, msg.value: 1.5 ether} when the message is executed on the remote lzReceive() function.This presence of duplicated options is handled off-chain in the verifier/executor.",
        "params": {
          "_eid": "The endpoint ID.",
          "_extraOptions": "Additional options passed by the caller.",
          "_msgType": "The OAPP message type."
        },
        "returns": {
          "_0": "options The combination of caller specified options AND enforced options."
        }
      },
      "constructor": {
        "params": {
          "_endpoint": "Address of the LayerZero endpoint",
          "_owner": "Address of the contract owner"
        }
      },
      "decimals()": {
        "details": "Returns the number of decimals used to get its user representation. For example, if `decimals` equals `2`, a balance of `505` tokens should be displayed to a user as `5.05` (`505 / 10 ** 2`). Tokens usually opt for a value of 18, imitating the relationship between Ether and Wei. This is the default value returned by this function, unless it's overridden. NOTE: This information is only used for _display_ purposes: it in no way affects any of the arithmetic of the contract, including {IERC20-balanceOf} and {IERC20-transfer}."
      },
      "eip712Domain()": {
        "details": "See {IERC-5267}."
      },
      "isComposeMsgSender((uint32,bytes32,uint64),bytes,address)": {
        "details": "_origin The origin information containing the source endpoint and sender address.  - srcEid: The source chain endpoint ID.  - sender: The sender address on the src chain.  - nonce: The nonce of the message._message The lzReceive payload.Applications can optionally choose to implement separate composeMsg senders that are NOT the bridging layer.The default sender IS the OAppReceiver implementer.",
        "params": {
          "_sender": "The sender address."
        },
        "returns": {
          "_0": "isSender Is a valid sender."
        }
      },
      "isPeer(uint32,bytes32)": {
        "details": "Check if the peer is considered 'trusted' by the OApp.Enables OAppPreCrimeSimulator to check whether a potential Inbound Packet is from a trusted source.",
        "params": {
          "_eid": "The endpoint ID to check.",
          "_peer": "The peer to check."
        },
        "returns": {
          "_0": "Whether the peer passed is considered 'trusted' by the OApp."
        }
      },
      "lzReceive((uint32,bytes32,uint64),bytes32,bytes,address,bytes)": {
        "details": "Entry point for receiving messages or packets from the endpoint.Entry point for receiving msg/packet from the LayerZero endpoint.",
        "params": {
          "_executor": "The address of the executor for the received message.",
          "_extraData": "Additional arbitrary data provided by the corresponding executor.",
          "_guid": "The unique identifier for the received LayerZero message.",
          "_message": "The payload of the received message.",
          "_origin": "The origin information containing the source endpoint and sender address.  - srcEid: The source chain endpoint ID.  - sender: The sender address on the src chain.  - nonce: The nonce of the message."
        }
      },
      "lzReceiveAndRevert(((uint32,bytes32,uint64),uint32,address,bytes32,uint256,address,bytes,bytes)[])": {
        "details": "Interface for pre-crime simulations. Always reverts at the end with the simulation results.WARNING: MUST revert at the end with the simulation results.Gives the preCrime implementation the ability to mock sending packets to the lzReceive function, WITHOUT actually executing them.",
        "params": {
          "_packets": "An array of InboundPacket objects representing received packets to be delivered."
        }
      },
      "lzReceiveSimulate((uint32,bytes32,uint64),bytes32,bytes,address,bytes)": {
        "details": "Is effectively an internal function because msg.sender must be address(this). Allows resetting the call stack for 'internal' calls.",
        "params": {
          "_executor": "The executor address for the packet.",
          "_extraData": "Additional data for the packet.",
          "_guid": "The unique identifier of the packet.",
          "_message": "The message payload of the packet.",
          "_origin": "The origin information containing the source endpoint and sender address.  - srcEid: The source chain endpoint ID.  - sender: The sender address on the src chain.  - nonce: The nonce of the message."
        }
      },
      "name()": {
        "details": "Returns the name of the token."
      },
      "nextNonce(uint32,bytes32)": {
        "details": "_srcEid The source endpoint ID._sender The sender address.The path nonce starts from 1. If 0 is returned it means that there is NO nonce ordered enforcement.Is required by the off-chain executor to determine the OApp expects msg execution is ordered.This is also enforced by the OApp.By default this is NOT enabled. ie. nextNonce is hardcoded to return 0.",
        "returns": {
          "nonce": "The next nonce."
        }
      },
      "nonces(address)": {
        "details": "Returns the current nonce for `owner`. This value must be included whenever a signature is generated for {permit}. Every successful call to {permit} increases ``owner``'s nonce by one. This prevents a signature from being used multiple times."
      },
      "oApp()": {
        "details": "Retrieves the address of the OApp contract.The simulator contract is the base contract for the OApp by default.If the simulator is a separate contract, override this function.",
        "returns": {
          "_0": "The address of the OApp contract."
        }
      },
      "oAppVersion()": {
        "returns": {
          "receiverVersion": "The version of the OAppReceiver.sol implementation.",
          "senderVersion": "The version of the OAppSender.sol implementation."
        }
      },
      "oftVersion()": {
        "details": "interfaceId: This specific interface ID is '0x18fb6cf8'.version: Indicates a cross-chain compatible msg encoding with other OFTs.If a new feature is added to the OFT cross-chain msg encoding, the version will be incremented. ie. localOFT version(x,1) CAN send messages to remoteOFT version(x,1)",
        "returns": {
          "interfaceId": "The interface ID.",
          "version": "The version."
        }
      },
      "owner()": {
        "details": "Returns the address of the current owner."
      },
      "pause()": {
        "details": "This function can only be called by the owner"
      },
      "paused()": {
        "details": "Returns true if the contract is paused, and false otherwise."
      },
      "permit(address,address,uint256,uint256,uint8,bytes32,bytes32)": {
        "details": "Sets `value` as the allowance of `spender` over ``owner``'s tokens, given ``owner``'s signed approval. IMPORTANT: The same issues {IERC20-approve} has related to transaction ordering also apply here. Emits an {Approval} event. Requirements: - `spender` cannot be the zero address. - `deadline` must be a timestamp in the future. - `v`, `r` and `s` must be a valid `secp256k1` signature from `owner` over the EIP712-formatted function arguments. - the signature must use ``owner``'s current nonce (see {nonces}). For more information on the signature format, see the https://eips.ethereum.org/EIPS/eip-2612#specification[relevant EIP section]. CAUTION: See Security Considerations above."
      },
      "quoteOFT((uint32,bytes32,uint256,uint256,bytes,bytes,bytes))": {
        "params": {
          "_sendParam": "The parameters for the send operation."
        },
        "returns": {
          "oftFeeDetails": "The details of OFT fees.",
          "oftLimit": "The OFT limit information.",
          "oftReceipt": "The OFT receipt information."
        }
      },
      "quoteSend((uint32,bytes32,uint256,uint256,bytes,bytes,bytes),bool)": {
        "details": "MessagingFee: LayerZero msg fee  - nativeFee: The native fee.  - lzTokenFee: The lzToken fee.",
        "params": {
          "_payInLzToken": "Flag indicating whether the caller is paying in the LZ token.",
          "_sendParam": "The parameters for the send() operation."
        },
        "returns": {
          "msgFee": "The calculated LayerZero messaging fee from the send() operation."
        }
      },
      "renounceOwnership()": {
        "details": "Leaves the contract without owner. It will not be possible to call `onlyOwner` functions. Can only be called by the current owner. NOTE: Renouncing ownership will leave the contract without an owner, thereby disabling any functionality that is only available to the owner."
      },
      "send((uint32,bytes32,uint256,uint256,bytes,bytes,bytes),(uint256,uint256),address)": {
        "details": "This function is pausable and overrides the base OFT implementation",
        "params": {
          "_fee": "Messaging fee for the LayerZero transaction",
          "_refundAddress": "Address to refund excess fees",
          "_sendParam": "Parameters for the send operation"
        },
        "returns": {
          "msgReceipt": "Receipt for the LayerZero message",
          "oftReceipt": "Receipt for the OFT transaction"
        }
      },
      "setDelegate(address)": {
        "details": "Only the owner/admin of the OApp can call this function.Provides the ability for a delegate to set configs, on behalf of the OApp, directly on the Endpoint contract.",
        "params": {
          "_delegate": "The address of the delegate to be set."
        }
      },
      "setEnforcedOptions((uint32,uint16,bytes)[])": {
        "details": "Sets the enforced options for specific endpoint and message type combinations.Only the owner/admin of the OApp can call this function.Provides a way for the OApp to enforce things like paying for PreCrime, AND/OR minimum dst lzReceive gas amounts etc.These enforced options can vary as the potential options/execution on the remote may differ as per the msgType. eg. Amount of lzReceive() gas necessary to deliver a lzCompose() message adds overhead you dont want to pay if you are only making a standard LayerZero message ie. lzReceive() WITHOUT sendCompose().",
        "params": {
          "_enforcedOptions": "An array of EnforcedOptionParam structures specifying enforced options."
        }
      },
      "setMsgInspector(address)": {
        "details": "Sets the message inspector address for the OFT.This is an optional contract that can be used to inspect both 'message' and 'options'.Set it to address(0) to disable it, or set it to a contract address to enable it.",
        "params": {
          "_msgInspector": "The address of the message inspector."
        }
      },
      "setPeer(uint32,bytes32)": {
        "details": "Only the owner/admin of the OApp can call this function.Indicates that the peer is trusted to send LayerZero messages to this OApp.Set this to bytes32(0) to remove the peer address.Peer is a bytes32 to accommodate non-evm chains.",
        "params": {
          "_eid": "The endpoint ID.",
          "_peer": "The address of the peer to be associated with the corresponding endpoint."
        }
      },
      "setPreCrime(address)": {
        "details": "Sets the preCrime contract address.",
        "params": {
          "_preCrime": "The address of the preCrime contract."
        }
      },
      "symbol()": {
        "details": "Returns the symbol of the token, usually a shorter version of the name."
      },
      "token()": {
        "details": "Retrieves the address of the underlying ERC20 implementation.In the case of OFT, address(this) and erc20 are the same contract.",
        "returns": {
          "_0": "The address of the OFT token."
        }
      },
      "totalSupply()": {
        "details": "See {IERC20-totalSupply}."
      },
      "transfer(address,uint256)": {
        "details": "See {IERC20-transfer}. Requirements: - `to` cannot be the zero address. - the caller must have a balance of at least `value`."
      },
      "transferFrom(address,address,uint256)": {
        "details": "See {IERC20-transferFrom}. Skips emitting an {Approval} event indicating an allowance update. This is not required by the ERC. See {xref-ERC20-_approve-address-address-uint256-bool-}[_approve]. NOTE: Does not update the allowance if the current allowance is the maximum `uint256`. Requirements: - `from` and `to` cannot be the zero address. - `from` must have a balance of at least `value`. - the caller must have allowance for ``from``'s tokens of at least `value`."
      },
      "transferOwnership(address)": {
        "details": "Transfers ownership of the contract to a new account (`newOwner`). Can only be called by the current owner."
      },
      "unpause()": {
        "details": "This function can only be called by the owner"
      }
    },
    "title": "PeripheralPRL",
    "version": 1
  },
  "userdoc": {
    "errors": {
      "AddressZero()": [
        {
          "notice": "Thrown when the address is zero."
        }
      ]
    },
    "kind": "user",
    "methods": {
      "SEND()": {
        "notice": "Msg types that are used to identify the various OFT operations."
      },
      "allowInitializePath((uint32,bytes32,uint64))": {
        "notice": "Checks if the path initialization is allowed based on the provided origin."
      },
      "approvalRequired()": {
        "notice": "Indicates whether the OFT contract requires approval of the 'token()' to send."
      },
      "combineOptions(uint32,uint16,bytes)": {
        "notice": "Combines options for a given endpoint and message type."
      },
      "constructor": {
        "notice": "Initializes the PeripheralPRL contract"
      },
      "endpoint()": {
        "notice": "Retrieves the LayerZero endpoint associated with the OApp."
      },
      "isComposeMsgSender((uint32,bytes32,uint64),bytes,address)": {
        "notice": "Indicates whether an address is an approved composeMsg sender to the Endpoint."
      },
      "msgInspector()": {
        "notice": "Address of an optional contract to inspect both 'message' and 'options'"
      },
      "nextNonce(uint32,bytes32)": {
        "notice": "Retrieves the next nonce for a given source endpoint and sender address."
      },
      "oAppVersion()": {
        "notice": "Retrieves the OApp version information."
      },
      "oftVersion()": {
        "notice": "Retrieves interfaceID and the version of the OFT."
      },
      "pause()": {
        "notice": "Allow owner to pause the contract"
      },
      "peers(uint32)": {
        "notice": "Retrieves the peer (OApp) associated with a corresponding endpoint."
      },
      "quoteOFT((uint32,bytes32,uint256,uint256,bytes,bytes,bytes))": {
        "notice": "Provides a quote for OFT-related operations."
      },
      "quoteSend((uint32,bytes32,uint256,uint256,bytes,bytes,bytes),bool)": {
        "notice": "Provides a quote for the send() operation."
      },
      "send((uint32,bytes32,uint256,uint256,bytes,bytes,bytes),(uint256,uint256),address)": {
        "notice": "Sends tokens to another chain"
      },
      "setDelegate(address)": {
        "notice": "Sets the delegate address for the OApp."
      },
      "setPeer(uint32,bytes32)": {
        "notice": "Sets the peer address (OApp instance) for a corresponding endpoint."
      },
      "unpause()": {
        "notice": "Allow owner to unpause the contract"
      }
    },
    "version": 1
  },
  "storageLayout": {
    "storage": [
      {
        "astId": 2620,
        "contract": "contracts/peripheral/PeripheralPRL.sol:PeripheralPRL",
        "label": "_owner",
        "offset": 0,
        "slot": "0",
        "type": "t_address"
      },
      {
        "astId": 64,
        "contract": "contracts/peripheral/PeripheralPRL.sol:PeripheralPRL",
        "label": "peers",
        "offset": 0,
        "slot": "1",
        "type": "t_mapping(t_uint32,t_bytes32)"
      },
      {
        "astId": 840,
        "contract": "contracts/peripheral/PeripheralPRL.sol:PeripheralPRL",
        "label": "preCrime",
        "offset": 0,
        "slot": "2",
        "type": "t_address"
      },
      {
        "astId": 680,
        "contract": "contracts/peripheral/PeripheralPRL.sol:PeripheralPRL",
        "label": "enforcedOptions",
        "offset": 0,
        "slot": "3",
        "type": "t_mapping(t_uint32,t_mapping(t_uint16,t_bytes_storage))"
      },
      {
        "astId": 9993,
        "contract": "contracts/peripheral/PeripheralPRL.sol:PeripheralPRL",
        "label": "msgInspector",
        "offset": 0,
        "slot": "4",
        "type": "t_address"
      },
      {
        "astId": 3034,
        "contract": "contracts/peripheral/PeripheralPRL.sol:PeripheralPRL",
        "label": "_balances",
        "offset": 0,
        "slot": "5",
        "type": "t_mapping(t_address,t_uint256)"
      },
      {
        "astId": 3040,
        "contract": "contracts/peripheral/PeripheralPRL.sol:PeripheralPRL",
        "label": "_allowances",
        "offset": 0,
        "slot": "6",
        "type": "t_mapping(t_address,t_mapping(t_address,t_uint256))"
      },
      {
        "astId": 3042,
        "contract": "contracts/peripheral/PeripheralPRL.sol:PeripheralPRL",
        "label": "_totalSupply",
        "offset": 0,
        "slot": "7",
        "type": "t_uint256"
      },
      {
        "astId": 3044,
        "contract": "contracts/peripheral/PeripheralPRL.sol:PeripheralPRL",
        "label": "_name",
        "offset": 0,
        "slot": "8",
        "type": "t_string_storage"
      },
      {
        "astId": 3046,
        "contract": "contracts/peripheral/PeripheralPRL.sol:PeripheralPRL",
        "label": "_symbol",
        "offset": 0,
        "slot": "9",
        "type": "t_string_storage"
      },
      {
        "astId": 5894,
        "contract": "contracts/peripheral/PeripheralPRL.sol:PeripheralPRL",
        "label": "_nameFallback",
        "offset": 0,
        "slot": "10",
        "type": "t_string_storage"
      },
      {
        "astId": 5896,
        "contract": "contracts/peripheral/PeripheralPRL.sol:PeripheralPRL",
        "label": "_versionFallback",
        "offset": 0,
        "slot": "11",
        "type": "t_string_storage"
      },
      {
        "astId": 4556,
        "contract": "contracts/peripheral/PeripheralPRL.sol:PeripheralPRL",
        "label": "_nonces",
        "offset": 0,
        "slot": "12",
        "type": "t_mapping(t_address,t_uint256)"
      },
      {
        "astId": 4671,
        "contract": "contracts/peripheral/PeripheralPRL.sol:PeripheralPRL",
        "label": "_paused",
        "offset": 0,
        "slot": "13",
        "type": "t_bool"
      }
    ],
    "types": {
      "t_address": {
        "encoding": "inplace",
        "label": "address",
        "numberOfBytes": "20"
      },
      "t_bool": {
        "encoding": "inplace",
        "label": "bool",
        "numberOfBytes": "1"
      },
      "t_bytes32": {
        "encoding": "inplace",
        "label": "bytes32",
        "numberOfBytes": "32"
      },
      "t_bytes_storage": {
        "encoding": "bytes",
        "label": "bytes",
        "numberOfBytes": "32"
      },
      "t_mapping(t_address,t_mapping(t_address,t_uint256))": {
        "encoding": "mapping",
        "key": "t_address",
        "label": "mapping(address => mapping(address => uint256))",
        "numberOfBytes": "32",
        "value": "t_mapping(t_address,t_uint256)"
      },
      "t_mapping(t_address,t_uint256)": {
        "encoding": "mapping",
        "key": "t_address",
        "label": "mapping(address => uint256)",
        "numberOfBytes": "32",
        "value": "t_uint256"
      },
      "t_mapping(t_uint16,t_bytes_storage)": {
        "encoding": "mapping",
        "key": "t_uint16",
        "label": "mapping(uint16 => bytes)",
        "numberOfBytes": "32",
        "value": "t_bytes_storage"
      },
      "t_mapping(t_uint32,t_bytes32)": {
        "encoding": "mapping",
        "key": "t_uint32",
        "label": "mapping(uint32 => bytes32)",
        "numberOfBytes": "32",
        "value": "t_bytes32"
      },
      "t_mapping(t_uint32,t_mapping(t_uint16,t_bytes_storage))": {
        "encoding": "mapping",
        "key": "t_uint32",
        "label": "mapping(uint32 => mapping(uint16 => bytes))",
        "numberOfBytes": "32",
        "value": "t_mapping(t_uint16,t_bytes_storage)"
      },
      "t_string_storage": {
        "encoding": "bytes",
        "label": "string",
        "numberOfBytes": "32"
      },
      "t_uint16": {
        "encoding": "inplace",
        "label": "uint16",
        "numberOfBytes": "2"
      },
      "t_uint256": {
        "encoding": "inplace",
        "label": "uint256",
        "numberOfBytes": "32"
      },
      "t_uint32": {
        "encoding": "inplace",
        "label": "uint32",
        "numberOfBytes": "4"
      }
    }
  }
}