{
  "address": "0xdE91eb8206c228f4208c34510cf0C61C9302a434",
  "abi": [
    {
      "inputs": [
        {
          "internalType": "address",
          "name": "_prlToken",
          "type": "address"
        },
        {
          "internalType": "address",
          "name": "_endpoint",
          "type": "address"
        },
        {
          "internalType": "address",
          "name": "_owner",
          "type": "address"
        }
      ],
      "stateMutability": "nonpayable",
      "type": "constructor"
    },
    {
      "inputs": [],
      "name": "EnforcedPause",
      "type": "error"
    },
    {
      "inputs": [],
      "name": "ExpectedPause",
      "type": "error"
    },
    {
      "inputs": [],
      "name": "InvalidDelegate",
      "type": "error"
    },
    {
      "inputs": [],
      "name": "InvalidEndpointCall",
      "type": "error"
    },
    {
      "inputs": [
        {
          "internalType": "bytes",
          "name": "options",
          "type": "bytes"
        }
      ],
      "name": "InvalidOptions",
      "type": "error"
    },
    {
      "inputs": [],
      "name": "LzTokenUnavailable",
      "type": "error"
    },
    {
      "inputs": [
        {
          "internalType": "uint32",
          "name": "eid",
          "type": "uint32"
        }
      ],
      "name": "NoPeer",
      "type": "error"
    },
    {
      "inputs": [
        {
          "internalType": "uint256",
          "name": "msgValue",
          "type": "uint256"
        }
      ],
      "name": "NotEnoughNative",
      "type": "error"
    },
    {
      "inputs": [
        {
          "internalType": "address",
          "name": "addr",
          "type": "address"
        }
      ],
      "name": "OnlyEndpoint",
      "type": "error"
    },
    {
      "inputs": [
        {
          "internalType": "uint32",
          "name": "eid",
          "type": "uint32"
        },
        {
          "internalType": "bytes32",
          "name": "sender",
          "type": "bytes32"
        }
      ],
      "name": "OnlyPeer",
      "type": "error"
    },
    {
      "inputs": [],
      "name": "OnlySelf",
      "type": "error"
    },
    {
      "inputs": [
        {
          "internalType": "address",
          "name": "owner",
          "type": "address"
        }
      ],
      "name": "OwnableInvalidOwner",
      "type": "error"
    },
    {
      "inputs": [
        {
          "internalType": "address",
          "name": "account",
          "type": "address"
        }
      ],
      "name": "OwnableUnauthorizedAccount",
      "type": "error"
    },
    {
      "inputs": [
        {
          "internalType": "address",
          "name": "token",
          "type": "address"
        }
      ],
      "name": "SafeERC20FailedOperation",
      "type": "error"
    },
    {
      "inputs": [
        {
          "internalType": "bytes",
          "name": "result",
          "type": "bytes"
        }
      ],
      "name": "SimulationResult",
      "type": "error"
    },
    {
      "inputs": [
        {
          "internalType": "uint256",
          "name": "amount",
          "type": "uint256"
        },
        {
          "internalType": "uint256",
          "name": "minAmount",
          "type": "uint256"
        }
      ],
      "name": "SlippageExceeded",
      "type": "error"
    },
    {
      "anonymous": false,
      "inputs": [
        {
          "components": [
            {
              "internalType": "uint32",
              "name": "eid",
              "type": "uint32"
            },
            {
              "internalType": "uint16",
              "name": "msgType",
              "type": "uint16"
            },
            {
              "internalType": "bytes",
              "name": "options",
              "type": "bytes"
            }
          ],
          "indexed": false,
          "internalType": "struct EnforcedOptionParam[]",
          "name": "_enforcedOptions",
          "type": "tuple[]"
        }
      ],
      "name": "EnforcedOptionSet",
      "type": "event"
    },
    {
      "anonymous": false,
      "inputs": [
        {
          "indexed": false,
          "internalType": "address",
          "name": "inspector",
          "type": "address"
        }
      ],
      "name": "MsgInspectorSet",
      "type": "event"
    },
    {
      "anonymous": false,
      "inputs": [
        {
          "indexed": true,
          "internalType": "bytes32",
          "name": "guid",
          "type": "bytes32"
        },
        {
          "indexed": false,
          "internalType": "uint32",
          "name": "srcEid",
          "type": "uint32"
        },
        {
          "indexed": true,
          "internalType": "address",
          "name": "toAddress",
          "type": "address"
        },
        {
          "indexed": false,
          "internalType": "uint256",
          "name": "amountReceived",
          "type": "uint256"
        }
      ],
      "name": "OFTReceived",
      "type": "event"
    },
    {
      "anonymous": false,
      "inputs": [
        {
          "indexed": true,
          "internalType": "bytes32",
          "name": "guid",
          "type": "bytes32"
        },
        {
          "indexed": false,
          "internalType": "uint32",
          "name": "dstEid",
          "type": "uint32"
        },
        {
          "indexed": true,
          "internalType": "address",
          "name": "fromAddress",
          "type": "address"
        },
        {
          "indexed": false,
          "internalType": "uint256",
          "name": "amountSent",
          "type": "uint256"
        },
        {
          "indexed": false,
          "internalType": "uint256",
          "name": "amountReceived",
          "type": "uint256"
        }
      ],
      "name": "OFTSent",
      "type": "event"
    },
    {
      "anonymous": false,
      "inputs": [
        {
          "indexed": true,
          "internalType": "address",
          "name": "previousOwner",
          "type": "address"
        },
        {
          "indexed": true,
          "internalType": "address",
          "name": "newOwner",
          "type": "address"
        }
      ],
      "name": "OwnershipTransferred",
      "type": "event"
    },
    {
      "anonymous": false,
      "inputs": [
        {
          "indexed": false,
          "internalType": "address",
          "name": "account",
          "type": "address"
        }
      ],
      "name": "Paused",
      "type": "event"
    },
    {
      "anonymous": false,
      "inputs": [
        {
          "indexed": false,
          "internalType": "uint32",
          "name": "eid",
          "type": "uint32"
        },
        {
          "indexed": false,
          "internalType": "bytes32",
          "name": "peer",
          "type": "bytes32"
        }
      ],
      "name": "PeerSet",
      "type": "event"
    },
    {
      "anonymous": false,
      "inputs": [
        {
          "indexed": false,
          "internalType": "address",
          "name": "preCrimeAddress",
          "type": "address"
        }
      ],
      "name": "PreCrimeSet",
      "type": "event"
    },
    {
      "anonymous": false,
      "inputs": [
        {
          "indexed": false,
          "internalType": "address",
          "name": "account",
          "type": "address"
        }
      ],
      "name": "Unpaused",
      "type": "event"
    },
    {
      "inputs": [],
      "name": "SEND",
      "outputs": [
        {
          "internalType": "uint16",
          "name": "",
          "type": "uint16"
        }
      ],
      "stateMutability": "view",
      "type": "function"
    },
    {
      "inputs": [],
      "name": "SEND_AND_CALL",
      "outputs": [
        {
          "internalType": "uint16",
          "name": "",
          "type": "uint16"
        }
      ],
      "stateMutability": "view",
      "type": "function"
    },
    {
      "inputs": [
        {
          "components": [
            {
              "internalType": "uint32",
              "name": "srcEid",
              "type": "uint32"
            },
            {
              "internalType": "bytes32",
              "name": "sender",
              "type": "bytes32"
            },
            {
              "internalType": "uint64",
              "name": "nonce",
              "type": "uint64"
            }
          ],
          "internalType": "struct Origin",
          "name": "origin",
          "type": "tuple"
        }
      ],
      "name": "allowInitializePath",
      "outputs": [
        {
          "internalType": "bool",
          "name": "",
          "type": "bool"
        }
      ],
      "stateMutability": "view",
      "type": "function"
    },
    {
      "inputs": [],
      "name": "approvalRequired",
      "outputs": [
        {
          "internalType": "bool",
          "name": "",
          "type": "bool"
        }
      ],
      "stateMutability": "pure",
      "type": "function"
    },
    {
      "inputs": [
        {
          "internalType": "uint32",
          "name": "_eid",
          "type": "uint32"
        },
        {
          "internalType": "uint16",
          "name": "_msgType",
          "type": "uint16"
        },
        {
          "internalType": "bytes",
          "name": "_extraOptions",
          "type": "bytes"
        }
      ],
      "name": "combineOptions",
      "outputs": [
        {
          "internalType": "bytes",
          "name": "",
          "type": "bytes"
        }
      ],
      "stateMutability": "view",
      "type": "function"
    },
    {
      "inputs": [],
      "name": "endpoint",
      "outputs": [
        {
          "internalType": "contract ILayerZeroEndpointV2",
          "name": "",
          "type": "address"
        }
      ],
      "stateMutability": "view",
      "type": "function"
    },
    {
      "inputs": [
        {
          "internalType": "uint32",
          "name": "eid",
          "type": "uint32"
        },
        {
          "internalType": "uint16",
          "name": "msgType",
          "type": "uint16"
        }
      ],
      "name": "enforcedOptions",
      "outputs": [
        {
          "internalType": "bytes",
          "name": "enforcedOption",
          "type": "bytes"
        }
      ],
      "stateMutability": "view",
      "type": "function"
    },
    {
      "inputs": [
        {
          "components": [
            {
              "internalType": "uint32",
              "name": "srcEid",
              "type": "uint32"
            },
            {
              "internalType": "bytes32",
              "name": "sender",
              "type": "bytes32"
            },
            {
              "internalType": "uint64",
              "name": "nonce",
              "type": "uint64"
            }
          ],
          "internalType": "struct Origin",
          "name": "",
          "type": "tuple"
        },
        {
          "internalType": "bytes",
          "name": "",
          "type": "bytes"
        },
        {
          "internalType": "address",
          "name": "_sender",
          "type": "address"
        }
      ],
      "name": "isComposeMsgSender",
      "outputs": [
        {
          "internalType": "bool",
          "name": "",
          "type": "bool"
        }
      ],
      "stateMutability": "view",
      "type": "function"
    },
    {
      "inputs": [
        {
          "internalType": "uint32",
          "name": "_eid",
          "type": "uint32"
        },
        {
          "internalType": "bytes32",
          "name": "_peer",
          "type": "bytes32"
        }
      ],
      "name": "isPeer",
      "outputs": [
        {
          "internalType": "bool",
          "name": "",
          "type": "bool"
        }
      ],
      "stateMutability": "view",
      "type": "function"
    },
    {
      "inputs": [
        {
          "components": [
            {
              "internalType": "uint32",
              "name": "srcEid",
              "type": "uint32"
            },
            {
              "internalType": "bytes32",
              "name": "sender",
              "type": "bytes32"
            },
            {
              "internalType": "uint64",
              "name": "nonce",
              "type": "uint64"
            }
          ],
          "internalType": "struct Origin",
          "name": "_origin",
          "type": "tuple"
        },
        {
          "internalType": "bytes32",
          "name": "_guid",
          "type": "bytes32"
        },
        {
          "internalType": "bytes",
          "name": "_message",
          "type": "bytes"
        },
        {
          "internalType": "address",
          "name": "_executor",
          "type": "address"
        },
        {
          "internalType": "bytes",
          "name": "_extraData",
          "type": "bytes"
        }
      ],
      "name": "lzReceive",
      "outputs": [],
      "stateMutability": "payable",
      "type": "function"
    },
    {
      "inputs": [
        {
          "components": [
            {
              "components": [
                {
                  "internalType": "uint32",
                  "name": "srcEid",
                  "type": "uint32"
                },
                {
                  "internalType": "bytes32",
                  "name": "sender",
                  "type": "bytes32"
                },
                {
                  "internalType": "uint64",
                  "name": "nonce",
                  "type": "uint64"
                }
              ],
              "internalType": "struct Origin",
              "name": "origin",
              "type": "tuple"
            },
            {
              "internalType": "uint32",
              "name": "dstEid",
              "type": "uint32"
            },
            {
              "internalType": "address",
              "name": "receiver",
              "type": "address"
            },
            {
              "internalType": "bytes32",
              "name": "guid",
              "type": "bytes32"
            },
            {
              "internalType": "uint256",
              "name": "value",
              "type": "uint256"
            },
            {
              "internalType": "address",
              "name": "executor",
              "type": "address"
            },
            {
              "internalType": "bytes",
              "name": "message",
              "type": "bytes"
            },
            {
              "internalType": "bytes",
              "name": "extraData",
              "type": "bytes"
            }
          ],
          "internalType": "struct InboundPacket[]",
          "name": "_packets",
          "type": "tuple[]"
        }
      ],
      "name": "lzReceiveAndRevert",
      "outputs": [],
      "stateMutability": "payable",
      "type": "function"
    },
    {
      "inputs": [
        {
          "components": [
            {
              "internalType": "uint32",
              "name": "srcEid",
              "type": "uint32"
            },
            {
              "internalType": "bytes32",
              "name": "sender",
              "type": "bytes32"
            },
            {
              "internalType": "uint64",
              "name": "nonce",
              "type": "uint64"
            }
          ],
          "internalType": "struct Origin",
          "name": "_origin",
          "type": "tuple"
        },
        {
          "internalType": "bytes32",
          "name": "_guid",
          "type": "bytes32"
        },
        {
          "internalType": "bytes",
          "name": "_message",
          "type": "bytes"
        },
        {
          "internalType": "address",
          "name": "_executor",
          "type": "address"
        },
        {
          "internalType": "bytes",
          "name": "_extraData",
          "type": "bytes"
        }
      ],
      "name": "lzReceiveSimulate",
      "outputs": [],
      "stateMutability": "payable",
      "type": "function"
    },
    {
      "inputs": [],
      "name": "msgInspector",
      "outputs": [
        {
          "internalType": "address",
          "name": "",
          "type": "address"
        }
      ],
      "stateMutability": "view",
      "type": "function"
    },
    {
      "inputs": [
        {
          "internalType": "uint32",
          "name": "",
          "type": "uint32"
        },
        {
          "internalType": "bytes32",
          "name": "",
          "type": "bytes32"
        }
      ],
      "name": "nextNonce",
      "outputs": [
        {
          "internalType": "uint64",
          "name": "nonce",
          "type": "uint64"
        }
      ],
      "stateMutability": "view",
      "type": "function"
    },
    {
      "inputs": [],
      "name": "oApp",
      "outputs": [
        {
          "internalType": "address",
          "name": "",
          "type": "address"
        }
      ],
      "stateMutability": "view",
      "type": "function"
    },
    {
      "inputs": [],
      "name": "oAppVersion",
      "outputs": [
        {
          "internalType": "uint64",
          "name": "senderVersion",
          "type": "uint64"
        },
        {
          "internalType": "uint64",
          "name": "receiverVersion",
          "type": "uint64"
        }
      ],
      "stateMutability": "pure",
      "type": "function"
    },
    {
      "inputs": [],
      "name": "oftVersion",
      "outputs": [
        {
          "internalType": "bytes4",
          "name": "interfaceId",
          "type": "bytes4"
        },
        {
          "internalType": "uint64",
          "name": "version",
          "type": "uint64"
        }
      ],
      "stateMutability": "pure",
      "type": "function"
    },
    {
      "inputs": [],
      "name": "owner",
      "outputs": [
        {
          "internalType": "address",
          "name": "",
          "type": "address"
        }
      ],
      "stateMutability": "view",
      "type": "function"
    },
    {
      "inputs": [],
      "name": "pause",
      "outputs": [],
      "stateMutability": "nonpayable",
      "type": "function"
    },
    {
      "inputs": [],
      "name": "paused",
      "outputs": [
        {
          "internalType": "bool",
          "name": "",
          "type": "bool"
        }
      ],
      "stateMutability": "view",
      "type": "function"
    },
    {
      "inputs": [
        {
          "internalType": "uint32",
          "name": "eid",
          "type": "uint32"
        }
      ],
      "name": "peers",
      "outputs": [
        {
          "internalType": "bytes32",
          "name": "peer",
          "type": "bytes32"
        }
      ],
      "stateMutability": "view",
      "type": "function"
    },
    {
      "inputs": [],
      "name": "preCrime",
      "outputs": [
        {
          "internalType": "address",
          "name": "",
          "type": "address"
        }
      ],
      "stateMutability": "view",
      "type": "function"
    },
    {
      "inputs": [
        {
          "components": [
            {
              "internalType": "uint32",
              "name": "dstEid",
              "type": "uint32"
            },
            {
              "internalType": "bytes32",
              "name": "to",
              "type": "bytes32"
            },
            {
              "internalType": "uint256",
              "name": "amount",
              "type": "uint256"
            },
            {
              "internalType": "uint256",
              "name": "minAmount",
              "type": "uint256"
            },
            {
              "internalType": "bytes",
              "name": "extraOptions",
              "type": "bytes"
            },
            {
              "internalType": "bytes",
              "name": "composeMsg",
              "type": "bytes"
            },
            {
              "internalType": "bytes",
              "name": "oftCmd",
              "type": "bytes"
            }
          ],
          "internalType": "struct SendParam",
          "name": "_sendParam",
          "type": "tuple"
        }
      ],
      "name": "quoteOFT",
      "outputs": [
        {
          "components": [
            {
              "internalType": "uint256",
              "name": "minAmount",
              "type": "uint256"
            },
            {
              "internalType": "uint256",
              "name": "maxAmount",
              "type": "uint256"
            }
          ],
          "internalType": "struct OFTLimit",
          "name": "oftLimit",
          "type": "tuple"
        },
        {
          "components": [
            {
              "internalType": "int256",
              "name": "feeAmount",
              "type": "int256"
            },
            {
              "internalType": "string",
              "name": "description",
              "type": "string"
            }
          ],
          "internalType": "struct OFTFeeDetail[]",
          "name": "oftFeeDetails",
          "type": "tuple[]"
        },
        {
          "components": [
            {
              "internalType": "uint256",
              "name": "amountSent",
              "type": "uint256"
            },
            {
              "internalType": "uint256",
              "name": "amountReceived",
              "type": "uint256"
            }
          ],
          "internalType": "struct OFTReceipt",
          "name": "oftReceipt",
          "type": "tuple"
        }
      ],
      "stateMutability": "view",
      "type": "function"
    },
    {
      "inputs": [
        {
          "components": [
            {
              "internalType": "uint32",
              "name": "dstEid",
              "type": "uint32"
            },
            {
              "internalType": "bytes32",
              "name": "to",
              "type": "bytes32"
            },
            {
              "internalType": "uint256",
              "name": "amount",
              "type": "uint256"
            },
            {
              "internalType": "uint256",
              "name": "minAmount",
              "type": "uint256"
            },
            {
              "internalType": "bytes",
              "name": "extraOptions",
              "type": "bytes"
            },
            {
              "internalType": "bytes",
              "name": "composeMsg",
              "type": "bytes"
            },
            {
              "internalType": "bytes",
              "name": "oftCmd",
              "type": "bytes"
            }
          ],
          "internalType": "struct SendParam",
          "name": "_sendParam",
          "type": "tuple"
        },
        {
          "internalType": "bool",
          "name": "_payInLzToken",
          "type": "bool"
        }
      ],
      "name": "quoteSend",
      "outputs": [
        {
          "components": [
            {
              "internalType": "uint256",
              "name": "nativeFee",
              "type": "uint256"
            },
            {
              "internalType": "uint256",
              "name": "lzTokenFee",
              "type": "uint256"
            }
          ],
          "internalType": "struct MessagingFee",
          "name": "msgFee",
          "type": "tuple"
        }
      ],
      "stateMutability": "view",
      "type": "function"
    },
    {
      "inputs": [],
      "name": "renounceOwnership",
      "outputs": [],
      "stateMutability": "nonpayable",
      "type": "function"
    },
    {
      "inputs": [
        {
          "components": [
            {
              "internalType": "uint32",
              "name": "dstEid",
              "type": "uint32"
            },
            {
              "internalType": "bytes32",
              "name": "to",
              "type": "bytes32"
            },
            {
              "internalType": "uint256",
              "name": "amount",
              "type": "uint256"
            },
            {
              "internalType": "uint256",
              "name": "minAmount",
              "type": "uint256"
            },
            {
              "internalType": "bytes",
              "name": "extraOptions",
              "type": "bytes"
            },
            {
              "internalType": "bytes",
              "name": "composeMsg",
              "type": "bytes"
            },
            {
              "internalType": "bytes",
              "name": "oftCmd",
              "type": "bytes"
            }
          ],
          "internalType": "struct SendParam",
          "name": "_sendParam",
          "type": "tuple"
        },
        {
          "components": [
            {
              "internalType": "uint256",
              "name": "nativeFee",
              "type": "uint256"
            },
            {
              "internalType": "uint256",
              "name": "lzTokenFee",
              "type": "uint256"
            }
          ],
          "internalType": "struct MessagingFee",
          "name": "_fee",
          "type": "tuple"
        },
        {
          "internalType": "address",
          "name": "_refundAddress",
          "type": "address"
        }
      ],
      "name": "send",
      "outputs": [
        {
          "components": [
            {
              "internalType": "bytes32",
              "name": "guid",
              "type": "bytes32"
            },
            {
              "internalType": "uint64",
              "name": "nonce",
              "type": "uint64"
            },
            {
              "components": [
                {
                  "internalType": "uint256",
                  "name": "nativeFee",
                  "type": "uint256"
                },
                {
                  "internalType": "uint256",
                  "name": "lzTokenFee",
                  "type": "uint256"
                }
              ],
              "internalType": "struct MessagingFee",
              "name": "fee",
              "type": "tuple"
            }
          ],
          "internalType": "struct MessagingReceipt",
          "name": "msgReceipt",
          "type": "tuple"
        },
        {
          "components": [
            {
              "internalType": "uint256",
              "name": "amountSent",
              "type": "uint256"
            },
            {
              "internalType": "uint256",
              "name": "amountReceived",
              "type": "uint256"
            }
          ],
          "internalType": "struct OFTReceipt",
          "name": "oftReceipt",
          "type": "tuple"
        }
      ],
      "stateMutability": "payable",
      "type": "function"
    },
    {
      "inputs": [
        {
          "components": [
            {
              "internalType": "uint32",
              "name": "dstEid",
              "type": "uint32"
            },
            {
              "internalType": "bytes32",
              "name": "to",
              "type": "bytes32"
            },
            {
              "internalType": "uint256",
              "name": "amount",
              "type": "uint256"
            },
            {
              "internalType": "uint256",
              "name": "minAmount",
              "type": "uint256"
            },
            {
              "internalType": "bytes",
              "name": "extraOptions",
              "type": "bytes"
            },
            {
              "internalType": "bytes",
              "name": "composeMsg",
              "type": "bytes"
            },
            {
              "internalType": "bytes",
              "name": "oftCmd",
              "type": "bytes"
            }
          ],
          "internalType": "struct SendParam",
          "name": "_sendParam",
          "type": "tuple"
        },
        {
          "components": [
            {
              "internalType": "uint256",
              "name": "nativeFee",
              "type": "uint256"
            },
            {
              "internalType": "uint256",
              "name": "lzTokenFee",
              "type": "uint256"
            }
          ],
          "internalType": "struct MessagingFee",
          "name": "_fee",
          "type": "tuple"
        },
        {
          "internalType": "address",
          "name": "_refundAddress",
          "type": "address"
        },
        {
          "internalType": "uint256",
          "name": "_deadline",
          "type": "uint256"
        },
        {
          "internalType": "uint8",
          "name": "_v",
          "type": "uint8"
        },
        {
          "internalType": "bytes32",
          "name": "_r",
          "type": "bytes32"
        },
        {
          "internalType": "bytes32",
          "name": "_s",
          "type": "bytes32"
        }
      ],
      "name": "sendWithPermit",
      "outputs": [
        {
          "components": [
            {
              "internalType": "bytes32",
              "name": "guid",
              "type": "bytes32"
            },
            {
              "internalType": "uint64",
              "name": "nonce",
              "type": "uint64"
            },
            {
              "components": [
                {
                  "internalType": "uint256",
                  "name": "nativeFee",
                  "type": "uint256"
                },
                {
                  "internalType": "uint256",
                  "name": "lzTokenFee",
                  "type": "uint256"
                }
              ],
              "internalType": "struct MessagingFee",
              "name": "fee",
              "type": "tuple"
            }
          ],
          "internalType": "struct MessagingReceipt",
          "name": "msgReceipt",
          "type": "tuple"
        },
        {
          "components": [
            {
              "internalType": "uint256",
              "name": "amountSent",
              "type": "uint256"
            },
            {
              "internalType": "uint256",
              "name": "amountReceived",
              "type": "uint256"
            }
          ],
          "internalType": "struct OFTReceipt",
          "name": "oftReceipt",
          "type": "tuple"
        }
      ],
      "stateMutability": "payable",
      "type": "function"
    },
    {
      "inputs": [
        {
          "internalType": "address",
          "name": "_delegate",
          "type": "address"
        }
      ],
      "name": "setDelegate",
      "outputs": [],
      "stateMutability": "nonpayable",
      "type": "function"
    },
    {
      "inputs": [
        {
          "components": [
            {
              "internalType": "uint32",
              "name": "eid",
              "type": "uint32"
            },
            {
              "internalType": "uint16",
              "name": "msgType",
              "type": "uint16"
            },
            {
              "internalType": "bytes",
              "name": "options",
              "type": "bytes"
            }
          ],
          "internalType": "struct EnforcedOptionParam[]",
          "name": "_enforcedOptions",
          "type": "tuple[]"
        }
      ],
      "name": "setEnforcedOptions",
      "outputs": [],
      "stateMutability": "nonpayable",
      "type": "function"
    },
    {
      "inputs": [
        {
          "internalType": "address",
          "name": "_msgInspector",
          "type": "address"
        }
      ],
      "name": "setMsgInspector",
      "outputs": [],
      "stateMutability": "nonpayable",
      "type": "function"
    },
    {
      "inputs": [
        {
          "internalType": "uint32",
          "name": "_eid",
          "type": "uint32"
        },
        {
          "internalType": "bytes32",
          "name": "_peer",
          "type": "bytes32"
        }
      ],
      "name": "setPeer",
      "outputs": [],
      "stateMutability": "nonpayable",
      "type": "function"
    },
    {
      "inputs": [
        {
          "internalType": "address",
          "name": "_preCrime",
          "type": "address"
        }
      ],
      "name": "setPreCrime",
      "outputs": [],
      "stateMutability": "nonpayable",
      "type": "function"
    },
    {
      "inputs": [],
      "name": "token",
      "outputs": [
        {
          "internalType": "address",
          "name": "",
          "type": "address"
        }
      ],
      "stateMutability": "view",
      "type": "function"
    },
    {
      "inputs": [
        {
          "internalType": "address",
          "name": "newOwner",
          "type": "address"
        }
      ],
      "name": "transferOwnership",
      "outputs": [],
      "stateMutability": "nonpayable",
      "type": "function"
    },
    {
      "inputs": [],
      "name": "unpause",
      "outputs": [],
      "stateMutability": "nonpayable",
      "type": "function"
    }
  ],
  "transactionHash": "0x6646fb48292653430e9b03fdb84aa9998b61dfa19c448d7935c829aeba1c2949",
  "args": [
    "0x6c0aeceeDc55c9d55d8B99216a670D85330941c3",
    "0x1a44076050125825900e736c501f859c50fE728c",
    "0x66CcEC236bbcE5f1bBd1b2fC0a4014e57A55ad02"
  ],
  "numDeployments": 1,
  "solcInputHash": "f79a8b76a6150c66749bcbcc3be229f6",
  "bytecode": "0x60c060405234801561001057600080fd5b5060405161305538038061305583398101604081905261002f91610195565b828282818181818181806001600160a01b03811661006757604051631e4fbdf760e01b81526000600482015260240160405180910390fd5b61007081610129565b506001600160a01b03808316608052811661009e57604051632d618d8160e21b815260040160405180910390fd5b60805160405163ca5eb5e160e01b81526001600160a01b0383811660048301529091169063ca5eb5e190602401600060405180830381600087803b1580156100e557600080fd5b505af11580156100f9573d6000803e3d6000fd5b5050506001600160a01b0390991660a05250506004805460ff60a01b19169055506101d898505050505050505050565b600080546001600160a01b038381166001600160a01b0319831681178455604051919092169283917f8be0079c531659141344cd1fd0a4f28419497f9722a3daafe3b4186f6b6457e09190a35050565b80516001600160a01b038116811461019057600080fd5b919050565b6000806000606084860312156101aa57600080fd5b6101b384610179565b92506101c160208501610179565b91506101cf60408501610179565b90509250925092565b60805160a051612e12610243600039600081816106d601528181610a8e015281816119890152611afd015260008181610478015281816107e801528181610f89015281816112610152818161151901528181611b6101528181611d360152611e080152612e126000f3fe6080604052600436106102345760003560e01c8063715018a611610138578063bc70b354116100b0578063d045a0dc1161007f578063f2fde38b11610064578063f2fde38b146106a7578063fc0c546a146106c7578063ff7bd03d146106fa57600080fd5b8063d045a0dc14610674578063d42438851461068757600080fd5b8063bc70b3541461060e578063bd815db01461062e578063c7c7f5b314610641578063ca5eb5e11461065457600080fd5b80638da5cb5b11610107578063b731ea0a116100ec578063b731ea0a14610593578063b98bd070146105b3578063bb0b6a53146105d357600080fd5b80638da5cb5b146105615780639f68b9641461057f57600080fd5b8063715018a6146104db5780637d25a05e146104f057806382413eac1461052c5780638456cb591461054c57600080fd5b80633b6f743b116101cb5780635a0dfe4d1161019a5780635e280f111161017f5780635e280f1114610466578063656ef9be1461049a5780636fc1b31e146104bb57600080fd5b80635a0dfe4d146104005780635c975abb1461044757600080fd5b80633b6f743b1461037e5780633f4ba83a146103ab57806352ae2879146103c05780635535d461146103d357600080fd5b8063156a0d0f11610207578063156a0d0f146102e657806317442b70146103275780631f5e1334146103495780633400288b1461035e57600080fd5b80630d35b41514610239578063111ecdad1461027157806313137d65146102a9578063134d4f25146102be575b600080fd5b34801561024557600080fd5b50610259610254366004611f17565b61071a565b60405161026893929190611f9c565b60405180910390f35b34801561027d57600080fd5b50600454610291906001600160a01b031681565b6040516001600160a01b039091168152602001610268565b6102bc6102b73660046120a5565b6107e6565b005b3480156102ca57600080fd5b506102d3600281565b60405161ffff9091168152602001610268565b3480156102f257600080fd5b50604080517f8793d59c0000000000000000000000000000000000000000000000000000000081526001602082015201610268565b34801561033357600080fd5b5060408051600181526002602082015201610268565b34801561035557600080fd5b506102d3600181565b34801561036a57600080fd5b506102bc61037936600461215e565b6108d8565b34801561038a57600080fd5b5061039e610399366004612196565b6108ee565b60405161026891906121e8565b3480156103b757600080fd5b506102bc610957565b3480156103cc57600080fd5b5030610291565b3480156103df57600080fd5b506103f36103ee366004612211565b610969565b6040516102689190612244565b34801561040c57600080fd5b5061043761041b36600461215e565b63ffffffff919091166000908152600160205260409020541490565b6040519015158152602001610268565b34801561045357600080fd5b50600454600160a01b900460ff16610437565b34801561047257600080fd5b506102917f000000000000000000000000000000000000000000000000000000000000000081565b6104ad6104a8366004612269565b610a0e565b604051610268929190612302565b3480156104c757600080fd5b506102bc6104d6366004612355565b610b07565b3480156104e757600080fd5b506102bc610b71565b3480156104fc57600080fd5b5061051361050b36600461215e565b600092915050565b60405167ffffffffffffffff9091168152602001610268565b34801561053857600080fd5b50610437610547366004612372565b610b83565b34801561055857600080fd5b506102bc610b98565b34801561056d57600080fd5b506000546001600160a01b0316610291565b34801561058b57600080fd5b506001610437565b34801561059f57600080fd5b50600254610291906001600160a01b031681565b3480156105bf57600080fd5b506102bc6105ce36600461241e565b610ba8565b3480156105df57600080fd5b506106006105ee366004612460565b60016020526000908152604090205481565b604051908152602001610268565b34801561061a57600080fd5b506103f361062936600461247b565b610bc2565b6102bc61063c36600461241e565b610d6a565b6104ad61064f3660046124dc565b610f0d565b34801561066057600080fd5b506102bc61066f366004612355565b610f49565b6102bc6106823660046120a5565b610fe8565b34801561069357600080fd5b506102bc6106a2366004612355565b611030565b3480156106b357600080fd5b506102bc6106c2366004612355565b611093565b3480156106d357600080fd5b507f0000000000000000000000000000000000000000000000000000000000000000610291565b34801561070657600080fd5b5061043761071536600461253f565b6110ea565b6040805180820190915260008082526020820152606061074d604051806040016040528060008152602001600081525090565b60408051808201825260008082526000196020808401829052845183815290810190945291955091826107a3565b60408051808201909152600081526060602082015281526020019060019003908161077b5790505b5093506000806107c8604089013560608a01356107c360208c018c612460565b611120565b60408051808201909152918252602082015296989597505050505050565b7f00000000000000000000000000000000000000000000000000000000000000006001600160a01b0316331461084f576040517f91ac5e4f0000000000000000000000000000000000000000000000000000000081523360048201526024015b60405180910390fd5b6020870180359061086990610864908a612460565b611166565b146108c05761087b6020880188612460565b6040517fc26bebcc00000000000000000000000000000000000000000000000000000000815263ffffffff909116600482015260208801356024820152604401610846565b6108cf878787878787876111bb565b50505050505050565b6108e0611333565b6108ea8282611379565b5050565b6040805180820190915260008082526020820152600061091e604085013560608601356107c36020880188612460565b91505060008061092e86846113ce565b909250905061094b6109436020880188612460565b838388611503565b93505050505b92915050565b61095f611333565b6109676115e4565b565b60036020908152600092835260408084209091529082529020805461098d90612571565b80601f01602080910402602001604051908101604052809291908181526020018280546109b990612571565b8015610a065780601f106109db57610100808354040283529160200191610a06565b820191906000526020600020905b8154815290600101906020018083116109e957829003601f168201915b505050505081565b610a16611eb7565b6040805180820190915260008082526020820152610a32611639565b604080517fd505accf000000000000000000000000000000000000000000000000000000008152336004820152306024820152908a013560448201526064810187905260ff8616608482015260a4810185905260c481018490527f00000000000000000000000000000000000000000000000000000000000000006001600160a01b03169063d505accf9060e401600060405180830381600087803b158015610ada57600080fd5b505af1925050508015610aeb575060015b50610af789898961167d565b9150915097509795505050505050565b610b0f611333565b6004805473ffffffffffffffffffffffffffffffffffffffff19166001600160a01b0383169081179091556040519081527ff0be4f1e87349231d80c36b33f9e8639658eeaf474014dee15a3e6a4d4414197906020015b60405180910390a150565b610b79611333565b6109676000611778565b6001600160a01b03811630145b949350505050565b610ba0611333565b6109676117d5565b610bb0611333565b6108ea610bbd828461264a565b611818565b63ffffffff8416600090815260036020908152604080832061ffff87168452909152812080546060929190610bf690612571565b80601f0160208091040260200160405190810160405280929190818152602001828054610c2290612571565b8015610c6f5780601f10610c4457610100808354040283529160200191610c6f565b820191906000526020600020905b815481529060010190602001808311610c5257829003601f168201915b505050505090508051600003610cbf5783838080601f016020809104026020016040519081016040528093929190818152602001838380828437600092019190915250929450610b909350505050565b6000839003610ccf579050610b90565b60028310610d4d57610d1684848080601f01602080910402602001604051908101604052809392919081815260200183838082843760009201919091525061191f92505050565b80610d248460028188612760565b604051602001610d369392919061278a565b604051602081830303815290604052915050610b90565b8383604051639a6d49cd60e01b81526004016108469291906127db565b60005b81811015610e735736838383818110610d8857610d886127ef565b9050602002810190610d9a9190612805565b9050610dcd610dac6020830183612460565b602083013563ffffffff919091166000908152600160205260409020541490565b610dd75750610e6b565b3063d045a0dc60c08301358360a0810135610df6610100830183612826565b610e07610100890160e08a01612355565b610e156101208a018a612826565b6040518963ffffffff1660e01b8152600401610e379796959493929190612883565b6000604051808303818588803b158015610e5057600080fd5b505af1158015610e64573d6000803e3d6000fd5b5050505050505b600101610d6d565b50336001600160a01b0316638e9e70996040518163ffffffff1660e01b8152600401600060405180830381865afa158015610eb2573d6000803e3d6000fd5b505050506040513d6000823e601f3d908101601f19168201604052610eda919081019061290a565b6040517f8351eea70000000000000000000000000000000000000000000000000000000081526004016108469190612244565b610f15611eb7565b6040805180820190915260008082526020820152610f31611639565b610f3c85858561167d565b915091505b935093915050565b610f51611333565b6040517fca5eb5e10000000000000000000000000000000000000000000000000000000081526001600160a01b0382811660048301527f0000000000000000000000000000000000000000000000000000000000000000169063ca5eb5e190602401600060405180830381600087803b158015610fcd57600080fd5b505af1158015610fe1573d6000803e3d6000fd5b5050505050565b333014611021576040517f14d4a4e800000000000000000000000000000000000000000000000000000000815260040160405180910390fd5b6108cf878787878787876108c0565b611038611333565b6002805473ffffffffffffffffffffffffffffffffffffffff19166001600160a01b0383169081179091556040519081527fd48d879cef83a1c0bdda516f27b13ddb1b3f8bbac1c9e1511bb2a659c242776090602001610b66565b61109b611333565b6001600160a01b0381166110de576040517f1e4fbdf700000000000000000000000000000000000000000000000000000000815260006004820152602401610846565b6110e781611778565b50565b60006020820180359060019083906111029086612460565b63ffffffff1681526020810191909152604001600020541492915050565b828083811015610f41576040517f71c4efed0000000000000000000000000000000000000000000000000000000081526004810182905260248101859052604401610846565b63ffffffff811660009081526001602052604081205480610951576040517ff6ff4fb700000000000000000000000000000000000000000000000000000000815263ffffffff84166004820152602401610846565b60006111cd6111ca878761194b565b90565b905060006111f1826111df898961196a565b6111ec60208d018d612460565b61197a565b905060408611156112d157600061122e61121160608c0160408d01612978565b61121e60208d018d612460565b846112298c8c6119b8565b611a03565b6040517f7cb590120000000000000000000000000000000000000000000000000000000081529091506001600160a01b037f00000000000000000000000000000000000000000000000000000000000000001690637cb590129061129d9086908d906000908790600401612995565b600060405180830381600087803b1580156112b757600080fd5b505af11580156112cb573d6000803e3d6000fd5b50505050505b6001600160a01b038216887fefed6d3500546b29533b128a29e3a94d70788727f0507505ac12eaf2e578fd9c61130a60208d018d612460565b6040805163ffffffff9092168252602082018690520160405180910390a3505050505050505050565b6000546001600160a01b03163314610967576040517f118cdaa7000000000000000000000000000000000000000000000000000000008152336004820152602401610846565b63ffffffff8216600081815260016020908152604091829020849055815192835282018390527f238399d427b947898edb290f5ff0f9109849b1c3ba196a42e35f00c50a54b98b910160405180910390a15050565b60608060006114236020860135856113e960a0890189612826565b8080601f016020809104026020016040519081016040528093929190818152602001838380828437600092019190915250611a3592505050565b9093509050600081611436576001611439565b60025b905061145961144b6020880188612460565b8261062960808a018a612826565b6004549093506001600160a01b0316156114fa57600480546040517f043a78eb0000000000000000000000000000000000000000000000000000000081526001600160a01b039091169163043a78eb916114b79188918891016129d1565b602060405180830381865afa1580156114d4573d6000803e3d6000fd5b505050506040513d601f19601f820116820180604052508101906114f891906129f6565b505b50509250929050565b60408051808201909152600080825260208201527f00000000000000000000000000000000000000000000000000000000000000006001600160a01b031663ddc28c586040518060a001604052808863ffffffff16815260200161156689611166565b8152602001878152602001868152602001851515815250306040518363ffffffff1660e01b815260040161159b929190612a13565b6040805180830381865afa1580156115b7573d6000803e3d6000fd5b505050506040513d601f19601f820116820180604052508101906115db9190612abc565b95945050505050565b6115ec611a9a565b6004805460ff60a01b191690557f5db9ee0a495bf2e6ff9c91a7834c1ba4fdd244a5e8aa4e537bd38aeae4b073aa335b6040516001600160a01b03909116815260200160405180910390a1565b600454600160a01b900460ff1615610967576040517fd93c066500000000000000000000000000000000000000000000000000000000815260040160405180910390fd5b611685611eb7565b60408051808201909152600080825260208201526000806116bc33604089013560608a01356116b760208c018c612460565b611add565b915091506000806116cd89846113ce565b90925090506116f96116e260208b018b612460565b83836116f3368d90038d018d612ad8565b8b611b2e565b60408051808201909152858152602080820186905282519298509096503391907f85496b760a4b7f8d66384b9df21b381f5d1b1e79f229a47aaf4c232edc2fe59a90611747908d018d612460565b6040805163ffffffff909216825260208201899052810187905260600160405180910390a350505050935093915050565b600080546001600160a01b0383811673ffffffffffffffffffffffffffffffffffffffff19831681178455604051919092169283917f8be0079c531659141344cd1fd0a4f28419497f9722a3daafe3b4186f6b6457e09190a35050565b6117dd611639565b6004805460ff60a01b1916600160a01b1790557f62e78cea01bee320cd4e420270b5ea74000d11b0c9f74754ebdbfc544b05a25861161c3390565b60005b81518110156118ef5761184a828281518110611839576118396127ef565b60200260200101516040015161191f565b81818151811061185c5761185c6127ef565b6020026020010151604001516003600084848151811061187e5761187e6127ef565b60200260200101516000015163ffffffff1663ffffffff16815260200190815260200160002060008484815181106118b8576118b86127ef565b60200260200101516020015161ffff1661ffff16815260200190815260200160002090816118e69190612b5a565b5060010161181b565b507fbe4864a8e820971c0247f5992e2da559595f7bf076a21cb5928d443d2a13b67481604051610b669190612c1a565b600281015161ffff81166003146108ea5781604051639a6d49cd60e01b81526004016108469190612244565b600061195a6020828486612760565b61196391612ca5565b9392505050565b600061195a604060208486612760565b60006119b06001600160a01b037f0000000000000000000000000000000000000000000000000000000000000000168585611c39565b509092915050565b60606119c78260408186612760565b8080601f016020809104026020016040519081016040528093929190818152602001838380828437600092019190915250929695505050505050565b606084848484604051602001611a1c9493929190612cc3565b6040516020818303038152906040529050949350505050565b8051606090151580611a69576040805160208101879052908101859052606001604051602081830303815290604052611a90565b84843385604051602001611a809493929190612d41565b6040516020818303038152906040525b9150935093915050565b600454600160a01b900460ff16610967576040517f8dfc202b00000000000000000000000000000000000000000000000000000000815260040160405180910390fd5b600080611aeb858585611120565b9092509050611b256001600160a01b037f000000000000000000000000000000000000000000000000000000000000000016873085611cb2565b94509492505050565b611b36611eb7565b6000611b458460000151611cf1565b602085015190915015611b5f57611b5f8460200151611d32565b7f00000000000000000000000000000000000000000000000000000000000000006001600160a01b0316632637a450826040518060a001604052808b63ffffffff168152602001611baf8c611166565b81526020018a815260200189815260200160008960200151111515815250866040518463ffffffff1660e01b8152600401611beb929190612a13565b60806040518083038185885af1158015611c09573d6000803e3d6000fd5b50505050506040513d601f19601f82011682018060405250810190611c2e9190612d75565b979650505050505050565b6040516001600160a01b03838116602483015260448201839052611cad91859182169063a9059cbb906064015b604051602081830303815290604052915060e01b6020820180517bffffffffffffffffffffffffffffffffffffffffffffffffffffffff8381831617835250505050611e2d565b505050565b6040516001600160a01b038481166024830152838116604483015260648201839052611ceb9186918216906323b872dd90608401611c66565b50505050565b6000813414611d2e576040517f9f704120000000000000000000000000000000000000000000000000000000008152346004820152602401610846565b5090565b60007f00000000000000000000000000000000000000000000000000000000000000006001600160a01b031663e4fe1d946040518163ffffffff1660e01b8152600401602060405180830381865afa158015611d92573d6000803e3d6000fd5b505050506040513d601f19601f82011682018060405250810190611db69190612dbf565b90506001600160a01b038116611df8576040517f5373352a00000000000000000000000000000000000000000000000000000000815260040160405180910390fd5b6108ea6001600160a01b038216337f000000000000000000000000000000000000000000000000000000000000000085611cb2565b600080602060008451602086016000885af180611e50576040513d6000823e3d81fd5b50506000513d91508115611e68578060011415611e75565b6001600160a01b0384163b155b15611ceb576040517f5274afe70000000000000000000000000000000000000000000000000000000081526001600160a01b0385166004820152602401610846565b604051806060016040528060008019168152602001600067ffffffffffffffff168152602001611efa604051806040016040528060008152602001600081525090565b905290565b600060e08284031215611f1157600080fd5b50919050565b600060208284031215611f2957600080fd5b813567ffffffffffffffff811115611f4057600080fd5b610b9084828501611eff565b60005b83811015611f67578181015183820152602001611f4f565b50506000910152565b60008151808452611f88816020860160208601611f4c565b601f01601f19169290920160200192915050565b8351815260208085015190820152600060a08201604060a0604085015281865180845260c08601915060c08160051b8701019350602080890160005b838110156120175788870360bf1901855281518051885283015183880187905261200487890182611f70565b9750509382019390820190600101611fd8565b50508751606088015250505060208501516080850152509050610b90565b600060608284031215611f1157600080fd5b60008083601f84011261205957600080fd5b50813567ffffffffffffffff81111561207157600080fd5b60208301915083602082850101111561208957600080fd5b9250929050565b6001600160a01b03811681146110e757600080fd5b600080600080600080600060e0888a0312156120c057600080fd5b6120ca8989612035565b965060608801359550608088013567ffffffffffffffff808211156120ee57600080fd5b6120fa8b838c01612047565b909750955060a08a0135915061210f82612090565b90935060c0890135908082111561212557600080fd5b506121328a828b01612047565b989b979a50959850939692959293505050565b803563ffffffff8116811461215957600080fd5b919050565b6000806040838503121561217157600080fd5b61217a83612145565b946020939093013593505050565b80151581146110e757600080fd5b600080604083850312156121a957600080fd5b823567ffffffffffffffff8111156121c057600080fd5b6121cc85828601611eff565b92505060208301356121dd81612188565b809150509250929050565b815181526020808301519082015260408101610951565b803561ffff8116811461215957600080fd5b6000806040838503121561222457600080fd5b61222d83612145565b915061223b602084016121ff565b90509250929050565b6020815260006119636020830184611f70565b600060408284031215611f1157600080fd5b6000806000806000806000610100888a03121561228557600080fd5b873567ffffffffffffffff81111561229c57600080fd5b6122a88a828b01611eff565b9750506122b88960208a01612257565b955060608801356122c881612090565b94506080880135935060a088013560ff811681146122e557600080fd5b9699959850939692959460c0840135945060e09093013592915050565b600060c0820190508351825267ffffffffffffffff6020850151166020830152604084015161233e604084018280518252602090810151910152565b5082516080830152602083015160a0830152611963565b60006020828403121561236757600080fd5b813561196381612090565b60008060008060a0858703121561238857600080fd5b6123928686612035565b9350606085013567ffffffffffffffff8111156123ae57600080fd5b6123ba87828801612047565b90945092505060808501356123ce81612090565b939692955090935050565b60008083601f8401126123eb57600080fd5b50813567ffffffffffffffff81111561240357600080fd5b6020830191508360208260051b850101111561208957600080fd5b6000806020838503121561243157600080fd5b823567ffffffffffffffff81111561244857600080fd5b612454858286016123d9565b90969095509350505050565b60006020828403121561247257600080fd5b61196382612145565b6000806000806060858703121561249157600080fd5b61249a85612145565b93506124a8602086016121ff565b9250604085013567ffffffffffffffff8111156124c457600080fd5b6124d087828801612047565b95989497509550505050565b6000806000608084860312156124f157600080fd5b833567ffffffffffffffff81111561250857600080fd5b61251486828701611eff565b9350506125248560208601612257565b9150606084013561253481612090565b809150509250925092565b60006060828403121561255157600080fd5b6119638383612035565b634e487b7160e01b600052604160045260246000fd5b600181811c9082168061258557607f821691505b602082108103611f1157634e487b7160e01b600052602260045260246000fd5b6040516060810167ffffffffffffffff811182821017156125c8576125c861255b565b60405290565b6040805190810167ffffffffffffffff811182821017156125c8576125c861255b565b604051601f8201601f1916810167ffffffffffffffff8111828210171561261a5761261a61255b565b604052919050565b600067ffffffffffffffff82111561263c5761263c61255b565b50601f01601f191660200190565b600067ffffffffffffffff808411156126655761266561255b565b8360051b60206126768183016125f1565b86815291850191818101903684111561268e57600080fd5b865b84811015612754578035868111156126a85760008081fd5b880160603682900312156126bc5760008081fd5b6126c46125a5565b6126cd82612145565b81526126da8683016121ff565b86820152604080830135898111156126f25760008081fd5b929092019136601f8401126127075760008081fd5b823561271a61271582612622565b6125f1565b818152368983870101111561272f5760008081fd5b818986018a830137600091810189019190915290820152845250918301918301612690565b50979650505050505050565b6000808585111561277057600080fd5b8386111561277d57600080fd5b5050820193919092039150565b6000845161279c818460208901611f4c565b8201838582376000930192835250909392505050565b81835281816020850137506000828201602090810191909152601f909101601f19169091010190565b602081526000610b906020830184866127b2565b634e487b7160e01b600052603260045260246000fd5b6000823561013e1983360301811261281c57600080fd5b9190910192915050565b6000808335601e1984360301811261283d57600080fd5b83018035915067ffffffffffffffff82111561285857600080fd5b60200191503681900382131561208957600080fd5b67ffffffffffffffff811681146110e757600080fd5b63ffffffff61289189612145565b16815260208801356020820152600060408901356128ae8161286d565b67ffffffffffffffff811660408401525087606083015260e060808301526128da60e0830187896127b2565b6001600160a01b03861660a084015282810360c08401526128fc8185876127b2565b9a9950505050505050505050565b60006020828403121561291c57600080fd5b815167ffffffffffffffff81111561293357600080fd5b8201601f8101841361294457600080fd5b805161295261271582612622565b81815285602083850101111561296757600080fd5b6115db826020830160208601611f4c565b60006020828403121561298a57600080fd5b81356119638161286d565b6001600160a01b038516815283602082015261ffff831660408201526080606082015260006129c76080830184611f70565b9695505050505050565b6040815260006129e46040830185611f70565b82810360208401526115db8185611f70565b600060208284031215612a0857600080fd5b815161196381612188565b6040815263ffffffff8351166040820152602083015160608201526000604084015160a06080840152612a4960e0840182611f70565b90506060850151603f198483030160a0850152612a668282611f70565b60809690960151151560c08501525050506001600160a01b039190911660209091015290565b600060408284031215612a9e57600080fd5b612aa66125ce565b9050815181526020820151602082015292915050565b600060408284031215612ace57600080fd5b6119638383612a8c565b600060408284031215612aea57600080fd5b612af26125ce565b82358152602083013560208201528091505092915050565b601f821115611cad576000816000526020600020601f850160051c81016020861015612b335750805b601f850160051c820191505b81811015612b5257828155600101612b3f565b505050505050565b815167ffffffffffffffff811115612b7457612b7461255b565b612b8881612b828454612571565b84612b0a565b602080601f831160018114612bbd5760008415612ba55750858301515b600019600386901b1c1916600185901b178555612b52565b600085815260208120601f198616915b82811015612bec57888601518255948401946001909101908401612bcd565b5085821015612c0a5787850151600019600388901b60f8161c191681555b5050505050600190811b01905550565b600060208083018184528085518083526040925060408601915060408160051b87010184880160005b83811015612c9757888303603f190185528151805163ffffffff1684528781015161ffff16888501528601516060878501819052612c8381860183611f70565b968901969450505090860190600101612c43565b509098975050505050505050565b8035602083101561095157600019602084900360031b1b1692915050565b7fffffffffffffffff0000000000000000000000000000000000000000000000008560c01b1681527fffffffff000000000000000000000000000000000000000000000000000000008460e01b16600882015282600c82015260008251612d3181602c850160208701611f4c565b91909101602c0195945050505050565b84815283602082015282604082015260008251612d65816060850160208701611f4c565b9190910160600195945050505050565b600060808284031215612d8757600080fd5b612d8f6125a5565b825181526020830151612da18161286d565b6020820152612db38460408501612a8c565b60408201529392505050565b600060208284031215612dd157600080fd5b81516119638161209056fea26469706673582212203bf9f49e5b361c7323d7e252678e0315626ee46b54d176b362ba6b2a79b47ff964736f6c63430008190033",
  "devdoc": {
    "author": "Cooper Labs",
    "custom:contact": "security@cooperlabs.xyz",
    "details": "This contract is only deployed on the main chain where the PRL token contract is deployed. Locking PRL that has been bridged.",
    "errors": {
      "EnforcedPause()": [
        {
          "details": "The operation failed because the contract is paused."
        }
      ],
      "ExpectedPause()": [
        {
          "details": "The operation failed because the contract is not paused."
        }
      ],
      "OwnableInvalidOwner(address)": [
        {
          "details": "The owner is not a valid owner account. (eg. `address(0)`)"
        }
      ],
      "OwnableUnauthorizedAccount(address)": [
        {
          "details": "The caller account is not authorized to perform an operation."
        }
      ],
      "SafeERC20FailedOperation(address)": [
        {
          "details": "An operation with an ERC-20 token failed."
        }
      ]
    },
    "events": {
      "Paused(address)": {
        "details": "Emitted when the pause is triggered by `account`."
      },
      "PreCrimeSet(address)": {
        "details": "Emitted when the preCrime contract address is set.",
        "params": {
          "preCrimeAddress": "The address of the preCrime contract."
        }
      },
      "Unpaused(address)": {
        "details": "Emitted when the pause is lifted by `account`."
      }
    },
    "kind": "dev",
    "methods": {
      "allowInitializePath((uint32,bytes32,uint64))": {
        "details": "This indicates to the endpoint that the OApp has enabled msgs for this particular path to be received.This defaults to assuming if a peer has been set, its initialized. Can be overridden by the OApp if there is other logic to determine this.",
        "params": {
          "origin": "The origin information containing the source endpoint and sender address."
        },
        "returns": {
          "_0": "Whether the path has been initialized."
        }
      },
      "approvalRequired()": {
        "details": "In the case of OFT where the contract IS the token, approval is NOT required.",
        "returns": {
          "_0": "requiresApproval Needs approval of the underlying token implementation."
        }
      },
      "combineOptions(uint32,uint16,bytes)": {
        "details": "If there is an enforced lzReceive option: - {gasLimit: 200k, msg.value: 1 ether} AND a caller supplies a lzReceive option: {gasLimit: 100k, msg.value: 0.5 ether} - The resulting options will be {gasLimit: 300k, msg.value: 1.5 ether} when the message is executed on the remote lzReceive() function.This presence of duplicated options is handled off-chain in the verifier/executor.",
        "params": {
          "_eid": "The endpoint ID.",
          "_extraOptions": "Additional options passed by the caller.",
          "_msgType": "The OAPP message type."
        },
        "returns": {
          "_0": "options The combination of caller specified options AND enforced options."
        }
      },
      "constructor": {
        "params": {
          "_endpoint": "Address of the LayerZero endpoint",
          "_owner": "Address of the contract owner",
          "_prlToken": "Address of the PRL token contract"
        }
      },
      "isComposeMsgSender((uint32,bytes32,uint64),bytes,address)": {
        "details": "_origin The origin information containing the source endpoint and sender address.  - srcEid: The source chain endpoint ID.  - sender: The sender address on the src chain.  - nonce: The nonce of the message._message The lzReceive payload.Applications can optionally choose to implement separate composeMsg senders that are NOT the bridging layer.The default sender IS the OAppReceiver implementer.",
        "params": {
          "_sender": "The sender address."
        },
        "returns": {
          "_0": "isSender Is a valid sender."
        }
      },
      "isPeer(uint32,bytes32)": {
        "details": "Check if the peer is considered 'trusted' by the OApp.Enables OAppPreCrimeSimulator to check whether a potential Inbound Packet is from a trusted source.",
        "params": {
          "_eid": "The endpoint ID to check.",
          "_peer": "The peer to check."
        },
        "returns": {
          "_0": "Whether the peer passed is considered 'trusted' by the OApp."
        }
      },
      "lzReceive((uint32,bytes32,uint64),bytes32,bytes,address,bytes)": {
        "details": "Entry point for receiving messages or packets from the endpoint.Entry point for receiving msg/packet from the LayerZero endpoint.",
        "params": {
          "_executor": "The address of the executor for the received message.",
          "_extraData": "Additional arbitrary data provided by the corresponding executor.",
          "_guid": "The unique identifier for the received LayerZero message.",
          "_message": "The payload of the received message.",
          "_origin": "The origin information containing the source endpoint and sender address.  - srcEid: The source chain endpoint ID.  - sender: The sender address on the src chain.  - nonce: The nonce of the message."
        }
      },
      "lzReceiveAndRevert(((uint32,bytes32,uint64),uint32,address,bytes32,uint256,address,bytes,bytes)[])": {
        "details": "Interface for pre-crime simulations. Always reverts at the end with the simulation results.WARNING: MUST revert at the end with the simulation results.Gives the preCrime implementation the ability to mock sending packets to the lzReceive function, WITHOUT actually executing them.",
        "params": {
          "_packets": "An array of InboundPacket objects representing received packets to be delivered."
        }
      },
      "lzReceiveSimulate((uint32,bytes32,uint64),bytes32,bytes,address,bytes)": {
        "details": "Is effectively an internal function because msg.sender must be address(this). Allows resetting the call stack for 'internal' calls.",
        "params": {
          "_executor": "The executor address for the packet.",
          "_extraData": "Additional data for the packet.",
          "_guid": "The unique identifier of the packet.",
          "_message": "The message payload of the packet.",
          "_origin": "The origin information containing the source endpoint and sender address.  - srcEid: The source chain endpoint ID.  - sender: The sender address on the src chain.  - nonce: The nonce of the message."
        }
      },
      "nextNonce(uint32,bytes32)": {
        "details": "_srcEid The source endpoint ID._sender The sender address.The path nonce starts from 1. If 0 is returned it means that there is NO nonce ordered enforcement.Is required by the off-chain executor to determine the OApp expects msg execution is ordered.This is also enforced by the OApp.By default this is NOT enabled. ie. nextNonce is hardcoded to return 0.",
        "returns": {
          "nonce": "The next nonce."
        }
      },
      "oApp()": {
        "details": "Retrieves the address of the OApp contract.The simulator contract is the base contract for the OApp by default.If the simulator is a separate contract, override this function.",
        "returns": {
          "_0": "The address of the OApp contract."
        }
      },
      "oAppVersion()": {
        "returns": {
          "receiverVersion": "The version of the OAppReceiver.sol implementation.",
          "senderVersion": "The version of the OAppSender.sol implementation."
        }
      },
      "oftVersion()": {
        "details": "interfaceId: This specific interface ID is '0x18fb6cf8'.version: Indicates a cross-chain compatible msg encoding with other OFTs.If a new feature is added to the OFT cross-chain msg encoding, the version will be incremented. ie. localOFT version(x,1) CAN send messages to remoteOFT version(x,1)",
        "returns": {
          "interfaceId": "The interface ID.",
          "version": "The version."
        }
      },
      "owner()": {
        "details": "Returns the address of the current owner."
      },
      "pause()": {
        "details": "This function can only be called by the owner"
      },
      "paused()": {
        "details": "Returns true if the contract is paused, and false otherwise."
      },
      "quoteOFT((uint32,bytes32,uint256,uint256,bytes,bytes,bytes))": {
        "params": {
          "_sendParam": "The parameters for the send operation."
        },
        "returns": {
          "oftFeeDetails": "The details of OFT fees.",
          "oftLimit": "The OFT limit information.",
          "oftReceipt": "The OFT receipt information."
        }
      },
      "quoteSend((uint32,bytes32,uint256,uint256,bytes,bytes,bytes),bool)": {
        "details": "MessagingFee: LayerZero msg fee  - nativeFee: The native fee.  - lzTokenFee: The lzToken fee.",
        "params": {
          "_payInLzToken": "Flag indicating whether the caller is paying in the LZ token.",
          "_sendParam": "The parameters for the send() operation."
        },
        "returns": {
          "msgFee": "The calculated LayerZero messaging fee from the send() operation."
        }
      },
      "renounceOwnership()": {
        "details": "Leaves the contract without owner. It will not be possible to call `onlyOwner` functions. Can only be called by the current owner. NOTE: Renouncing ownership will leave the contract without an owner, thereby disabling any functionality that is only available to the owner."
      },
      "send((uint32,bytes32,uint256,uint256,bytes,bytes,bytes),(uint256,uint256),address)": {
        "details": "This function is pausable and overrides the base OFT implementation",
        "params": {
          "_fee": "Messaging fee for the LayerZero transaction",
          "_refundAddress": "Address to refund excess fees",
          "_sendParam": "Parameters for the send operation"
        },
        "returns": {
          "msgReceipt": "Receipt for the LayerZero message",
          "oftReceipt": "Receipt for the OFT transaction"
        }
      },
      "sendWithPermit((uint32,bytes32,uint256,uint256,bytes,bytes,bytes),(uint256,uint256),address,uint256,uint8,bytes32,bytes32)": {
        "details": "This function combines permit and send operations",
        "params": {
          "_deadline": "Expiration time of the permit signature",
          "_fee": "Messaging fee for the LayerZero transaction",
          "_r": "ECDSA signature parameter r",
          "_refundAddress": "Address to refund excess fees",
          "_s": "ECDSA signature parameter s",
          "_sendParam": "Parameters for the send operation",
          "_v": "ECDSA signature parameter v"
        },
        "returns": {
          "msgReceipt": "Receipt for the LayerZero message",
          "oftReceipt": "Receipt for the OFT transaction"
        }
      },
      "setDelegate(address)": {
        "details": "Only the owner/admin of the OApp can call this function.Provides the ability for a delegate to set configs, on behalf of the OApp, directly on the Endpoint contract.",
        "params": {
          "_delegate": "The address of the delegate to be set."
        }
      },
      "setEnforcedOptions((uint32,uint16,bytes)[])": {
        "details": "Sets the enforced options for specific endpoint and message type combinations.Only the owner/admin of the OApp can call this function.Provides a way for the OApp to enforce things like paying for PreCrime, AND/OR minimum dst lzReceive gas amounts etc.These enforced options can vary as the potential options/execution on the remote may differ as per the msgType. eg. Amount of lzReceive() gas necessary to deliver a lzCompose() message adds overhead you dont want to pay if you are only making a standard LayerZero message ie. lzReceive() WITHOUT sendCompose().",
        "params": {
          "_enforcedOptions": "An array of EnforcedOptionParam structures specifying enforced options."
        }
      },
      "setMsgInspector(address)": {
        "details": "Sets the message inspector address for the OFT.This is an optional contract that can be used to inspect both 'message' and 'options'.Set it to address(0) to disable it, or set it to a contract address to enable it.",
        "params": {
          "_msgInspector": "The address of the message inspector."
        }
      },
      "setPeer(uint32,bytes32)": {
        "details": "Only the owner/admin of the OApp can call this function.Indicates that the peer is trusted to send LayerZero messages to this OApp.Set this to bytes32(0) to remove the peer address.Peer is a bytes32 to accommodate non-evm chains.",
        "params": {
          "_eid": "The endpoint ID.",
          "_peer": "The address of the peer to be associated with the corresponding endpoint."
        }
      },
      "setPreCrime(address)": {
        "details": "Sets the preCrime contract address.",
        "params": {
          "_preCrime": "The address of the preCrime contract."
        }
      },
      "token()": {
        "details": "Retrieves the address of the underlying ERC20 implementation.In the case of OFTAdapter, address(this) and erc20 are NOT the same contract.",
        "returns": {
          "_0": "The address of the adapted ERC-20 token."
        }
      },
      "transferOwnership(address)": {
        "details": "Transfers ownership of the contract to a new account (`newOwner`). Can only be called by the current owner."
      },
      "unpause()": {
        "details": "This function can only be called by the owner"
      }
    },
    "title": "LockBox",
    "version": 1
  },
  "userdoc": {
    "kind": "user",
    "methods": {
      "SEND()": {
        "notice": "Msg types that are used to identify the various OFT operations."
      },
      "allowInitializePath((uint32,bytes32,uint64))": {
        "notice": "Checks if the path initialization is allowed based on the provided origin."
      },
      "approvalRequired()": {
        "notice": "Indicates whether the OFT contract requires approval of the 'token()' to send."
      },
      "combineOptions(uint32,uint16,bytes)": {
        "notice": "Combines options for a given endpoint and message type."
      },
      "constructor": {
        "notice": "Initializes the LockBox contract"
      },
      "endpoint()": {
        "notice": "Retrieves the LayerZero endpoint associated with the OApp."
      },
      "isComposeMsgSender((uint32,bytes32,uint64),bytes,address)": {
        "notice": "Indicates whether an address is an approved composeMsg sender to the Endpoint."
      },
      "msgInspector()": {
        "notice": "Address of an optional contract to inspect both 'message' and 'options'"
      },
      "nextNonce(uint32,bytes32)": {
        "notice": "Retrieves the next nonce for a given source endpoint and sender address."
      },
      "oAppVersion()": {
        "notice": "Retrieves the OApp version information."
      },
      "oftVersion()": {
        "notice": "Retrieves interfaceID and the version of the OFT."
      },
      "pause()": {
        "notice": "Allow owner to pause the contract"
      },
      "peers(uint32)": {
        "notice": "Retrieves the peer (OApp) associated with a corresponding endpoint."
      },
      "quoteOFT((uint32,bytes32,uint256,uint256,bytes,bytes,bytes))": {
        "notice": "Provides a quote for OFT-related operations."
      },
      "quoteSend((uint32,bytes32,uint256,uint256,bytes,bytes,bytes),bool)": {
        "notice": "Provides a quote for the send() operation."
      },
      "send((uint32,bytes32,uint256,uint256,bytes,bytes,bytes),(uint256,uint256),address)": {
        "notice": "Sends tokens to another chain"
      },
      "sendWithPermit((uint32,bytes32,uint256,uint256,bytes,bytes,bytes),(uint256,uint256),address,uint256,uint8,bytes32,bytes32)": {
        "notice": "Sends tokens to another chain using EIP-2612 permit"
      },
      "setDelegate(address)": {
        "notice": "Sets the delegate address for the OApp."
      },
      "setPeer(uint32,bytes32)": {
        "notice": "Sets the peer address (OApp instance) for a corresponding endpoint."
      },
      "unpause()": {
        "notice": "Allow owner to unpause the contract"
      }
    },
    "notice": "LayerZero OFTAdapter contract that allow PRL to be bridge between chains.",
    "version": 1
  },
  "storageLayout": {
    "storage": [
      {
        "astId": 2620,
        "contract": "contracts/principal/LockBox.sol:LockBox",
        "label": "_owner",
        "offset": 0,
        "slot": "0",
        "type": "t_address"
      },
      {
        "astId": 64,
        "contract": "contracts/principal/LockBox.sol:LockBox",
        "label": "peers",
        "offset": 0,
        "slot": "1",
        "type": "t_mapping(t_uint32,t_bytes32)"
      },
      {
        "astId": 840,
        "contract": "contracts/principal/LockBox.sol:LockBox",
        "label": "preCrime",
        "offset": 0,
        "slot": "2",
        "type": "t_address"
      },
      {
        "astId": 680,
        "contract": "contracts/principal/LockBox.sol:LockBox",
        "label": "enforcedOptions",
        "offset": 0,
        "slot": "3",
        "type": "t_mapping(t_uint32,t_mapping(t_uint16,t_bytes_storage))"
      },
      {
        "astId": 9993,
        "contract": "contracts/principal/LockBox.sol:LockBox",
        "label": "msgInspector",
        "offset": 0,
        "slot": "4",
        "type": "t_address"
      },
      {
        "astId": 4671,
        "contract": "contracts/principal/LockBox.sol:LockBox",
        "label": "_paused",
        "offset": 20,
        "slot": "4",
        "type": "t_bool"
      }
    ],
    "types": {
      "t_address": {
        "encoding": "inplace",
        "label": "address",
        "numberOfBytes": "20"
      },
      "t_bool": {
        "encoding": "inplace",
        "label": "bool",
        "numberOfBytes": "1"
      },
      "t_bytes32": {
        "encoding": "inplace",
        "label": "bytes32",
        "numberOfBytes": "32"
      },
      "t_bytes_storage": {
        "encoding": "bytes",
        "label": "bytes",
        "numberOfBytes": "32"
      },
      "t_mapping(t_uint16,t_bytes_storage)": {
        "encoding": "mapping",
        "key": "t_uint16",
        "label": "mapping(uint16 => bytes)",
        "numberOfBytes": "32",
        "value": "t_bytes_storage"
      },
      "t_mapping(t_uint32,t_bytes32)": {
        "encoding": "mapping",
        "key": "t_uint32",
        "label": "mapping(uint32 => bytes32)",
        "numberOfBytes": "32",
        "value": "t_bytes32"
      },
      "t_mapping(t_uint32,t_mapping(t_uint16,t_bytes_storage))": {
        "encoding": "mapping",
        "key": "t_uint32",
        "label": "mapping(uint32 => mapping(uint16 => bytes))",
        "numberOfBytes": "32",
        "value": "t_mapping(t_uint16,t_bytes_storage)"
      },
      "t_uint16": {
        "encoding": "inplace",
        "label": "uint16",
        "numberOfBytes": "2"
      },
      "t_uint32": {
        "encoding": "inplace",
        "label": "uint32",
        "numberOfBytes": "4"
      }
    }
  }
}