{
  "address": "0x0EC5ab257aDf6968A3D3C187BE1Ee0fe74487Eb3",
  "abi": [
    {
      "inputs": [
        {
          "internalType": "address",
          "name": "_mimo",
          "type": "address"
        },
        {
          "internalType": "address",
          "name": "_prl",
          "type": "address"
        },
        {
          "internalType": "address",
          "name": "_lockBox",
          "type": "address"
        },
        {
          "internalType": "address",
          "name": "_endpoint",
          "type": "address"
        },
        {
          "internalType": "address",
          "name": "_owner",
          "type": "address"
        }
      ],
      "stateMutability": "nonpayable",
      "type": "constructor"
    },
    {
      "inputs": [],
      "name": "AddressZero",
      "type": "error"
    },
    {
      "inputs": [],
      "name": "EnforcedPause",
      "type": "error"
    },
    {
      "inputs": [],
      "name": "ExpectedPause",
      "type": "error"
    },
    {
      "inputs": [],
      "name": "FailedCall",
      "type": "error"
    },
    {
      "inputs": [
        {
          "internalType": "uint256",
          "name": "balance",
          "type": "uint256"
        },
        {
          "internalType": "uint256",
          "name": "needed",
          "type": "uint256"
        }
      ],
      "name": "InsufficientBalance",
      "type": "error"
    },
    {
      "inputs": [],
      "name": "InvalidDelegate",
      "type": "error"
    },
    {
      "inputs": [],
      "name": "InvalidEndpointCall",
      "type": "error"
    },
    {
      "inputs": [
        {
          "internalType": "bytes",
          "name": "options",
          "type": "bytes"
        }
      ],
      "name": "InvalidOptions",
      "type": "error"
    },
    {
      "inputs": [
        {
          "internalType": "uint32",
          "name": "eid",
          "type": "uint32"
        }
      ],
      "name": "NoPeer",
      "type": "error"
    },
    {
      "inputs": [
        {
          "internalType": "address",
          "name": "addr",
          "type": "address"
        }
      ],
      "name": "OnlyEndpoint",
      "type": "error"
    },
    {
      "inputs": [
        {
          "internalType": "uint32",
          "name": "eid",
          "type": "uint32"
        },
        {
          "internalType": "bytes32",
          "name": "sender",
          "type": "bytes32"
        }
      ],
      "name": "OnlyPeer",
      "type": "error"
    },
    {
      "inputs": [
        {
          "internalType": "address",
          "name": "owner",
          "type": "address"
        }
      ],
      "name": "OwnableInvalidOwner",
      "type": "error"
    },
    {
      "inputs": [
        {
          "internalType": "address",
          "name": "account",
          "type": "address"
        }
      ],
      "name": "OwnableUnauthorizedAccount",
      "type": "error"
    },
    {
      "inputs": [],
      "name": "ReentrancyGuardReentrantCall",
      "type": "error"
    },
    {
      "inputs": [
        {
          "internalType": "address",
          "name": "token",
          "type": "address"
        }
      ],
      "name": "SafeERC20FailedOperation",
      "type": "error"
    },
    {
      "anonymous": false,
      "inputs": [
        {
          "indexed": true,
          "internalType": "address",
          "name": "token",
          "type": "address"
        },
        {
          "indexed": false,
          "internalType": "uint256",
          "name": "amount",
          "type": "uint256"
        },
        {
          "indexed": true,
          "internalType": "address",
          "name": "recipient",
          "type": "address"
        }
      ],
      "name": "EmergencyRescued",
      "type": "event"
    },
    {
      "anonymous": false,
      "inputs": [
        {
          "components": [
            {
              "internalType": "uint32",
              "name": "eid",
              "type": "uint32"
            },
            {
              "internalType": "uint16",
              "name": "msgType",
              "type": "uint16"
            },
            {
              "internalType": "bytes",
              "name": "options",
              "type": "bytes"
            }
          ],
          "indexed": false,
          "internalType": "struct EnforcedOptionParam[]",
          "name": "_enforcedOptions",
          "type": "tuple[]"
        }
      ],
      "name": "EnforcedOptionSet",
      "type": "event"
    },
    {
      "anonymous": false,
      "inputs": [
        {
          "indexed": false,
          "internalType": "address",
          "name": "caller",
          "type": "address"
        },
        {
          "indexed": false,
          "internalType": "address",
          "name": "receiver",
          "type": "address"
        },
        {
          "indexed": false,
          "internalType": "uint256",
          "name": "amount",
          "type": "uint256"
        }
      ],
      "name": "MIMOToPRLMigrated",
      "type": "event"
    },
    {
      "anonymous": false,
      "inputs": [
        {
          "indexed": false,
          "internalType": "address",
          "name": "caller",
          "type": "address"
        },
        {
          "indexed": false,
          "internalType": "address",
          "name": "receiver",
          "type": "address"
        },
        {
          "components": [
            {
              "internalType": "uint32",
              "name": "dstEid",
              "type": "uint32"
            },
            {
              "internalType": "bytes32",
              "name": "to",
              "type": "bytes32"
            },
            {
              "internalType": "uint256",
              "name": "amount",
              "type": "uint256"
            },
            {
              "internalType": "uint256",
              "name": "minAmount",
              "type": "uint256"
            },
            {
              "internalType": "bytes",
              "name": "extraOptions",
              "type": "bytes"
            },
            {
              "internalType": "bytes",
              "name": "composeMsg",
              "type": "bytes"
            },
            {
              "internalType": "bytes",
              "name": "oftCmd",
              "type": "bytes"
            }
          ],
          "indexed": false,
          "internalType": "struct SendParam",
          "name": "sendParam",
          "type": "tuple"
        },
        {
          "components": [
            {
              "internalType": "uint256",
              "name": "nativeFee",
              "type": "uint256"
            },
            {
              "internalType": "uint256",
              "name": "lzTokenFee",
              "type": "uint256"
            }
          ],
          "indexed": false,
          "internalType": "struct MessagingFee",
          "name": "fee",
          "type": "tuple"
        }
      ],
      "name": "MIMOToPRLMigratedAndBridged",
      "type": "event"
    },
    {
      "anonymous": false,
      "inputs": [
        {
          "indexed": false,
          "internalType": "bytes32",
          "name": "guid",
          "type": "bytes32"
        },
        {
          "indexed": false,
          "internalType": "uint32",
          "name": "srcEid",
          "type": "uint32"
        },
        {
          "indexed": false,
          "internalType": "address",
          "name": "sender",
          "type": "address"
        },
        {
          "indexed": false,
          "internalType": "uint32",
          "name": "destEid",
          "type": "uint32"
        },
        {
          "indexed": false,
          "internalType": "address",
          "name": "receiver",
          "type": "address"
        },
        {
          "indexed": false,
          "internalType": "uint256",
          "name": "mimoAmount",
          "type": "uint256"
        },
        {
          "indexed": false,
          "internalType": "uint256",
          "name": "prlAmount",
          "type": "uint256"
        }
      ],
      "name": "MigrationMessageReceived",
      "type": "event"
    },
    {
      "anonymous": false,
      "inputs": [
        {
          "indexed": true,
          "internalType": "address",
          "name": "previousOwner",
          "type": "address"
        },
        {
          "indexed": true,
          "internalType": "address",
          "name": "newOwner",
          "type": "address"
        }
      ],
      "name": "OwnershipTransferred",
      "type": "event"
    },
    {
      "anonymous": false,
      "inputs": [
        {
          "indexed": false,
          "internalType": "address",
          "name": "account",
          "type": "address"
        }
      ],
      "name": "Paused",
      "type": "event"
    },
    {
      "anonymous": false,
      "inputs": [
        {
          "indexed": false,
          "internalType": "uint32",
          "name": "eid",
          "type": "uint32"
        },
        {
          "indexed": false,
          "internalType": "bytes32",
          "name": "peer",
          "type": "bytes32"
        }
      ],
      "name": "PeerSet",
      "type": "event"
    },
    {
      "anonymous": false,
      "inputs": [
        {
          "indexed": false,
          "internalType": "address",
          "name": "account",
          "type": "address"
        }
      ],
      "name": "Unpaused",
      "type": "event"
    },
    {
      "inputs": [],
      "name": "MIMO",
      "outputs": [
        {
          "internalType": "contract IERC20",
          "name": "",
          "type": "address"
        }
      ],
      "stateMutability": "view",
      "type": "function"
    },
    {
      "inputs": [],
      "name": "PRL",
      "outputs": [
        {
          "internalType": "contract IERC20",
          "name": "",
          "type": "address"
        }
      ],
      "stateMutability": "view",
      "type": "function"
    },
    {
      "inputs": [
        {
          "internalType": "bytes",
          "name": "_encodedMessage",
          "type": "bytes"
        }
      ],
      "name": "_decodeMessage",
      "outputs": [
        {
          "internalType": "address",
          "name": "receiver",
          "type": "address"
        },
        {
          "internalType": "uint256",
          "name": "amount",
          "type": "uint256"
        },
        {
          "internalType": "uint32",
          "name": "destEid",
          "type": "uint32"
        },
        {
          "internalType": "uint256",
          "name": "extraOptionsLength",
          "type": "uint256"
        }
      ],
      "stateMutability": "pure",
      "type": "function"
    },
    {
      "inputs": [
        {
          "components": [
            {
              "internalType": "uint32",
              "name": "srcEid",
              "type": "uint32"
            },
            {
              "internalType": "bytes32",
              "name": "sender",
              "type": "bytes32"
            },
            {
              "internalType": "uint64",
              "name": "nonce",
              "type": "uint64"
            }
          ],
          "internalType": "struct Origin",
          "name": "origin",
          "type": "tuple"
        }
      ],
      "name": "allowInitializePath",
      "outputs": [
        {
          "internalType": "bool",
          "name": "",
          "type": "bool"
        }
      ],
      "stateMutability": "view",
      "type": "function"
    },
    {
      "inputs": [
        {
          "internalType": "uint32",
          "name": "_eid",
          "type": "uint32"
        },
        {
          "internalType": "uint16",
          "name": "_msgType",
          "type": "uint16"
        },
        {
          "internalType": "bytes",
          "name": "_extraOptions",
          "type": "bytes"
        }
      ],
      "name": "combineOptions",
      "outputs": [
        {
          "internalType": "bytes",
          "name": "",
          "type": "bytes"
        }
      ],
      "stateMutability": "view",
      "type": "function"
    },
    {
      "inputs": [
        {
          "internalType": "address",
          "name": "_token",
          "type": "address"
        },
        {
          "internalType": "uint256",
          "name": "_amount",
          "type": "uint256"
        }
      ],
      "name": "emergencyRescue",
      "outputs": [],
      "stateMutability": "nonpayable",
      "type": "function"
    },
    {
      "inputs": [],
      "name": "endpoint",
      "outputs": [
        {
          "internalType": "contract ILayerZeroEndpointV2",
          "name": "",
          "type": "address"
        }
      ],
      "stateMutability": "view",
      "type": "function"
    },
    {
      "inputs": [
        {
          "internalType": "uint32",
          "name": "eid",
          "type": "uint32"
        },
        {
          "internalType": "uint16",
          "name": "msgType",
          "type": "uint16"
        }
      ],
      "name": "enforcedOptions",
      "outputs": [
        {
          "internalType": "bytes",
          "name": "enforcedOption",
          "type": "bytes"
        }
      ],
      "stateMutability": "view",
      "type": "function"
    },
    {
      "inputs": [
        {
          "components": [
            {
              "internalType": "uint32",
              "name": "srcEid",
              "type": "uint32"
            },
            {
              "internalType": "bytes32",
              "name": "sender",
              "type": "bytes32"
            },
            {
              "internalType": "uint64",
              "name": "nonce",
              "type": "uint64"
            }
          ],
          "internalType": "struct Origin",
          "name": "",
          "type": "tuple"
        },
        {
          "internalType": "bytes",
          "name": "",
          "type": "bytes"
        },
        {
          "internalType": "address",
          "name": "_sender",
          "type": "address"
        }
      ],
      "name": "isComposeMsgSender",
      "outputs": [
        {
          "internalType": "bool",
          "name": "",
          "type": "bool"
        }
      ],
      "stateMutability": "view",
      "type": "function"
    },
    {
      "inputs": [],
      "name": "lockBox",
      "outputs": [
        {
          "internalType": "contract IOFT",
          "name": "",
          "type": "address"
        }
      ],
      "stateMutability": "view",
      "type": "function"
    },
    {
      "inputs": [
        {
          "components": [
            {
              "internalType": "uint32",
              "name": "srcEid",
              "type": "uint32"
            },
            {
              "internalType": "bytes32",
              "name": "sender",
              "type": "bytes32"
            },
            {
              "internalType": "uint64",
              "name": "nonce",
              "type": "uint64"
            }
          ],
          "internalType": "struct Origin",
          "name": "_origin",
          "type": "tuple"
        },
        {
          "internalType": "bytes32",
          "name": "_guid",
          "type": "bytes32"
        },
        {
          "internalType": "bytes",
          "name": "_message",
          "type": "bytes"
        },
        {
          "internalType": "address",
          "name": "_executor",
          "type": "address"
        },
        {
          "internalType": "bytes",
          "name": "_extraData",
          "type": "bytes"
        }
      ],
      "name": "lzReceive",
      "outputs": [],
      "stateMutability": "payable",
      "type": "function"
    },
    {
      "inputs": [
        {
          "internalType": "uint256",
          "name": "_amount",
          "type": "uint256"
        },
        {
          "internalType": "address",
          "name": "_recipient",
          "type": "address"
        }
      ],
      "name": "migrateToPRL",
      "outputs": [],
      "stateMutability": "nonpayable",
      "type": "function"
    },
    {
      "inputs": [
        {
          "components": [
            {
              "internalType": "uint32",
              "name": "dstEid",
              "type": "uint32"
            },
            {
              "internalType": "bytes32",
              "name": "to",
              "type": "bytes32"
            },
            {
              "internalType": "uint256",
              "name": "amount",
              "type": "uint256"
            },
            {
              "internalType": "uint256",
              "name": "minAmount",
              "type": "uint256"
            },
            {
              "internalType": "bytes",
              "name": "extraOptions",
              "type": "bytes"
            },
            {
              "internalType": "bytes",
              "name": "composeMsg",
              "type": "bytes"
            },
            {
              "internalType": "bytes",
              "name": "oftCmd",
              "type": "bytes"
            }
          ],
          "internalType": "struct SendParam",
          "name": "_sendParam",
          "type": "tuple"
        },
        {
          "internalType": "address",
          "name": "_refundAddress",
          "type": "address"
        }
      ],
      "name": "migrateToPRLAndBridge",
      "outputs": [],
      "stateMutability": "payable",
      "type": "function"
    },
    {
      "inputs": [
        {
          "internalType": "uint32",
          "name": "",
          "type": "uint32"
        },
        {
          "internalType": "bytes32",
          "name": "",
          "type": "bytes32"
        }
      ],
      "name": "nextNonce",
      "outputs": [
        {
          "internalType": "uint64",
          "name": "nonce",
          "type": "uint64"
        }
      ],
      "stateMutability": "view",
      "type": "function"
    },
    {
      "inputs": [],
      "name": "oAppVersion",
      "outputs": [
        {
          "internalType": "uint64",
          "name": "senderVersion",
          "type": "uint64"
        },
        {
          "internalType": "uint64",
          "name": "receiverVersion",
          "type": "uint64"
        }
      ],
      "stateMutability": "view",
      "type": "function"
    },
    {
      "inputs": [],
      "name": "owner",
      "outputs": [
        {
          "internalType": "address",
          "name": "",
          "type": "address"
        }
      ],
      "stateMutability": "view",
      "type": "function"
    },
    {
      "inputs": [],
      "name": "pause",
      "outputs": [],
      "stateMutability": "nonpayable",
      "type": "function"
    },
    {
      "inputs": [],
      "name": "paused",
      "outputs": [
        {
          "internalType": "bool",
          "name": "",
          "type": "bool"
        }
      ],
      "stateMutability": "view",
      "type": "function"
    },
    {
      "inputs": [
        {
          "internalType": "uint32",
          "name": "eid",
          "type": "uint32"
        }
      ],
      "name": "peers",
      "outputs": [
        {
          "internalType": "bytes32",
          "name": "peer",
          "type": "bytes32"
        }
      ],
      "stateMutability": "view",
      "type": "function"
    },
    {
      "inputs": [],
      "name": "renounceOwnership",
      "outputs": [],
      "stateMutability": "nonpayable",
      "type": "function"
    },
    {
      "inputs": [
        {
          "internalType": "address",
          "name": "_delegate",
          "type": "address"
        }
      ],
      "name": "setDelegate",
      "outputs": [],
      "stateMutability": "nonpayable",
      "type": "function"
    },
    {
      "inputs": [
        {
          "components": [
            {
              "internalType": "uint32",
              "name": "eid",
              "type": "uint32"
            },
            {
              "internalType": "uint16",
              "name": "msgType",
              "type": "uint16"
            },
            {
              "internalType": "bytes",
              "name": "options",
              "type": "bytes"
            }
          ],
          "internalType": "struct EnforcedOptionParam[]",
          "name": "_enforcedOptions",
          "type": "tuple[]"
        }
      ],
      "name": "setEnforcedOptions",
      "outputs": [],
      "stateMutability": "nonpayable",
      "type": "function"
    },
    {
      "inputs": [
        {
          "internalType": "uint32",
          "name": "_eid",
          "type": "uint32"
        },
        {
          "internalType": "bytes32",
          "name": "_peer",
          "type": "bytes32"
        }
      ],
      "name": "setPeer",
      "outputs": [],
      "stateMutability": "nonpayable",
      "type": "function"
    },
    {
      "inputs": [
        {
          "internalType": "address",
          "name": "newOwner",
          "type": "address"
        }
      ],
      "name": "transferOwnership",
      "outputs": [],
      "stateMutability": "nonpayable",
      "type": "function"
    },
    {
      "inputs": [],
      "name": "unpause",
      "outputs": [],
      "stateMutability": "nonpayable",
      "type": "function"
    },
    {
      "stateMutability": "payable",
      "type": "receive"
    }
  ],
  "transactionHash": "0x3500b8bb78fd414c949bb043462efdd832b7bfb4bb0f6010aca996401ec3d129",
  "args": [
    "0x90B831fa3Bebf58E9744A14D638E25B4eE06f9Bc",
    "0x6c0aeceeDc55c9d55d8B99216a670D85330941c3",
    "0xdE91eb8206c228f4208c34510cf0C61C9302a434",
    "0x1a44076050125825900e736c501f859c50fE728c",
    "0x66CcEC236bbcE5f1bBd1b2fC0a4014e57A55ad02"
  ],
  "numDeployments": 1,
  "solcInputHash": "f79a8b76a6150c66749bcbcc3be229f6",
  "bytecode": "0x61010060405234801561001157600080fd5b5060405161292e38038061292e83398101604081905261003091610208565b8181806001600160a01b03811661006157604051631e4fbdf760e01b81526000600482015260240160405180910390fd5b61006a8161019c565b506001600160a01b03808316608052811661009857604051632d618d8160e21b815260040160405180910390fd5b60805160405163ca5eb5e160e01b81526001600160a01b0383811660048301529091169063ca5eb5e190602401600060405180830381600087803b1580156100df57600080fd5b505af11580156100f3573d6000803e3d6000fd5b50506003805460ff191690555050600160045550506001600160a01b03851661012f57604051639fabe1c160e01b815260040160405180910390fd5b6001600160a01b03841661015657604051639fabe1c160e01b815260040160405180910390fd5b6001600160a01b03831661017d57604051639fabe1c160e01b815260040160405180910390fd5b50506001600160a01b0392831660a05290821660c0521660e05261026d565b600080546001600160a01b038381166001600160a01b0319831681178455604051919092169283917f8be0079c531659141344cd1fd0a4f28419497f9722a3daafe3b4186f6b6457e09190a35050565b80516001600160a01b038116811461020357600080fd5b919050565b600080600080600060a0868803121561022057600080fd5b610229866101ec565b9450610237602087016101ec565b9350610245604087016101ec565b9250610253606087016101ec565b9150610261608087016101ec565b90509295509295909350565b60805160a05160c05160e0516126186103166000396000818161032e015281816107a20152818161086d015281816110450152818161111101526111ef015260008181610291015281816107d301528181610d4c01528181610ff2015281816110770152818161121e01526112990152600081816104370152818161075e0152610d170152600081816103620152818161057601528181610c520152610f0201526126186000f3fe60806040526004361061019a5760003560e01c80637d25a05e116100e1578063b98bd0701161008a578063ca5eb5e111610064578063ca5eb5e1146104f4578063df1c272914610514578063f2fde38b14610534578063ff7bd03d1461055457600080fd5b8063b98bd07014610479578063bb0b6a5314610499578063bc70b354146104d457600080fd5b80638da5cb5b116100bb5780638da5cb5b14610407578063a00e07c414610425578063b72952ee1461045957600080fd5b80637d25a05e1461039957806382413eac146103d25780638456cb59146103f257600080fd5b80635502c73b116101435780635d19b0d11161011d5780635d19b0d11461031c5780635e280f1114610350578063715018a61461038457600080fd5b80635502c73b1461027f5780635535d461146102cb5780635c975abb146102f857600080fd5b80633400288b116101745780633400288b146102375780633b1a50b5146102575780633f4ba83a1461026a57600080fd5b806313137d65146101a657806317442b70146101bb57806324fd4c05146101e257600080fd5b366101a157005b600080fd5b6101b96101b4366004611a5e565b610574565b005b3480156101c757600080fd5b50604080516000815260026020820152015b60405180910390f35b3480156101ee57600080fd5b506102026101fd366004611afd565b610666565b604080516001600160a01b039095168552602085019390935263ffffffff9091169183019190915260608201526080016101d9565b34801561024357600080fd5b506101b9610252366004611b51565b61069a565b6101b9610265366004611b7d565b6106b0565b34801561027657600080fd5b506101b96108f5565b34801561028b57600080fd5b506102b37f000000000000000000000000000000000000000000000000000000000000000081565b6040516001600160a01b0390911681526020016101d9565b3480156102d757600080fd5b506102eb6102e6366004611be2565b610907565b6040516101d99190611c5e565b34801561030457600080fd5b5060035460ff165b60405190151581526020016101d9565b34801561032857600080fd5b506102b37f000000000000000000000000000000000000000000000000000000000000000081565b34801561035c57600080fd5b506102b37f000000000000000000000000000000000000000000000000000000000000000081565b34801561039057600080fd5b506101b96109ac565b3480156103a557600080fd5b506103b96103b4366004611b51565b6109be565b60405167ffffffffffffffff90911681526020016101d9565b3480156103de57600080fd5b5061030c6103ed366004611c78565b6109c7565b3480156103fe57600080fd5b506101b96109dc565b34801561041357600080fd5b506000546001600160a01b03166102b3565b34801561043157600080fd5b506102b37f000000000000000000000000000000000000000000000000000000000000000081565b34801561046557600080fd5b506101b9610474366004611cde565b6109ec565b34801561048557600080fd5b506101b9610494366004611cfa565b610a50565b3480156104a557600080fd5b506104c66104b4366004611d6f565b60016020526000908152604090205481565b6040519081526020016101d9565b3480156104e057600080fd5b506102eb6104ef366004611d8c565b610a6a565b34801561050057600080fd5b506101b961050f366004611def565b610c12565b34801561052057600080fd5b506101b961052f366004611e0a565b610cb1565b34801561054057600080fd5b506101b961054f366004611def565b610d7d565b34801561056057600080fd5b5061030c61056f366004611e2d565b610dd4565b7f00000000000000000000000000000000000000000000000000000000000000006001600160a01b031633146105dd576040517f91ac5e4f0000000000000000000000000000000000000000000000000000000081523360048201526024015b60405180910390fd5b602087018035906105f7906105f2908a611d6f565b610e0a565b1461064e576106096020880188611d6f565b6040517fc26bebcc00000000000000000000000000000000000000000000000000000000815263ffffffff9091166004820152602088013560248201526044016105d4565b61065d87878787878787610e5f565b50505050505050565b60008080808080808061067b898b018b611e49565b935093509350935061068a8490565b9a92995090975095509350505050565b6106a2611342565b6106ac8282611388565b5050565b6106b86113dd565b6106c061141a565b6001600160a01b038116610700576040517f9fabe1c100000000000000000000000000000000000000000000000000000000815260040160405180910390fd5b7fa99346fe26352079fd1ef7b9d9fe67cfa784267a782cf56b6437d7fbc1aac5333360208401356040805180820182523481526000602082015290516107499392918791611f9f565b60405180910390a161078a6001600160a01b037f0000000000000000000000000000000000000000000000000000000000000000163330604086013561145d565b6040805163095ea7b360e01b81526001600160a01b037f0000000000000000000000000000000000000000000000000000000000000000811660048301529184013560248201527f00000000000000000000000000000000000000000000000000000000000000009091169063095ea7b3906044016020604051808303816000875af115801561081e573d6000803e3d6000fd5b505050506040513d601f19601f820116820180604052508101906108429190611fe8565b506040805180820182523480825260006020830152915163c7c7f5b360e01b81526001600160a01b037f0000000000000000000000000000000000000000000000000000000000000000169263c7c7f5b39290916108a6918791879060040161200a565b60c06040518083038185885af11580156108c4573d6000803e3d6000fd5b50505050506040513d601f19601f820116820180604052508101906108e9919061210c565b50506106ac6001600455565b6108fd611342565b6109056114df565b565b60026020908152600092835260408084209091529082529020805461092b9061217c565b80601f01602080910402602001604051908101604052809291908181526020018280546109579061217c565b80156109a45780601f10610979576101008083540402835291602001916109a4565b820191906000526020600020905b81548152906001019060200180831161098757829003601f168201915b505050505081565b6109b4611342565b6109056000611531565b60005b92915050565b6001600160a01b03811630145b949350505050565b6109e4611342565b610905611599565b6109f4611342565b6109fc6115d6565b60405181815233906001600160a01b038416907f050bfcf56def683ba46089b74b240740900eb3e22309f1a9a50cdad12e7a43b29060200160405180910390a36106ac6001600160a01b0383163383611612565b610a58611342565b6106ac610a6582846121b0565b611648565b63ffffffff8416600090815260026020908152604080832061ffff87168452909152812080546060929190610a9e9061217c565b80601f0160208091040260200160405190810160405280929190818152602001828054610aca9061217c565b8015610b175780601f10610aec57610100808354040283529160200191610b17565b820191906000526020600020905b815481529060010190602001808311610afa57829003601f168201915b505050505090508051600003610b675783838080601f0160208091040260200160405190810160405280939291908181526020018383808284376000920191909152509294506109d49350505050565b6000839003610b775790506109d4565b60028310610bf557610bbe84848080601f01602080910402602001604051908101604052809392919081815260200183838082843760009201919091525061175a92505050565b80610bcc84600281886122d8565b604051602001610bde93929190612302565b6040516020818303038152906040529150506109d4565b8383604051639a6d49cd60e01b81526004016105d492919061232a565b610c1a611342565b6040517fca5eb5e10000000000000000000000000000000000000000000000000000000081526001600160a01b0382811660048301527f0000000000000000000000000000000000000000000000000000000000000000169063ca5eb5e190602401600060405180830381600087803b158015610c9657600080fd5b505af1158015610caa573d6000803e3d6000fd5b5050505050565b610cb96113dd565b610cc161141a565b604080513381526001600160a01b03831660208201529081018390527fbb5252b2894a0074f70a195e56c61da7ea6cfb3c340ee8e20021d646ee59096f9060600160405180910390a1610d3f6001600160a01b037f00000000000000000000000000000000000000000000000000000000000000001633308561145d565b610d736001600160a01b037f0000000000000000000000000000000000000000000000000000000000000000168284611612565b6106ac6001600455565b610d85611342565b6001600160a01b038116610dc8576040517f1e4fbdf7000000000000000000000000000000000000000000000000000000008152600060048201526024016105d4565b610dd181611531565b50565b6000602082018035906001908390610dec9086611d6f565b63ffffffff1681526020810191909152604001600020541492915050565b63ffffffff8116600090815260016020526040812054806109c1576040517ff6ff4fb700000000000000000000000000000000000000000000000000000000815263ffffffff841660048201526024016105d4565b600080600080610e6f8989610666565b929650909450925090507f1f1b0dd6b79d5ded2d2940f8d747107122f25860b53f46cf78dca361897f76268a610ea860208e018e611d6f565b60208e01356040805193845263ffffffff92831660208501526001600160a01b039182169084015290851660608301528616608082015260a0810185905260c0810185905260e00160405180910390a1801580610f9157507f00000000000000000000000000000000000000000000000000000000000000006001600160a01b031663416ecebf6040518163ffffffff1660e01b8152600401602060405180830381865afa158015610f5e573d6000803e3d6000fd5b505050506040513d601f19601f82011682018060405250810190610f82919061233e565b63ffffffff168263ffffffff16145b1561101e577fbb5252b2894a0074f70a195e56c61da7ea6cfb3c340ee8e20021d646ee59096f60208c0135604080516001600160a01b0392831681529187166020830152810185905260600160405180910390a16110196001600160a01b037f0000000000000000000000000000000000000000000000000000000000000000168585611612565b611335565b600061102e8a8a87878787611786565b60405163095ea7b360e01b81526001600160a01b037f000000000000000000000000000000000000000000000000000000000000000081166004830152602482018790529192507f00000000000000000000000000000000000000000000000000000000000000009091169063095ea7b3906044016020604051808303816000875af11580156110c2573d6000803e3d6000fd5b505050506040513d601f19601f820116820180604052508101906110e69190611fe8565b506040805180820182523480825260006020830152915163c7c7f5b360e01b81526001600160a01b037f0000000000000000000000000000000000000000000000000000000000000000169263c7c7f5b392909161114a9186918b906004016123d1565b60c06040518083038185885af193505050508015611185575060408051601f3d908101601f191682019092526111829181019061210c565b60015b6112d8577fbb5252b2894a0074f70a195e56c61da7ea6cfb3c340ee8e20021d646ee59096f60208d0135604080516001600160a01b0392831681529188166020830152810186905260600160405180910390a160405163095ea7b360e01b81526001600160a01b037f000000000000000000000000000000000000000000000000000000000000000081166004830152600060248301527f0000000000000000000000000000000000000000000000000000000000000000169063095ea7b3906044016020604051808303816000875af1158015611267573d6000803e3d6000fd5b505050506040513d601f19601f8201168201806040525081019061128b9190611fe8565b506112c06001600160a01b037f0000000000000000000000000000000000000000000000000000000000000000168686611612565b6112d36001600160a01b03861634611887565b611333565b50507fa99346fe26352079fd1ef7b9d9fe67cfa784267a782cf56b6437d7fbc1aac5336113068d6020013590565b60408051808201825234815260006020820152905161132a929189918691906123e4565b60405180910390a15b505b5050505050505050505050565b6000546001600160a01b03163314610905576040517f118cdaa70000000000000000000000000000000000000000000000000000000081523360048201526024016105d4565b63ffffffff8216600081815260016020908152604091829020849055815192835282018390527f238399d427b947898edb290f5ff0f9109849b1c3ba196a42e35f00c50a54b98b910160405180910390a15050565b60035460ff1615610905576040517fd93c066500000000000000000000000000000000000000000000000000000000815260040160405180910390fd5b600260045403611456576040517f3ee5aeb500000000000000000000000000000000000000000000000000000000815260040160405180910390fd5b6002600455565b6040516001600160a01b0384811660248301528381166044830152606482018390526114d99186918216906323b872dd906084015b604051602081830303815290604052915060e01b6020820180517bffffffffffffffffffffffffffffffffffffffffffffffffffffffff8381831617835250505050611957565b50505050565b6114e76115d6565b6003805460ff191690557f5db9ee0a495bf2e6ff9c91a7834c1ba4fdd244a5e8aa4e537bd38aeae4b073aa335b6040516001600160a01b03909116815260200160405180910390a1565b600080546001600160a01b038381167fffffffffffffffffffffffff0000000000000000000000000000000000000000831681178455604051919092169283917f8be0079c531659141344cd1fd0a4f28419497f9722a3daafe3b4186f6b6457e09190a35050565b6115a16113dd565b6003805460ff191660011790557f62e78cea01bee320cd4e420270b5ea74000d11b0c9f74754ebdbfc544b05a2586115143390565b60035460ff16610905576040517f8dfc202b00000000000000000000000000000000000000000000000000000000815260040160405180910390fd5b6040516001600160a01b0383811660248301526044820183905261164391859182169063a9059cbb90606401611492565b505050565b60005b815181101561171f5761167a82828151811061166957611669612410565b60200260200101516040015161175a565b81818151811061168c5761168c612410565b602002602001015160400151600260008484815181106116ae576116ae612410565b60200260200101516000015163ffffffff1663ffffffff16815260200190815260200160002060008484815181106116e8576116e8612410565b60200260200101516020015161ffff1661ffff16815260200190815260200160002090816117169190612476565b5060010161164b565b507fbe4864a8e820971c0247f5992e2da559595f7bf076a21cb5928d443d2a13b6748160405161174f9190612536565b60405180910390a150565b600281015161ffff81166003146106ac5781604051639a6d49cd60e01b81526004016105d49190611c5e565b6117cf6040518060e00160405280600063ffffffff1681526020016000801916815260200160008152602001600081526020016060815260200160608152602001606081525090565b60008760c0886117df86836125c1565b926117ec939291906122d8565b8080601f01602080910402602001604051908101604052809392919081815260200183838082843760009201829052506040805160e08101825263ffffffff9a909a168a526001600160a01b039b909b166020808b0191909152898c018b905260608a019a909a52608089019490945250508751808801895282815260a087015250865195860190965250505091815260c082015292915050565b804710156118ca576040517fcf479181000000000000000000000000000000000000000000000000000000008152476004820152602481018290526044016105d4565b6000826001600160a01b03168260405160006040518083038185875af1925050503d8060008114611917576040519150601f19603f3d011682016040523d82523d6000602084013e61191c565b606091505b5050905080611643576040517fd6bda27500000000000000000000000000000000000000000000000000000000815260040160405180910390fd5b600080602060008451602086016000885af18061197a576040513d6000823e3d81fd5b50506000513d9150811561199257806001141561199f565b6001600160a01b0384163b155b156114d9576040517f5274afe70000000000000000000000000000000000000000000000000000000081526001600160a01b03851660048201526024016105d4565b6000606082840312156119f357600080fd5b50919050565b60008083601f840112611a0b57600080fd5b50813567ffffffffffffffff811115611a2357600080fd5b602083019150836020828501011115611a3b57600080fd5b9250929050565b80356001600160a01b0381168114611a5957600080fd5b919050565b600080600080600080600060e0888a031215611a7957600080fd5b611a8389896119e1565b965060608801359550608088013567ffffffffffffffff80821115611aa757600080fd5b611ab38b838c016119f9565b9097509550859150611ac760a08b01611a42565b945060c08a0135915080821115611add57600080fd5b50611aea8a828b016119f9565b989b979a50959850939692959293505050565b60008060208385031215611b1057600080fd5b823567ffffffffffffffff811115611b2757600080fd5b611b33858286016119f9565b90969095509350505050565b63ffffffff81168114610dd157600080fd5b60008060408385031215611b6457600080fd5b8235611b6f81611b3f565b946020939093013593505050565b60008060408385031215611b9057600080fd5b823567ffffffffffffffff811115611ba757600080fd5b830160e08186031215611bb957600080fd5b9150611bc760208401611a42565b90509250929050565b803561ffff81168114611a5957600080fd5b60008060408385031215611bf557600080fd5b8235611c0081611b3f565b9150611bc760208401611bd0565b60005b83811015611c29578181015183820152602001611c11565b50506000910152565b60008151808452611c4a816020860160208601611c0e565b601f01601f19169290920160200192915050565b602081526000611c716020830184611c32565b9392505050565b60008060008060a08587031215611c8e57600080fd5b611c9886866119e1565b9350606085013567ffffffffffffffff811115611cb457600080fd5b611cc0878288016119f9565b9094509250611cd3905060808601611a42565b905092959194509250565b60008060408385031215611cf157600080fd5b611b6f83611a42565b60008060208385031215611d0d57600080fd5b823567ffffffffffffffff80821115611d2557600080fd5b818501915085601f830112611d3957600080fd5b813581811115611d4857600080fd5b8660208260051b8501011115611d5d57600080fd5b60209290920196919550909350505050565b600060208284031215611d8157600080fd5b8135611c7181611b3f565b60008060008060608587031215611da257600080fd5b8435611dad81611b3f565b9350611dbb60208601611bd0565b9250604085013567ffffffffffffffff811115611dd757600080fd5b611de3878288016119f9565b95989497509550505050565b600060208284031215611e0157600080fd5b611c7182611a42565b60008060408385031215611e1d57600080fd5b82359150611bc760208401611a42565b600060608284031215611e3f57600080fd5b611c7183836119e1565b60008060008060808587031215611e5f57600080fd5b84359350602085013592506040850135611e7881611b3f565b9396929550929360600135925050565b6000808335601e19843603018112611e9f57600080fd5b830160208101925035905067ffffffffffffffff811115611ebf57600080fd5b803603821315611a3b57600080fd5b81835281816020850137506000828201602090810191909152601f909101601f19169091010190565b60008135611f0481611b3f565b63ffffffff8116845250602082013560208401526040820135604084015260608201356060840152611f396080830183611e88565b60e06080860152611f4e60e086018284611ece565b915050611f5e60a0840184611e88565b85830360a0870152611f71838284611ece565b92505050611f8260c0840184611e88565b85830360c0870152611f95838284611ece565b9695505050505050565b60006001600160a01b03808716835280861660208401525060a06040830152611fcb60a0830185611ef7565b835160608401526020840151608084015290505b95945050505050565b600060208284031215611ffa57600080fd5b81518015158114611c7157600080fd5b60808152600061201d6080830186611ef7565b9050612036602083018580518252602090810151910152565b6001600160a01b0383166060830152949350505050565b634e487b7160e01b600052604160045260246000fd5b6040516060810167ffffffffffffffff811182821017156120865761208661204d565b60405290565b604051601f8201601f1916810167ffffffffffffffff811182821017156120b5576120b561204d565b604052919050565b6000604082840312156120cf57600080fd5b6040516040810181811067ffffffffffffffff821117156120f2576120f261204d565b604052825181526020928301519281019290925250919050565b60008082840360c081121561212057600080fd5b608081121561212e57600080fd5b50612137612063565b83518152602084015167ffffffffffffffff8116811461215657600080fd5b602082015261216885604086016120bd565b60408201529150611bc784608085016120bd565b600181811c9082168061219057607f821691505b6020821081036119f357634e487b7160e01b600052602260045260246000fd5b600067ffffffffffffffff808411156121cb576121cb61204d565b8360051b60206121dc81830161208c565b8681529185019181810190368411156121f457600080fd5b865b848110156122cc5780358681111561220e5760008081fd5b880160603682900312156122225760008081fd5b61222a612063565b813561223581611b3f565b8152612242828701611bd0565b868201526040808301358981111561225a5760008081fd5b9290920191601f36818501126122705760008081fd5b83358a8111156122825761228261204d565b612293818301601f19168a0161208c565b915080825236898287010111156122aa5760008081fd5b808986018a8401376000908201890152908201528452509183019183016121f6565b50979650505050505050565b600080858511156122e857600080fd5b838611156122f557600080fd5b5050820193919092039150565b60008451612314818460208901611c0e565b8201838582376000930192835250909392505050565b6020815260006109d4602083018486611ece565b60006020828403121561235057600080fd5b8151611c7181611b3f565b63ffffffff81511682526020810151602083015260408101516040830152606081015160608301526000608082015160e0608085015261239e60e0850182611c32565b905060a083015184820360a08601526123b78282611c32565b91505060c083015184820360c0860152611fdf8282611c32565b60808152600061201d608083018661235b565b60006001600160a01b03808716835280861660208401525060a06040830152611fcb60a083018561235b565b634e487b7160e01b600052603260045260246000fd5b601f821115611643576000816000526020600020601f850160051c8101602086101561244f5750805b601f850160051c820191505b8181101561246e5782815560010161245b565b505050505050565b815167ffffffffffffffff8111156124905761249061204d565b6124a48161249e845461217c565b84612426565b602080601f8311600181146124d957600084156124c15750858301515b600019600386901b1c1916600185901b17855561246e565b600085815260208120601f198616915b82811015612508578886015182559484019460019091019084016124e9565b50858210156125265787850151600019600388901b60f8161c191681555b5050505050600190811b01905550565b600060208083018184528085518083526040925060408601915060408160051b87010184880160005b838110156125b357888303603f190185528151805163ffffffff1684528781015161ffff1688850152860151606087850181905261259f81860183611c32565b96890196945050509086019060010161255f565b509098975050505050505050565b808201808211156109c157634e487b7160e01b600052601160045260246000fdfea2646970667358221220d2228ae4412fa9e193d616c7a6a4ca580659edfb89bf70394fe60b2a4d5a3beb64736f6c63430008190033",
  "devdoc": {
    "author": "Cooper Labs",
    "custom:contact": "security@cooperlabs.xyz",
    "details": "This contract will use the LockBox contract to bridge PRL to the destination chain that user specified.",
    "errors": {
      "EnforcedPause()": [
        {
          "details": "The operation failed because the contract is paused."
        }
      ],
      "ExpectedPause()": [
        {
          "details": "The operation failed because the contract is not paused."
        }
      ],
      "FailedCall()": [
        {
          "details": "A call to an address target failed. The target may have reverted."
        }
      ],
      "InsufficientBalance(uint256,uint256)": [
        {
          "details": "The ETH balance of the account is not enough to perform the operation."
        }
      ],
      "OwnableInvalidOwner(address)": [
        {
          "details": "The owner is not a valid owner account. (eg. `address(0)`)"
        }
      ],
      "OwnableUnauthorizedAccount(address)": [
        {
          "details": "The caller account is not authorized to perform an operation."
        }
      ],
      "ReentrancyGuardReentrantCall()": [
        {
          "details": "Unauthorized reentrant call."
        }
      ],
      "SafeERC20FailedOperation(address)": [
        {
          "details": "An operation with an ERC-20 token failed."
        }
      ]
    },
    "events": {
      "EmergencyRescued(address,uint256,address)": {
        "params": {
          "amount": "The amount of tokens rescued",
          "recipient": "The address that received the rescued tokens",
          "token": "The address of the rescued token"
        }
      },
      "MIMOToPRLMigrated(address,address,uint256)": {
        "params": {
          "amount": "The amount of MIMO tokens migrated to PRL tokens.",
          "caller": "The address that initiate the migration.",
          "receiver": "The address receiving the PRL tokens."
        }
      },
      "MIMOToPRLMigratedAndBridged(address,address,(uint32,bytes32,uint256,uint256,bytes,bytes,bytes),(uint256,uint256))": {
        "params": {
          "caller": "The address that initiate the migration.",
          "fee": "The MessagingFee struct paid for the bridging.",
          "receiver": "The address receiving the PRL tokens.",
          "sendParam": "The SendParam struct send to the LockBox contract."
        }
      },
      "MigrationMessageReceived(bytes32,uint32,address,uint32,address,uint256,uint256)": {
        "params": {
          "destEid": "The destination endpoint ID",
          "guid": "The unique identifier of the received message",
          "mimoAmount": "The amount of tokens being migrated",
          "prlAmount": "The amount of PRL tokens to be received",
          "receiver": "The address of the receiver",
          "sender": "The address of the sender",
          "srcEid": "The source endpoint ID"
        }
      },
      "Paused(address)": {
        "details": "Emitted when the pause is triggered by `account`."
      },
      "Unpaused(address)": {
        "details": "Emitted when the pause is lifted by `account`."
      }
    },
    "kind": "dev",
    "methods": {
      "_decodeMessage(bytes)": {
        "params": {
          "_encodedMessage": "The encoded message received from LayerZero"
        },
        "returns": {
          "amount": "The amount of tokens being migrated",
          "destEid": "The destination endpoint ID",
          "extraOptionsLength": "The length of extra options in the message",
          "receiver": "The address of the receiver"
        }
      },
      "allowInitializePath((uint32,bytes32,uint64))": {
        "details": "This indicates to the endpoint that the OApp has enabled msgs for this particular path to be received.This defaults to assuming if a peer has been set, its initialized. Can be overridden by the OApp if there is other logic to determine this.",
        "params": {
          "origin": "The origin information containing the source endpoint and sender address."
        },
        "returns": {
          "_0": "Whether the path has been initialized."
        }
      },
      "combineOptions(uint32,uint16,bytes)": {
        "details": "If there is an enforced lzReceive option: - {gasLimit: 200k, msg.value: 1 ether} AND a caller supplies a lzReceive option: {gasLimit: 100k, msg.value: 0.5 ether} - The resulting options will be {gasLimit: 300k, msg.value: 1.5 ether} when the message is executed on the remote lzReceive() function.This presence of duplicated options is handled off-chain in the verifier/executor.",
        "params": {
          "_eid": "The endpoint ID.",
          "_extraOptions": "Additional options passed by the caller.",
          "_msgType": "The OAPP message type."
        },
        "returns": {
          "_0": "options The combination of caller specified options AND enforced options."
        }
      },
      "constructor": {
        "params": {
          "_endpoint": "Address of the LayerZero endpoint",
          "_lockBox": "Address of the PRL bridge contract (OFTAdapter)",
          "_mimo": "Address of the MIMO token contract",
          "_owner": "Address of the contract owner",
          "_prl": "Address of the PRL token contract"
        }
      },
      "emergencyRescue(address,uint256)": {
        "details": "This function can only be called by the owner and only when the contract is paused",
        "params": {
          "_amount": "The amount of tokens to rescue",
          "_token": "The address of the ERC20 token to rescue"
        }
      },
      "isComposeMsgSender((uint32,bytes32,uint64),bytes,address)": {
        "details": "_origin The origin information containing the source endpoint and sender address.  - srcEid: The source chain endpoint ID.  - sender: The sender address on the src chain.  - nonce: The nonce of the message._message The lzReceive payload.Applications can optionally choose to implement separate composeMsg senders that are NOT the bridging layer.The default sender IS the OAppReceiver implementer.",
        "params": {
          "_sender": "The sender address."
        },
        "returns": {
          "_0": "isSender Is a valid sender."
        }
      },
      "lzReceive((uint32,bytes32,uint64),bytes32,bytes,address,bytes)": {
        "details": "Entry point for receiving messages or packets from the endpoint.Entry point for receiving msg/packet from the LayerZero endpoint.",
        "params": {
          "_executor": "The address of the executor for the received message.",
          "_extraData": "Additional arbitrary data provided by the corresponding executor.",
          "_guid": "The unique identifier for the received LayerZero message.",
          "_message": "The payload of the received message.",
          "_origin": "The origin information containing the source endpoint and sender address.  - srcEid: The source chain endpoint ID.  - sender: The sender address on the src chain.  - nonce: The nonce of the message."
        }
      },
      "migrateToPRL(uint256,address)": {
        "params": {
          "_amount": "The amount of MIMO tokens to migrate"
        }
      },
      "migrateToPRLAndBridge((uint32,bytes32,uint256,uint256,bytes,bytes,bytes),address)": {
        "details": "This function is payable to pay for the messaging fee.",
        "params": {
          "_refundAddress": "The address to refund the native gas in case of failed source message.",
          "_sendParam": "The parameters for the send operation."
        }
      },
      "nextNonce(uint32,bytes32)": {
        "details": "_srcEid The source endpoint ID._sender The sender address.The path nonce starts from 1. If 0 is returned it means that there is NO nonce ordered enforcement.Is required by the off-chain executor to determine the OApp expects msg execution is ordered.This is also enforced by the OApp.By default this is NOT enabled. ie. nextNonce is hardcoded to return 0.",
        "returns": {
          "nonce": "The next nonce."
        }
      },
      "oAppVersion()": {
        "details": "Providing 0 as the default for OAppSender version. Indicates that the OAppSender is not implemented. ie. this is a RECEIVE only OApp.If the OApp uses both OAppSender and OAppReceiver, then this needs to be override returning the correct versions.",
        "returns": {
          "receiverVersion": "The version of the OAppReceiver.sol contract.",
          "senderVersion": "The version of the OAppSender.sol contract."
        }
      },
      "owner()": {
        "details": "Returns the address of the current owner."
      },
      "pause()": {
        "details": "This function can only be called by the owner"
      },
      "paused()": {
        "details": "Returns true if the contract is paused, and false otherwise."
      },
      "renounceOwnership()": {
        "details": "Leaves the contract without owner. It will not be possible to call `onlyOwner` functions. Can only be called by the current owner. NOTE: Renouncing ownership will leave the contract without an owner, thereby disabling any functionality that is only available to the owner."
      },
      "setDelegate(address)": {
        "details": "Only the owner/admin of the OApp can call this function.Provides the ability for a delegate to set configs, on behalf of the OApp, directly on the Endpoint contract.",
        "params": {
          "_delegate": "The address of the delegate to be set."
        }
      },
      "setEnforcedOptions((uint32,uint16,bytes)[])": {
        "details": "Sets the enforced options for specific endpoint and message type combinations.Only the owner/admin of the OApp can call this function.Provides a way for the OApp to enforce things like paying for PreCrime, AND/OR minimum dst lzReceive gas amounts etc.These enforced options can vary as the potential options/execution on the remote may differ as per the msgType. eg. Amount of lzReceive() gas necessary to deliver a lzCompose() message adds overhead you dont want to pay if you are only making a standard LayerZero message ie. lzReceive() WITHOUT sendCompose().",
        "params": {
          "_enforcedOptions": "An array of EnforcedOptionParam structures specifying enforced options."
        }
      },
      "setPeer(uint32,bytes32)": {
        "details": "Only the owner/admin of the OApp can call this function.Indicates that the peer is trusted to send LayerZero messages to this OApp.Set this to bytes32(0) to remove the peer address.Peer is a bytes32 to accommodate non-evm chains.",
        "params": {
          "_eid": "The endpoint ID.",
          "_peer": "The address of the peer to be associated with the corresponding endpoint."
        }
      },
      "transferOwnership(address)": {
        "details": "Transfers ownership of the contract to a new account (`newOwner`). Can only be called by the current owner."
      },
      "unpause()": {
        "details": "This function can only be called by the owner"
      }
    },
    "title": "PrincipalMigrationContract",
    "version": 1
  },
  "userdoc": {
    "errors": {
      "AddressZero()": [
        {
          "notice": "Thrown when the address is zero."
        }
      ]
    },
    "events": {
      "EmergencyRescued(address,uint256,address)": {
        "notice": "Emitted when tokens are rescued in an emergency"
      },
      "MIMOToPRLMigrated(address,address,uint256)": {
        "notice": "Emitted when MIMO tokens are migrated to PRL tokens directly on this chain."
      },
      "MIMOToPRLMigratedAndBridged(address,address,(uint32,bytes32,uint256,uint256,bytes,bytes,bytes),(uint256,uint256))": {
        "notice": "Emitted when MIMO tokens are migrated to PRL tokens and bridged to another chain."
      },
      "MigrationMessageReceived(bytes32,uint32,address,uint32,address,uint256,uint256)": {
        "notice": "Emitted when a migration message is received"
      }
    },
    "kind": "user",
    "methods": {
      "MIMO()": {
        "notice": "MIMO contract token"
      },
      "PRL()": {
        "notice": "PRL contract token"
      },
      "_decodeMessage(bytes)": {
        "notice": "Decodes the received LayerZero message"
      },
      "allowInitializePath((uint32,bytes32,uint64))": {
        "notice": "Checks if the path initialization is allowed based on the provided origin."
      },
      "combineOptions(uint32,uint16,bytes)": {
        "notice": "Combines options for a given endpoint and message type."
      },
      "constructor": {
        "notice": "Constructor for PrincipalMigrationContract"
      },
      "emergencyRescue(address,uint256)": {
        "notice": "Allows the owner to rescue any ERC20 token from the contract in case of emergency"
      },
      "endpoint()": {
        "notice": "Retrieves the LayerZero endpoint associated with the OApp."
      },
      "isComposeMsgSender((uint32,bytes32,uint64),bytes,address)": {
        "notice": "Indicates whether an address is an approved composeMsg sender to the Endpoint."
      },
      "lockBox()": {
        "notice": "LayerZero's OFTAdapter used to send PRL token to other chains"
      },
      "migrateToPRL(uint256,address)": {
        "notice": "Migrates MIMO tokens to PRL tokens"
      },
      "migrateToPRLAndBridge((uint32,bytes32,uint256,uint256,bytes,bytes,bytes),address)": {
        "notice": "Migrates MIMO tokens to PRL tokens and bridges them to another chain"
      },
      "nextNonce(uint32,bytes32)": {
        "notice": "Retrieves the next nonce for a given source endpoint and sender address."
      },
      "oAppVersion()": {
        "notice": "Retrieves the OApp version information."
      },
      "pause()": {
        "notice": "Allow owner to pause the contract"
      },
      "peers(uint32)": {
        "notice": "Retrieves the peer (OApp) associated with a corresponding endpoint."
      },
      "setDelegate(address)": {
        "notice": "Sets the delegate address for the OApp."
      },
      "setPeer(uint32,bytes32)": {
        "notice": "Sets the peer address (OApp instance) for a corresponding endpoint."
      },
      "unpause()": {
        "notice": "Allow owner to unpause the contract"
      }
    },
    "notice": "LayerZero OappReceiver contract. Messages received will contain the amount of Mimo the user want to migrate and the chain he want to receive it.",
    "version": 1
  },
  "storageLayout": {
    "storage": [
      {
        "astId": 2620,
        "contract": "contracts/principal/PrincipalMigrationContract.sol:PrincipalMigrationContract",
        "label": "_owner",
        "offset": 0,
        "slot": "0",
        "type": "t_address"
      },
      {
        "astId": 64,
        "contract": "contracts/principal/PrincipalMigrationContract.sol:PrincipalMigrationContract",
        "label": "peers",
        "offset": 0,
        "slot": "1",
        "type": "t_mapping(t_uint32,t_bytes32)"
      },
      {
        "astId": 680,
        "contract": "contracts/principal/PrincipalMigrationContract.sol:PrincipalMigrationContract",
        "label": "enforcedOptions",
        "offset": 0,
        "slot": "2",
        "type": "t_mapping(t_uint32,t_mapping(t_uint16,t_bytes_storage))"
      },
      {
        "astId": 4671,
        "contract": "contracts/principal/PrincipalMigrationContract.sol:PrincipalMigrationContract",
        "label": "_paused",
        "offset": 0,
        "slot": "3",
        "type": "t_bool"
      },
      {
        "astId": 4790,
        "contract": "contracts/principal/PrincipalMigrationContract.sol:PrincipalMigrationContract",
        "label": "_status",
        "offset": 0,
        "slot": "4",
        "type": "t_uint256"
      }
    ],
    "types": {
      "t_address": {
        "encoding": "inplace",
        "label": "address",
        "numberOfBytes": "20"
      },
      "t_bool": {
        "encoding": "inplace",
        "label": "bool",
        "numberOfBytes": "1"
      },
      "t_bytes32": {
        "encoding": "inplace",
        "label": "bytes32",
        "numberOfBytes": "32"
      },
      "t_bytes_storage": {
        "encoding": "bytes",
        "label": "bytes",
        "numberOfBytes": "32"
      },
      "t_mapping(t_uint16,t_bytes_storage)": {
        "encoding": "mapping",
        "key": "t_uint16",
        "label": "mapping(uint16 => bytes)",
        "numberOfBytes": "32",
        "value": "t_bytes_storage"
      },
      "t_mapping(t_uint32,t_bytes32)": {
        "encoding": "mapping",
        "key": "t_uint32",
        "label": "mapping(uint32 => bytes32)",
        "numberOfBytes": "32",
        "value": "t_bytes32"
      },
      "t_mapping(t_uint32,t_mapping(t_uint16,t_bytes_storage))": {
        "encoding": "mapping",
        "key": "t_uint32",
        "label": "mapping(uint32 => mapping(uint16 => bytes))",
        "numberOfBytes": "32",
        "value": "t_mapping(t_uint16,t_bytes_storage)"
      },
      "t_uint16": {
        "encoding": "inplace",
        "label": "uint16",
        "numberOfBytes": "2"
      },
      "t_uint256": {
        "encoding": "inplace",
        "label": "uint256",
        "numberOfBytes": "32"
      },
      "t_uint32": {
        "encoding": "inplace",
        "label": "uint32",
        "numberOfBytes": "4"
      }
    }
  }
}