{
  "_format": "hh-sol-artifact-1",
  "contractName": "PRL",
  "sourceName": "contracts/principal/PRL.sol",
  "abi": [
    {
      "inputs": [
        {
          "internalType": "uint256",
          "name": "totalSupply",
          "type": "uint256"
        }
      ],
      "stateMutability": "nonpayable",
      "type": "constructor"
    },
    {
      "inputs": [],
      "name": "ECDSAInvalidSignature",
      "type": "error"
    },
    {
      "inputs": [
        {
          "internalType": "uint256",
          "name": "length",
          "type": "uint256"
        }
      ],
      "name": "ECDSAInvalidSignatureLength",
      "type": "error"
    },
    {
      "inputs": [
        {
          "internalType": "bytes32",
          "name": "s",
          "type": "bytes32"
        }
      ],
      "name": "ECDSAInvalidSignatureS",
      "type": "error"
    },
    {
      "inputs": [
        {
          "internalType": "address",
          "name": "spender",
          "type": "address"
        },
        {
          "internalType": "uint256",
          "name": "allowance",
          "type": "uint256"
        },
        {
          "internalType": "uint256",
          "name": "needed",
          "type": "uint256"
        }
      ],
      "name": "ERC20InsufficientAllowance",
      "type": "error"
    },
    {
      "inputs": [
        {
          "internalType": "address",
          "name": "sender",
          "type": "address"
        },
        {
          "internalType": "uint256",
          "name": "balance",
          "type": "uint256"
        },
        {
          "internalType": "uint256",
          "name": "needed",
          "type": "uint256"
        }
      ],
      "name": "ERC20InsufficientBalance",
      "type": "error"
    },
    {
      "inputs": [
        {
          "internalType": "address",
          "name": "approver",
          "type": "address"
        }
      ],
      "name": "ERC20InvalidApprover",
      "type": "error"
    },
    {
      "inputs": [
        {
          "internalType": "address",
          "name": "receiver",
          "type": "address"
        }
      ],
      "name": "ERC20InvalidReceiver",
      "type": "error"
    },
    {
      "inputs": [
        {
          "internalType": "address",
          "name": "sender",
          "type": "address"
        }
      ],
      "name": "ERC20InvalidSender",
      "type": "error"
    },
    {
      "inputs": [
        {
          "internalType": "address",
          "name": "spender",
          "type": "address"
        }
      ],
      "name": "ERC20InvalidSpender",
      "type": "error"
    },
    {
      "inputs": [
        {
          "internalType": "uint256",
          "name": "deadline",
          "type": "uint256"
        }
      ],
      "name": "ERC2612ExpiredSignature",
      "type": "error"
    },
    {
      "inputs": [
        {
          "internalType": "address",
          "name": "signer",
          "type": "address"
        },
        {
          "internalType": "address",
          "name": "owner",
          "type": "address"
        }
      ],
      "name": "ERC2612InvalidSigner",
      "type": "error"
    },
    {
      "inputs": [
        {
          "internalType": "address",
          "name": "account",
          "type": "address"
        },
        {
          "internalType": "uint256",
          "name": "currentNonce",
          "type": "uint256"
        }
      ],
      "name": "InvalidAccountNonce",
      "type": "error"
    },
    {
      "inputs": [],
      "name": "InvalidShortString",
      "type": "error"
    },
    {
      "inputs": [
        {
          "internalType": "string",
          "name": "str",
          "type": "string"
        }
      ],
      "name": "StringTooLong",
      "type": "error"
    },
    {
      "anonymous": false,
      "inputs": [
        {
          "indexed": true,
          "internalType": "address",
          "name": "owner",
          "type": "address"
        },
        {
          "indexed": true,
          "internalType": "address",
          "name": "spender",
          "type": "address"
        },
        {
          "indexed": false,
          "internalType": "uint256",
          "name": "value",
          "type": "uint256"
        }
      ],
      "name": "Approval",
      "type": "event"
    },
    {
      "anonymous": false,
      "inputs": [],
      "name": "EIP712DomainChanged",
      "type": "event"
    },
    {
      "anonymous": false,
      "inputs": [
        {
          "indexed": true,
          "internalType": "address",
          "name": "from",
          "type": "address"
        },
        {
          "indexed": true,
          "internalType": "address",
          "name": "to",
          "type": "address"
        },
        {
          "indexed": false,
          "internalType": "uint256",
          "name": "value",
          "type": "uint256"
        }
      ],
      "name": "Transfer",
      "type": "event"
    },
    {
      "inputs": [],
      "name": "DOMAIN_SEPARATOR",
      "outputs": [
        {
          "internalType": "bytes32",
          "name": "",
          "type": "bytes32"
        }
      ],
      "stateMutability": "view",
      "type": "function"
    },
    {
      "inputs": [
        {
          "internalType": "address",
          "name": "owner",
          "type": "address"
        },
        {
          "internalType": "address",
          "name": "spender",
          "type": "address"
        }
      ],
      "name": "allowance",
      "outputs": [
        {
          "internalType": "uint256",
          "name": "",
          "type": "uint256"
        }
      ],
      "stateMutability": "view",
      "type": "function"
    },
    {
      "inputs": [
        {
          "internalType": "address",
          "name": "spender",
          "type": "address"
        },
        {
          "internalType": "uint256",
          "name": "value",
          "type": "uint256"
        }
      ],
      "name": "approve",
      "outputs": [
        {
          "internalType": "bool",
          "name": "",
          "type": "bool"
        }
      ],
      "stateMutability": "nonpayable",
      "type": "function"
    },
    {
      "inputs": [
        {
          "internalType": "address",
          "name": "account",
          "type": "address"
        }
      ],
      "name": "balanceOf",
      "outputs": [
        {
          "internalType": "uint256",
          "name": "",
          "type": "uint256"
        }
      ],
      "stateMutability": "view",
      "type": "function"
    },
    {
      "inputs": [],
      "name": "decimals",
      "outputs": [
        {
          "internalType": "uint8",
          "name": "",
          "type": "uint8"
        }
      ],
      "stateMutability": "view",
      "type": "function"
    },
    {
      "inputs": [],
      "name": "eip712Domain",
      "outputs": [
        {
          "internalType": "bytes1",
          "name": "fields",
          "type": "bytes1"
        },
        {
          "internalType": "string",
          "name": "name",
          "type": "string"
        },
        {
          "internalType": "string",
          "name": "version",
          "type": "string"
        },
        {
          "internalType": "uint256",
          "name": "chainId",
          "type": "uint256"
        },
        {
          "internalType": "address",
          "name": "verifyingContract",
          "type": "address"
        },
        {
          "internalType": "bytes32",
          "name": "salt",
          "type": "bytes32"
        },
        {
          "internalType": "uint256[]",
          "name": "extensions",
          "type": "uint256[]"
        }
      ],
      "stateMutability": "view",
      "type": "function"
    },
    {
      "inputs": [],
      "name": "name",
      "outputs": [
        {
          "internalType": "string",
          "name": "",
          "type": "string"
        }
      ],
      "stateMutability": "view",
      "type": "function"
    },
    {
      "inputs": [
        {
          "internalType": "address",
          "name": "owner",
          "type": "address"
        }
      ],
      "name": "nonces",
      "outputs": [
        {
          "internalType": "uint256",
          "name": "",
          "type": "uint256"
        }
      ],
      "stateMutability": "view",
      "type": "function"
    },
    {
      "inputs": [
        {
          "internalType": "address",
          "name": "owner",
          "type": "address"
        },
        {
          "internalType": "address",
          "name": "spender",
          "type": "address"
        },
        {
          "internalType": "uint256",
          "name": "value",
          "type": "uint256"
        },
        {
          "internalType": "uint256",
          "name": "deadline",
          "type": "uint256"
        },
        {
          "internalType": "uint8",
          "name": "v",
          "type": "uint8"
        },
        {
          "internalType": "bytes32",
          "name": "r",
          "type": "bytes32"
        },
        {
          "internalType": "bytes32",
          "name": "s",
          "type": "bytes32"
        }
      ],
      "name": "permit",
      "outputs": [],
      "stateMutability": "nonpayable",
      "type": "function"
    },
    {
      "inputs": [],
      "name": "symbol",
      "outputs": [
        {
          "internalType": "string",
          "name": "",
          "type": "string"
        }
      ],
      "stateMutability": "view",
      "type": "function"
    },
    {
      "inputs": [],
      "name": "totalSupply",
      "outputs": [
        {
          "internalType": "uint256",
          "name": "",
          "type": "uint256"
        }
      ],
      "stateMutability": "view",
      "type": "function"
    },
    {
      "inputs": [
        {
          "internalType": "address",
          "name": "to",
          "type": "address"
        },
        {
          "internalType": "uint256",
          "name": "value",
          "type": "uint256"
        }
      ],
      "name": "transfer",
      "outputs": [
        {
          "internalType": "bool",
          "name": "",
          "type": "bool"
        }
      ],
      "stateMutability": "nonpayable",
      "type": "function"
    },
    {
      "inputs": [
        {
          "internalType": "address",
          "name": "from",
          "type": "address"
        },
        {
          "internalType": "address",
          "name": "to",
          "type": "address"
        },
        {
          "internalType": "uint256",
          "name": "value",
          "type": "uint256"
        }
      ],
      "name": "transferFrom",
      "outputs": [
        {
          "internalType": "bool",
          "name": "",
          "type": "bool"
        }
      ],
      "stateMutability": "nonpayable",
      "type": "function"
    }
  ],
  "bytecode": "0x61016060405234801561001157600080fd5b506040516116843803806116848339810160408190526100309161038f565b6040518060400160405280601981526020017f506172616c6c656c20476f7665726e616e636520546f6b656e0000000000000081525080604051806040016040528060018152602001603160f81b8152506040518060400160405280601981526020017f506172616c6c656c20476f7665726e616e636520546f6b656e000000000000008152506040518060400160405280600381526020016214149360ea1b81525081600390816100e29190610449565b5060046100ef8282610449565b506100ff915083905060056101b5565b6101205261010e8160066101b5565b61014052815160208084019190912060e052815190820120610100524660a05261019b60e05161010051604080517f8b73c3c69bb8fe3d512ecc4cf759cc79239f7b179b0ffacaa9a75d522b39400f60208201529081019290925260608201524660808201523060a082015260009060c00160405160208183030381529060405280519060200120905090565b60805250503060c052506101af33826101e8565b5061059c565b60006020835110156101d1576101ca83610227565b90506101e2565b816101dc8482610449565b5060ff90505b92915050565b6001600160a01b0382166102175760405163ec442f0560e01b8152600060048201526024015b60405180910390fd5b61022360008383610265565b5050565b600080829050601f81511115610252578260405163305a27a960e01b815260040161020e9190610508565b805161025d82610557565b179392505050565b6001600160a01b038316610290578060026000828254610285919061057b565b909155506103029050565b6001600160a01b038316600090815260208190526040902054818110156102e35760405163391434e360e21b81526001600160a01b0385166004820152602481018290526044810183905260640161020e565b6001600160a01b03841660009081526020819052604090209082900390555b6001600160a01b03821661031e5760028054829003905561033d565b6001600160a01b03821660009081526020819052604090208054820190555b816001600160a01b0316836001600160a01b03167fddf252ad1be2c89b69c2b068fc378daa952ba7f163c4a11628f55a4df523b3ef8360405161038291815260200190565b60405180910390a3505050565b6000602082840312156103a157600080fd5b5051919050565b634e487b7160e01b600052604160045260246000fd5b600181811c908216806103d257607f821691505b6020821081036103f257634e487b7160e01b600052602260045260246000fd5b50919050565b601f821115610444576000816000526020600020601f850160051c810160208610156104215750805b601f850160051c820191505b818110156104405782815560010161042d565b5050505b505050565b81516001600160401b03811115610462576104626103a8565b6104768161047084546103be565b846103f8565b602080601f8311600181146104ab57600084156104935750858301515b600019600386901b1c1916600185901b178555610440565b600085815260208120601f198616915b828110156104da578886015182559484019460019091019084016104bb565b50858210156104f85787850151600019600388901b60f8161c191681555b5050505050600190811b01905550565b60006020808352835180602085015260005b818110156105365785810183015185820160400152820161051a565b506000604082860101526040601f19601f8301168501019250505092915050565b805160208083015191908110156103f25760001960209190910360031b1b16919050565b808201808211156101e257634e487b7160e01b600052601160045260246000fd5b60805160a05160c05160e05161010051610120516101405161108e6105f660003960006107a70152600061077a01526000610722015260006106fa015260006106550152600061067f015260006106a9015261108e6000f3fe608060405234801561001057600080fd5b50600436106100df5760003560e01c806370a082311161008c57806395d89b411161006657806395d89b41146101b8578063a9059cbb146101c0578063d505accf146101d3578063dd62ed3e146101e857600080fd5b806370a08231146101615780637ecebe001461018a57806384b0196e1461019d57600080fd5b806323b872dd116100bd57806323b872dd14610137578063313ce5671461014a5780633644e5151461015957600080fd5b806306fdde03146100e4578063095ea7b31461010257806318160ddd14610125575b600080fd5b6100ec610221565b6040516100f99190610dd5565b60405180910390f35b610115610110366004610e0b565b6102b3565b60405190151581526020016100f9565b6002545b6040519081526020016100f9565b610115610145366004610e35565b6102cd565b604051601281526020016100f9565b6101296102f1565b61012961016f366004610e71565b6001600160a01b031660009081526020819052604090205490565b610129610198366004610e71565b610300565b6101a561031e565b6040516100f99796959493929190610e8c565b6100ec610380565b6101156101ce366004610e0b565b61038f565b6101e66101e1366004610f41565b61039d565b005b6101296101f6366004610fb4565b6001600160a01b03918216600090815260016020908152604080832093909416825291909152205490565b60606003805461023090610fe7565b80601f016020809104026020016040519081016040528092919081815260200182805461025c90610fe7565b80156102a95780601f1061027e576101008083540402835291602001916102a9565b820191906000526020600020905b81548152906001019060200180831161028c57829003601f168201915b5050505050905090565b6000336102c181858561050e565b60019150505b92915050565b6000336102db858285610520565b6102e68585856105b7565b506001949350505050565b60006102fb610648565b905090565b6001600160a01b0381166000908152600760205260408120546102c7565b600060608060008060006060610332610773565b61033a6107a0565b604080516000808252602082019092527f0f000000000000000000000000000000000000000000000000000000000000009b939a50919850469750309650945092509050565b60606004805461023090610fe7565b6000336102c18185856105b7565b834211156103df576040517f62791302000000000000000000000000000000000000000000000000000000008152600481018590526024015b60405180910390fd5b60007f6e71edae12b1b97f4d1f60370fef10105fa2faae0126114a169c64845d6126c988888861042c8c6001600160a01b0316600090815260076020526040902080546001810190915590565b6040805160208101969096526001600160a01b0394851690860152929091166060840152608083015260a082015260c0810186905260e0016040516020818303038152906040528051906020012090506000610487826107cd565b9050600061049782878787610815565b9050896001600160a01b0316816001600160a01b0316146104f7576040517f4b800e460000000000000000000000000000000000000000000000000000000081526001600160a01b0380831660048301528b1660248201526044016103d6565b6105028a8a8a61050e565b50505050505050505050565b61051b8383836001610843565b505050565b6001600160a01b0383811660009081526001602090815260408083209386168352929052205460001981146105b157818110156105a2576040517ffb8f41b20000000000000000000000000000000000000000000000000000000081526001600160a01b038416600482015260248101829052604481018390526064016103d6565b6105b184848484036000610843565b50505050565b6001600160a01b0383166105fa576040517f96c6fd1e000000000000000000000000000000000000000000000000000000008152600060048201526024016103d6565b6001600160a01b03821661063d576040517fec442f05000000000000000000000000000000000000000000000000000000008152600060048201526024016103d6565b61051b83838361094a565b6000306001600160a01b037f0000000000000000000000000000000000000000000000000000000000000000161480156106a157507f000000000000000000000000000000000000000000000000000000000000000046145b156106cb57507f000000000000000000000000000000000000000000000000000000000000000090565b6102fb604080517f8b73c3c69bb8fe3d512ecc4cf759cc79239f7b179b0ffacaa9a75d522b39400f60208201527f0000000000000000000000000000000000000000000000000000000000000000918101919091527f000000000000000000000000000000000000000000000000000000000000000060608201524660808201523060a082015260009060c00160405160208183030381529060405280519060200120905090565b60606102fb7f00000000000000000000000000000000000000000000000000000000000000006005610a8d565b60606102fb7f00000000000000000000000000000000000000000000000000000000000000006006610a8d565b60006102c76107da610648565b836040517f19010000000000000000000000000000000000000000000000000000000000008152600281019290925260228201526042902090565b60008060008061082788888888610b38565b9250925092506108378282610c07565b50909695505050505050565b6001600160a01b038416610886576040517fe602df05000000000000000000000000000000000000000000000000000000008152600060048201526024016103d6565b6001600160a01b0383166108c9576040517f94280d62000000000000000000000000000000000000000000000000000000008152600060048201526024016103d6565b6001600160a01b03808516600090815260016020908152604080832093871683529290522082905580156105b157826001600160a01b0316846001600160a01b03167f8c5be1e5ebec7d5bd14f71427d1e84f3dd0314c0f7b2291e5b200ac8c7c3b9258460405161093c91815260200190565b60405180910390a350505050565b6001600160a01b03831661097557806002600082825461096a9190611021565b90915550610a009050565b6001600160a01b038316600090815260208190526040902054818110156109e1576040517fe450d38c0000000000000000000000000000000000000000000000000000000081526001600160a01b038516600482015260248101829052604481018390526064016103d6565b6001600160a01b03841660009081526020819052604090209082900390555b6001600160a01b038216610a1c57600280548290039055610a3b565b6001600160a01b03821660009081526020819052604090208054820190555b816001600160a01b0316836001600160a01b03167fddf252ad1be2c89b69c2b068fc378daa952ba7f163c4a11628f55a4df523b3ef83604051610a8091815260200190565b60405180910390a3505050565b606060ff8314610aa757610aa083610d0f565b90506102c7565b818054610ab390610fe7565b80601f0160208091040260200160405190810160405280929190818152602001828054610adf90610fe7565b8015610b2c5780601f10610b0157610100808354040283529160200191610b2c565b820191906000526020600020905b815481529060010190602001808311610b0f57829003601f168201915b505050505090506102c7565b600080807f7fffffffffffffffffffffffffffffff5d576e7357a4501ddfe92f46681b20a0841115610b735750600091506003905082610bfd565b604080516000808252602082018084528a905260ff891692820192909252606081018790526080810186905260019060a0016020604051602081039080840390855afa158015610bc7573d6000803e3d6000fd5b5050604051601f1901519150506001600160a01b038116610bf357506000925060019150829050610bfd565b9250600091508190505b9450945094915050565b6000826003811115610c1b57610c1b611042565b03610c24575050565b6001826003811115610c3857610c38611042565b03610c6f576040517ff645eedf00000000000000000000000000000000000000000000000000000000815260040160405180910390fd5b6002826003811115610c8357610c83611042565b03610cbd576040517ffce698f7000000000000000000000000000000000000000000000000000000008152600481018290526024016103d6565b6003826003811115610cd157610cd1611042565b03610d0b576040517fd78bce0c000000000000000000000000000000000000000000000000000000008152600481018290526024016103d6565b5050565b60606000610d1c83610d4e565b604080516020808252818301909252919250600091906020820181803683375050509182525060208101929092525090565b600060ff8216601f8111156102c7576040517fb3512b0c00000000000000000000000000000000000000000000000000000000815260040160405180910390fd5b6000815180845260005b81811015610db557602081850181015186830182015201610d99565b506000602082860101526020601f19601f83011685010191505092915050565b602081526000610de86020830184610d8f565b9392505050565b80356001600160a01b0381168114610e0657600080fd5b919050565b60008060408385031215610e1e57600080fd5b610e2783610def565b946020939093013593505050565b600080600060608486031215610e4a57600080fd5b610e5384610def565b9250610e6160208501610def565b9150604084013590509250925092565b600060208284031215610e8357600080fd5b610de882610def565b7fff00000000000000000000000000000000000000000000000000000000000000881681526000602060e06020840152610ec960e084018a610d8f565b8381036040850152610edb818a610d8f565b606085018990526001600160a01b038816608086015260a0850187905284810360c08601528551808252602080880193509091019060005b81811015610f2f57835183529284019291840191600101610f13565b50909c9b505050505050505050505050565b600080600080600080600060e0888a031215610f5c57600080fd5b610f6588610def565b9650610f7360208901610def565b95506040880135945060608801359350608088013560ff81168114610f9757600080fd5b9699959850939692959460a0840135945060c09093013592915050565b60008060408385031215610fc757600080fd5b610fd083610def565b9150610fde60208401610def565b90509250929050565b600181811c90821680610ffb57607f821691505b60208210810361101b57634e487b7160e01b600052602260045260246000fd5b50919050565b808201808211156102c757634e487b7160e01b600052601160045260246000fd5b634e487b7160e01b600052602160045260246000fdfea26469706673582212209e20b59aae236592f6dd3ef3765206ab88784af3e624624b92ada32294165a0464736f6c63430008190033",
  "linkReferences": {},
  "deployedLinkReferences": {}
}